:10000000EAC3000005C4000003C4000001C40000EE
:10001000FFC30000FDC30000FBC30000F9C30000E4
:10002000F7C30000F5C300000C94012F0C94E92FD6
:100030000C94B62EEDC30000EBC30000E9C3000032
:10004000E7C30000E5C30000E3C30000E1C3000014
:10005000DFC300000C94DD2EDBC30000D9C3000019
:10006000D7C30000D5C30000D3C30000D1C3000034
:10007000CFC30000CDC30000CBC30000C9C3000044
:10008000C7C30000C5C30000C3C30000C1C3000054
:10009000BFC30000BDC30000BBC30000B9C3000064
:1000A000B7C30000B5C30000B3C3000005010902D7
:1000B000A10185020901A1000509190129081500FE
:1000C0002501950875018102050109300931158165
:1000D000257F95027508810609381581257F9501D0
:1000E00075088106050C0A38021581257F95017572
:1000F000088106C0C005010980A101850319012AF4
:10010000B700150126B700950175108100C0050CD8
:100110000901A101850419012AA002150126A002E6
:10012000950175108100C005010906A1018506052C
:100130000719E029E71500250195087501810205D9
:1001400007190029EF1500250195F07501810205B9
:10015000081901290595057501910295017503910D
:1001600001C00660FF0961A1010962150026FF00B8
:100170009520750881020963150026FF00952075FA
:10018000089102C005010906A101050719E029E748
:1001900015002501950875018102950175088101F9
:1001A0000507190029FF150026FF0095067508812F
:1001B000000508190129051500250195057501910E
:1001C00002950175039101C009025B00030100A0C3
:1001D000FA090400000103010100092111010001D5
:1001E00022440007058103080001090401000203FD
:1001F00000000009211101000122220007058203ED
:100200002000010705030320000109040200010387
:1002100000000009211101000122B6000705840336
:100220002000011201000200000008EDFE010000A4
:1002300001010203011C037600690061006C003AB1
:100240000066003600340063003200620033006351
:10025000000000120366004100750078004C004960
:10026000004300450000001003620072006F00634D
:10027000006B00610072000000040309040000002C
:10028000000000000000000000000000000000006E
:10029000000000000000000000000000000000005E
:1002A000007E0F00D4FFFFFFC700000078000000B1
:1002B00000000000002A2B280000000000000000C1
:1002C000000000000000000029000000002C1E3487
:1002D00020212224342627252E362D3738271E1F8D
:1002E000202122232425263333362E37381F0405B8
:1002F000060708090A0B0C0D0E0F10111213141526
:10030000161718191A1B1C1D2F3130232D35040503
:10031000060708090A0B0C0D0E0F10111213141505
:10032000161718191A1B1C1D2F3130354C167C1E40
:10033000001F0020002100220023002B0014001ABF
:10034000000800150017001C00E300040016000759
:100350000009000A000B00E10000001D001B000660
:100360000019000500E000E2000000225200002C0D
:100370000000002A0035002D00270026002500245B
:1003800000310030002F00130012000C001800286C
:10039000002E00340033000F000E000D00E500E3D6
:1003A00000380037003600100011002452E400E647
:1003B000000000235200002A00010001000100019A
:1003C0000001000100010001000100010001000125
:1003D0000001000100010004281624072209210160
:1003E0000001000100000001000100010001000106
:1003F00000010001000000010000000100000001F8
:1004000000010001000100010001000100010001E4
:1004100000010001000100010001000100010001D4
:100420000033380F340E320D31010001000100019C
:1004300000010001000100010001000100000001B5
:10044000000000010035003A003B003C003D003E4A
:10045000003F000100010052002A004C0001000191
:10046000000100500051004F00010001004B00014D
:10047000000000AE00AA00A900A8000100010001D0
:1004800000000001000000010000004C00010044D9
:100490000043004200410040000100010001000152
:1004A0000001000100010001004500010001000100
:1004B0000001004E00010052000100460046004DC0
:1004C000004A004F005100500000000100000001F0
:1004D00000010054005500560001000100010053C6
:1004E000005F006000610057000100010009705CBE
:1004F000005D005E00630001004B000A70000059BF
:10050000005A005B006700010063006200000062A7
:10051000000000580000000100010001000100017E
:1005200000010001000100007C0100010001000148
:100530000001000100010001000100010001004E66
:1005400000010052000100010046004D004A004F2A
:100550000051005000000001000000AE0001000149
:100560000001000100010001000100010001000183
:100570000001000100010001000100010001000173
:100580000001000100010001000000010001000164
:100590000001000100010001000000010000000155
:1005A0000000000100010001000100010001000144
:1005B000000100007C0100010001000100010001B8
:1005C00000010001000100010001000100AE000176
:1005D0000001000100010001000100010001000113
:1005E000000000010000000100FD377A585A0000A9
:1005F00004E6D6B4460200210116000000742FE57F
:10060000A3E003FA01795D003D8889C65436C3171B
:100610004FE4F17CFE7F08FEE19DA178E81400A183
:10062000FFA54E16ED28B0D4E246AFB54C5EA92C1E
:10063000FBE69ACEFF74ED12A12E87F8E9718617BA
:1006400044533BA2B27C9A3BDF77F63989081D8878
:10065000990289524C8325FDA2E14847F367685708
:100660008FD25E740BBF84E571B0462DC09BFD50E8
:100670006EB7C441C3114640F3A9FC6609650A740C
:10068000CAC4E5A65BE4E44C086622A92F2F8A8041
:1006900080DBD9A6EF6413C2FF11D4197180130750
:1006A000F77420C60DEDF9C928E722190303B47CBD
:1006B00093E296FF76C64BDAED87A1AB23220D8439
:1006C000E69B6EC453C18AD386F236E8D2567EDDED
:1006D000BC1D55402D73437339384556EEA377C47E
:1006E00053BDA666138EF609A5B573F0374C9C670B
:1006F0006B8BFA786FBBBC62D8796FF320EED00AAF
:10070000674AFCA5A17CBDDC7AB6092418A95CF077
:10071000308A75AFCDDB35EE8FCF15162E806C206D
:10072000EDCD649BC77908AF7AC2AA6B967B6CC18A
:10073000C9E718EA3995AC5929BF5DDD9B0ADD632D
:10074000AB390E49BD57B7BC8F39DFDF6C3CB429DC
:10075000C06961A4EDA6468A9153280420B76C5B5A
:10076000B9CEAD1956B299158B7B773EA48E82D146
:10077000D9C1D33AFDA0D2936A0E8E7C6183F46C0A
:100780008D0000000070DDFD7F2A09506D0001958D
:1007900003FB070000DEAE769DB1C467FB020000DC
:1007A000000004595A504F52514A4D4B4E2A4C2F7B
:1007B00030B6B7ABACBBBCA9AABDBECFD0CDCEDBEB
:1007C000DCD9DA0D0E0B0F1A0508050905071811FB
:1007D000130408120C0011241FBECFEFDAE0DEBFB5
:1007E000CDBF11E0A0E0B1E0E4E4F3E602C0059083
:1007F0000D92A83AB107D9F724E0A8EAB1E001C008
:100800001D92AE39B207E1F70E94BC270C94243147
:10081000F7CB9C0191509F31B0F4832F817034FF4E
:100820000AC08295807F31FD806232FD806433FF93
:100830000BC08068089531FD826032FD846033FF13
:1008400003C08860089580E00895CF93DF93EB01A3
:10085000E0DFFE010995DF91CF9108950C944530BA
:100860000895982F92959F7061F420E0982F892F1A
:100870008695869511F02E5F982F892F8695820F89
:10088000089524E0F4CF80939A04089580939B0404
:10089000089521E001C0220F8A95EAF780919B0418
:1008A000822BF4CF21E001C0220F8A95EAF7822F34
:1008B000809590919B048923E9CF292F9A3090F558
:1008C000873080F590E037E0239F800D911D112443
:1008D00051E081FD54E080FD550F82FD529523E0EB
:1008E000969587952A95E1F7FC01EE0FFF1FE80F1B
:1008F000F91FED51FD4F20E030E070E04191DF0144
:10090000CB01022E02C0969587950A94E2F7869550
:10091000880B8427852384278E932F5F3F4F2330B6
:10092000310561F70895292F9A3070F5873060F509
:1009300090E037E0239F800D911D1124682F677090
:1009400023E0969587952A95E1F7FC01EE0FFF1FAE
:10095000E80FF91FED51FD4F40E050E080E021919C
:1009600030E0062E02C0369527950A94E2F72170F2
:10097000042E01C0220F0A94EAF7822B4F5F5F4FCB
:100980004330510561F7089580E0089590919B04EC
:1009900021E030E0F90101C0EE0F8A95EAF7D901B4
:1009A00001C0AA0F6A95EAF7EA2B01C0220F4A9507
:1009B000EAF7892F8E23E81303C0892F822B66CF95
:1009C0002095822F8923FBCFE09191029091900294
:1009D000E91302C080E008959F0159E0E59FF0010E
:1009E0001124EE56FD4F5181561306C05081581305
:1009F00003C05581541305C02F5F3F4FF901E770C5
:100A0000E7CF81E008958091910220919002281310
:100A100001C0089501968770FACF9091FB038095ED
:100A200089238093FB03282F277081F4891771F0A5
:100A300090919D0492FF0AC086958695869532DF37
:100A40001092FB031092FC031092FD030895909105
:100A5000F803982B9093F80308958095982F809130
:100A6000F80389238093F80308958091F703811593
:100A700031F01092F7031092FE031092FF030895D5
:100A8000803E9105D1F1C8F48133910509F481C00C
:100A900048F48932910509F471C08A32910509F44C
:100AA0007FC0089589339105E1F082389105C9F03E
:100AB0008533910509F45DC00895843E9105D1F117
:100AC00048F4823E910531F1833E910541F181EE7A
:100AD00090E00895863E9105C1F1873E9105F1F1C0
:100AE000089520919C04237009F064C020919D0416
:100AF00023FF14C089E290E0089520919C0420FD1A
:100B000045C030919D0430FF09C024FD24C083EE10
:100B100090E0089520919C0422FDF7CF0895209144
:100B20009C0422FD44C030919D0430FD43C024FF4D
:100B3000F5CF11C020919D0421FFF0CF80919C043E
:100B400084FD09C087EE90E0089520919C0423FF66
:100B5000E5CF24FFF7CF80E090E0089520919C043A
:100B600023FD2BC030919D0431FFE1CF84EE90E056
:100B7000089520919C0425FFD1CFBCCF20919C04E7
:100B800025FD1EC020919D0423FFC8CF89E390E07E
:100B9000089520919C0426FFC1CF8AE290E0089539
:100BA00020919C0426FFBACF81E390E0089582EE65
:100BB00090E0089580EE90E0089586EE90E008952C
:100BC00085E390E0089590919C0492FF10C041E06D
:100BD000282F2471243009F040E031E0282F2871BB
:100BE000283009F030E0431711F02CE0822793FF02
:100BF00010C041E0282F2471243109F040E031E099
:100C0000282F2871283109F030E0431711F02CE02B
:100C1000822730919D0430FF10C051E0282F2171B0
:100C2000213009F050E041E0282F2871283009F0E8
:100C300040E0541711F029E0822731FF10C041E055
:100C4000282F2171213109F040E031E0282F28714F
:100C5000283109F030E0431711F029E0822794FD94
:100C6000877E08950F931F93CF93DF9309DFEC01E5
:100C7000D23508F04DC0D03508F0C3C0C03ED10514
:100C800030F5CD3CD10508F09AC0C83AD10578F4CA
:100C9000C53AD10508F090C0C130D10599F1CE0117
:100CA0000497813A910570F1C0E0D0E02BC0CE01ED
:100CB000885A91094B97C0F7C85AD0E0CC0FDD1F76
:100CC000C55CDE4F0990D881C02DD4641BC0D034E0
:100CD00090F4D03208F0A8C0C83ED10598F0CE01FB
:100CE00091509F3108F78D2F6EDF082F8C2F90E0E9
:100CF000C7DE902B54C08C2F90E0C2DEDF70C82F6F
:100D0000D92BD06ACE01DF91CF911F910F91089519
:100D1000C03882E5D807B8F5C03682E5D80708F0B4
:100D200056C0C03482E5D807C8F4C03282E5D8077F
:100D300008F047C08C2F8695869520E2829FC001DF
:100D40001124C37021E030E002C0220F331FCA9586
:100D5000E2F7E901C82BD92BDD68D4CF8C2F86951B
:100D60008695877020E2829FC0011124C37021E024
:100D700030E002C0220F331FCA95E2F7E901C82B09
:100D8000D92BDC68BFCFC03C82E5D80750F48C2F4C
:100D90008F71C03AD24580F5982F84EF906AEC01AC
:100DA000B1CFCE01805C9245809708F07DCFDC2FDB
:100DB000DF71C0EFD06AA6CFA497D064A3CFD0656F
:100DC000A1CF8C2F8F71D82FC1EFD06A9BCF8C2FE2
:100DD00086958695877020E2829FC0011124C3709A
:100DE00021E030E002C0220F331FCA95E2F7E9018B
:100DF000C82BD92BDA6886CFE6DEC0E0D82FD062C8
:100E000081CF8C2F8F71DFDE93E0CC0FDD1F9A95A1
:100E1000E1F7DF70282F84FF04C090E1899F9001E3
:100E20001124C22FD0696ECF8D2F8F71CCDE082F89
:100E30008C2F90E025DE902BEC01E1CF80E008952F
:100E4000F894E82FE295EF70F0E041A18F7021E077
:100E500001C0220F8A95EAF7922F9095942391A3CF
:100E600092A1822F892B82A378940895E091860223
:100E7000F0918702309739F00284F385E02D3097A6
:100E800011F060E20995089581152CE7920741F46D
:100E90002091460230914702232B11F480E090E02C
:100EA0000895E0EAF3E080E090E069ED76E24CEF4F
:100EB00056E22FE637E266837783408751872287A1
:100EC000338786879787019670968530910599F7C5
:100ED0000895903218F4911106C008959C01305283
:100EE000303350F00895392F94FF02C03295307F8F
:100EF000FB012081232B208390E00895462B22FFC5
:100F00000FC0982F92959F708F70892B962F929576
:100F10009F706F70692B942F92959F704F70492B23
:100F2000982F9623961308C040955FEF90E04823D2
:100F3000592381E0452B09F080E0089510922B049D
:100F400010922C04E0E0F4E08581811102C014824B
:100F50001682379684E0E332F807B1F70895DC0192
:100F600060912E0480912D04962F891301C008955D
:100F7000292F30E0F901EE0FFF1FED5DFB4F40819F
:100F800051814A175B0799F487E08A9FA0018B9FE4
:100F9000500D112440505C4F81E0FA018483961378
:100FA000E6CF2F5F3F4F237020932E0408952395A3
:100FB000922F9370DACFFC018481862351F49281C1
:100FC0009115B9F06923808583FF05C081E0611127
:100FD0000FC080E00895292F22952F709F70292B34
:100FE000962F92959F706F70962B81E02913F1CF09
:100FF000089581E008950F931F93CF9301E0082E89
:1010000001C0000F0A94EAF7C091F6039C2F9023C9
:10101000A9F49091FB03969596959695891306C031
:101020001092FB031092FC031092FD0332DCC027E8
:10103000C093F603CF911F910F91089533DCF7CF42
:10104000382F25EB3203C001112497FF04C08058CC
:101050009109892F089580589F4FFBCF80910003FD
:1010600080FD14C081FD14C082FD16C08091FF0276
:10107000811581F08E3180F420E5829FC00111241A
:101080006EE170E00E942C30862F089584E108956F
:1010900088E2089588E0089580E50895809100032E
:1010A00080FD17C081FD17C082FD19C08091FE022E
:1010B000811599F0883298F428E0829FC0011124AC
:1010C00068E270E00E942C306115710551F0862FA6
:1010D000089562E0FCCF64E0FACF61E0F8CF68E009
:1010E000F6CF81E0089590915C038902900111246C
:1010F00037FF03C080935C0308952F3731051CF43C
:10110000980F90935C030895A0E0B0E0FC01EA0F13
:10111000FB1FE491E41308C031E02A2F2327820F3C
:10112000911DFC01849108951196A61778F380E033
:101130000895FA01309709F009950895E091860223
:10114000F0918702309739F00190F081E02D3097CF
:1011500011F00995089580E00895A3E0B0E0E3EB75
:10116000F8E00C946B302091EB013091EC012817E2
:101170003907B1F08093EB019093EC01E091860286
:10118000F0918702309761F00084F185E02D30976F
:1011900039F023E029838A839B83CE010196099548
:1011A0002396E2E00C948730A3E0B0E0EAEDF8E0AB
:1011B0000C946B302091E9013091EA01281739072E
:1011C000B1F08093E9019093EA01E0918602F091F9
:1011D0008702309761F00084F185E02D309739F077
:1011E00024E029838A839B83CE0101960995239667
:1011F000E2E00C94873090910E01913099F0ACEAC6
:10120000B1E0EFEF90E02C91821759F01196EF3F8B
:1012100019F4211101C0E92F9F5F9630A1F7EF3F2C
:10122000C1F4089590919C0497FFE9CFE82FE695CB
:10123000E695E695803FA8F7F0E0EE54FE4F877004
:1012400021E001C0220F8A95EAF78281822B8283F6
:101250000895FE2FFF0FFF0BE655FE4FF8CF90913C
:101260000E01913021F490919C0497FD0CC0ECEAA2
:10127000F1E09191891302C0DF011E9291E0E23BFF
:10128000F907B9F70895E82FE695E695E695803FCA
:10129000C8F7F0E0EE54FE4F9DEF81FD97EF80FF21
:1012A000959582FD9295828189238283089580910C
:1012B0000D0108952FB7F8948091E5019091E60112
:1012C000A091E701B091E8012FBF0895CF93C0919D
:1012D000F8038091FA03C82B8091F703811529F157
:1012E000E9DF2091FE033091FF03821B930B8838C6
:1012F000934108F0BADB8091F703C82B80910E016F
:10130000813021F480919C0487FD18C086E02CEA8E
:1013100031E090E08150F90140812F5F3F4F411152
:101320009F5F8111F7CF9111A0DB809176038095AB
:101330008C2390917503892BCF9108958EE124EB36
:1013400031E0E7CF90919D0492FF0EC0982F990F46
:10135000990F990F962B9093FB039BDAABDF809349
:10136000FC039093FD03089594CA9091F703292FED
:10137000282359F0809589238093F70390E0811109
:1013800099DF8093FE039093FF03089593DF9C0100
:101390009091030380910403982B21F020933F0246
:1013A000309340029091050380910603982B21F021
:1013B00020933D0230933E02E0918602F091870235
:1013C000309759F00680F781E02D309731F082E0B8
:1013D0008093010381E093E009950895611509F474
:1013E00040C0E82FED5CE33148F4F0E0EA5DFE4CEC
:1013F0000C943F3033DE819580930403C7CF2EDEFB
:10140000FBCF2CDE819580930303F8CF27DEFBCF43
:1014100045DE80930503F2CF41DE8195FACF3EDEB3
:10142000819580930603EACF39DEFBCF815D990B6E
:1014300021E001C0220F8A95EAF780910203822BF6
:1014400080930203DBCF80910003816080930003CF
:10145000D5CF809100038260F9CF80910003846032
:10146000F5CF409103038D3C59F48091040387FF2D
:101470000DC010920403411559F41092FF0208C0E8
:101480008E3C81F48091040318169CF3411581F081
:101490008091050390910603892B09F0AFCF10923C
:1014A000FE02ACCF8F3C41F447FFF0CF1092030314
:1014B000809104038115E0CF803D19F41416B4F334
:1014C000E5CF90910503893D29F41916FCF6109299
:1014D0000503DCCF8A3D19F497FFD8CFF8CF909160
:1014E00006038B3D29F497FFD1CF10920603CECF90
:1014F0008C3D19F41916CCF3C9CF982F915D983013
:1015000078F4815D990B21E001C0220F8A95EAF7FA
:10151000822F809590910203892380930203B6CF96
:101520008D3D31F4809100038E7F80930003AECF18
:101530008E3D21F4809100038D7FF7CF8F3D09F020
:10154000A5CF809100038B7FF0CF2FB7F8946091E7
:10155000E5017091E6018091E7019091E8012FBFCC
:101560000895CF92DF92EF92FF92CF93DF93EC0139
:10157000C0909A03D0909B03E0909C03F0909D0351
:10158000E4DFDC01CB018C199D09AE09BF09843F62
:101590009140A105B10508F1D8DF6B017C0182E320
:1015A00090E0C0923902D0923A02E0923B02F0926F
:1015B0003C028093350290933602109237021092CB
:1015C0003802CE01C093980390939903DF91CF9195
:1015D000FF90EF90DF90CF90089584EF91E0E1CFFE
:1015E00087E797E7809300089093010888E19AE0E5
:1015F0000FB6F894A895809360000FBE909360009A
:10160000FFCFFC018091DB019091DC0186179707E9
:1016100048F06115710529F48091E8008E77809378
:10162000E800CB0140E0009741F4411106C08091F1
:10163000E80082FF30C080E0089520914802211523
:10164000B1F12530B1F12091E80023FD2EC02091A9
:10165000E80022FDECCF2091E80020FFE4CF40918C
:10166000F3002091F200342F009719F02830310553
:1016700058F041E02830310509F040E02091E800C1
:101680002E772093E800CFCF41914093F10001974E
:101690002F5F3F4FE9CF80914802811541F085309F
:1016A00041F08091E80083FFC2CF81E0089582E09D
:1016B000089583E00895982F9093E900891771F0B9
:1016C0007091EC002091ED005091F00021FD09C0D7
:1016D0009F5F973089F78093E9000895762F242F34
:1016E00050E03091EB003E7F3093EB003091ED0005
:1016F0003D7F3093ED003091EB0031603093EB0093
:101700007093EC002093ED005093F0002091EE00D8
:1017100027FDDECF08958091D50187FF13C080910A
:10172000E80082FF06C08091E8008B778093E80094
:101730000895809148028111F2CF08958091480266
:101740008115D9F38091E80080FFF8CF8091E800FF
:101750008E77ECCF2091E4003091E50095E6A90169
:101760002091EC00822F817020FF06C08091E8005C
:1017700080FF06C080E008952091E80022FD1AC095
:1017800080914802811589F0853089F08091EB00C5
:1017900085FD0FC02091E4003091E500421753070A
:1017A000F9F29150E1F684E0089582E0089583E033
:1017B000089581E00895CF93DF93C8EDD0E088814C
:1017C0008F7E8883E7EDF0E080818160808384E014
:1017D00082BF81E08093D40188818E7F8883E2EE8E
:1017E00010821092DA00A1EEB0E01C9288818F770F
:1017F000888388818068888388818F7D888319BCED
:10180000109248021092D301109229021092D20134
:10181000A0EE8C918B7F8C9388818160888342E0DD
:1018200060E080E048DFA1EEB0E08C918E7F8C9389
:10183000E2EEF0E080818160808380818860808337
:10184000E0EE80818E7F8083888180618883DF9154
:10185000CF910895E8EDF0E080818E7F8083109233
:10186000E2001092DA001092E100A0EEB0E08C915C
:1018700081608C9380818F77808319BCA7ED8C91D8
:101880008E7F8C9380818F7E80831092D401089507
:101890000F931F93CF93DF93EB018A01909148023E
:1018A000943059F58093E9008FEF9091E80095FD11
:1018B00006C095ED9A95F1F700008150B1F780913F
:1018C000E80085FF1AC046DF811112C08091E80050
:1018D00085FD06C08091E8008E778093E800F3CF05
:1018E00088818093F1000150104011F02196EECFD5
:1018F0008091E8008E778093E800DF91CF911F916F
:101900000F910895603229F440E250E0BC0182E07A
:10191000BFCF0895CF93DF93EC0148E050E0BC01C6
:1019200081E0B6DF88E0FE01ADEDB1E001900D92FF
:101930008A95E1F7DF91CF91089540E250E0BC0134
:1019400084E0A6CF46E050E0BC0184E0A1CF43E0B4
:1019500050E0BC0184E09CCF90919D0492FB222733
:1019600020F9281771F080FB92F990939D04609103
:101970009C0470919D0484E090E00E94093182E013
:101980004CC808951F93CF93DF93122F8530E0F456
:101990006A30D0F44730C0F4C42FD0E0CC0FDD1F44
:1019A0002EE0629FC00DD11D11249CE8899FC00DBF
:1019B000D11D1124632FCE0189960E94EF30612F33
:1019C000CE018A960E94EF30DF91CF911F9108954A
:1019D00080910E01813061F580919C0487FF28C0C1
:1019E00075DC8093B30140E250E066E672E082EB82
:1019F00091E00E94AF30892BD1F080E2E2EBF1E080
:101A0000A6E6B2E001900D928A95E1F7E091860298
:101A1000F0918702309759F00480F581E02D3097DE
:101A200031F086E08093B20182EB91E00995089550
:101A30004DDC8093AA0148E050E068E872E08AEA51
:101A400091E00E94AF30892B91F388E0EAEAF1E05F
:101A5000A8E8B2E001900D928A95E1F7E091860244
:101A6000F0918702309719F30280F381E02D3097CF
:101A7000F1F28AEA91E0DACF811519F00E94270588
:101A8000A7CF0895811531F09091FA03982B909388
:101A9000FA039ECF0895CF93C82F8115C1F08450CB
:101AA000813A70F580910E01813021F480919C047F
:101AB00087FD0FC0ECEAF1E08081C817E9F03196AC
:101AC00081E0E23BF807C1F78C2F95DB81DFCF91F6
:101AD0000895EC2FE695E695E695F0E0EE54FE4F7E
:101AE000828190E04C2F477021E001C0220F4A957F
:101AF000EAF78223892B41F38C2FB1DB69DFE4CF36
:101B00008C2F805E883050F481E0C1FD84E0C0FD00
:101B1000880FC2FD82950E942705D8CF8C2F855A49
:101B2000833028F48C2F8452990B17DBD0CFEC2F05
:101B3000E85AEB3148F4F0E0EE0FFF1FEF58FE4F8C
:101B40008081918131DBC3CF8C2F8D5C833108F094
:101B5000BECF61E08C2F42DCBACFCF93DF93EC0194
:101B6000805E9109089720F062E47DE0209711F4EF
:101B70006CE37DE0CE010E9425048C2F8CDFDF9189
:101B8000CF910895811549F1982F9450913A10F40E
:101B900066DB1ECF982F905E983058F4982F81E026
:101BA00091FD84E090FD880F92FD82950E942D05A5
:101BB000F0CF982F955A933018F480E090E0CDCA7A
:101BC000982F985A9B3118F480E090E0EDCA982F36
:101BD0009D5C933110F460E001CC08951F93CF9386
:101BE000DF93182FEB0157DF209731F4812FCADFE5
:101BF000DF91CF911F9108958FE99FE00197F1F751
:101C000000C000002197F0CF811519F00E942D052A
:101C1000DFCE0895811539F080959091FA038923DC
:101C20008093FA03D5CE089580917103811521F038
:101C300082E2F0DF1092710308951092F803809110
:101C40000E01813001F580919C0487FF1CC0E4EBFC
:101C5000F1E08EE111928A95E9F780E090E07DDA7B
:101C600080E090E0A1DA1092FA03B2DEE1E0F3E066
:101C700086E011928A95E9F71092FF021092FE0217
:101C80001092000383CBECEAF1E086E0E3CFD5DFEE
:101C90008FEF94E32CE0815090402040E1F700C0AA
:101CA000000088E19AE00FB6F894A8958093600050
:101CB0000FBE90936000FFCFAAE2B0E0E2E6FEE044
:101CC0000C946A3085ED91E0FC0101962091F100C1
:101CD000208321E08D3D9207B9F78091D6018930AC
:101CE00009F457C0C8F4823009F4B3C0833009F452
:101CF00083C0813081F18091E80083FFE7C080914B
:101D0000D5019091D6019A3008F0E0C0E92FF0E0BB
:101D1000E75CFE4C0C943F308A3009F48AC08B306B
:101D200051F78091D501813231F78091D90190919D
:101D3000DA01892B01F78091E800877F8093E80022
:101D4000EADC81E09091D701911101C080E080939D
:101D50000E0173DFD0CF8091D501813A61F6809179
:101D6000E800877F8093E8008091D9019091DA01A3
:101D7000892B59F060E080E090E070E042DC8091D7
:101D8000E8008B778093E800B6CF68E08DED91E0B6
:101D9000F4CF8091D501813209F0ADCF8091D90186
:101DA0009091DA018D7F892B09F0A5CF8091E80011
:101DB000877F8093E8008091E80082FF18C020911F
:101DC000F3008091F200922F029731F48091F1009C
:101DD000813011F0863021F48091F10080930D0163
:101DE0008091E8008B778093E80095DC84CF809128
:101DF00048028111E0CF7FCF8091D501813A09F06F
:101E00007ACF8091D9019091DA01892B09F073CFB3
:101E10008091E800877F8093E8008091E80080FF50
:101E2000FCCF80910E018093F1008091E8008E77C5
:101E3000DACF8091D501813209F05DCF8091E80041
:101E4000877F8093E80067DC8091D80180930C0144
:101E500052CF8091D501813A09F04DCF8091E800B1
:101E6000877F8093E8008091E80080FFFCCF80911D
:101E70000C01D9CF803889F0823841F58091D901A1
:101E80008F70873018F58093E9008091EB0085FB17
:101E9000882780F91092E90006C080912902880FF6
:101EA0009091D201892B9091E800977F9093E80060
:101EB0008093F1001092F1008091E8008E7723C0AA
:101EC000811116C08091D701813009F18091E8001D
:101ED00083FF0AC08091E800877F8093E8008091AB
:101EE000EB0080628093EB00AA96E3E00C948630CE
:101EF000823061F78091D701811579F01092E90065
:101F00008091E800877F8093E80005DCDFCF933085
:101F100009F080E080932902F1CF8091D9018F7080
:101F2000282F2150263090F68093E9002091EB0075
:101F300020FFE4CF933031F48091EB0080628093F6
:101F4000EB00DCCF9091EB0090619093EB0021E0EF
:101F500001C0220F8A95EAF72093EA001092EA0066
:101F60008091EB008860EBCF8111B0CF8091D701D9
:101F70008F77182F8091E3008078812B8093E30086
:101F80008091E800877F8093E800C5DB8091E800BE
:101F900080FFFCCF8091E30080688093E30083E0C2
:101FA000111101C082E08093480290CF80588230A6
:101FB00008F08CCF8091D7019091D8018C3D23E01F
:101FC000920789F583E08A838AE289834FB7F89480
:101FD000DE01139620E03EE051E2E32FF0E0509363
:101FE0005700849120FF03C082958F703F5F8F70F0
:101FF0008A30B8F0895C8D931D922F5F243169F788
:102000004FBF8091E800877F8093E8006AE270E02C
:10201000CE010196F6DA8091E8008B778093E80094
:1020200055CF805DE8CF292F30E02330310509F40A
:102030004EC078F52130310509F486C08BE590E07B
:10204000E8ECF1E02230310509F040CF2091E800C2
:10205000277F2093E8002091DB013091DC0182177B
:10206000930708F49C0140E02115310509F071C087
:1020700041116FC08091E80082FDCDCF8091480270
:10208000811549F2853039F28091E80083FFF2CF63
:10209000C2CF8091D9019091DA012132310509F442
:1020A00044C02232310509F011CF8330910508F088
:1020B0000DCFFC01EE0FFF1FE25EFE4F0190F0819D
:1020C000E02D855E9E4FDC018C9190E010C0282FA2
:1020D00030E0823011F12330310568F4232BA9F46C
:1020E000E9E7F2E0E4918E2F90E0E9E7F2E0009773
:1020F00009F4ECCEABCF09F0E9CEE5E3F2E0E491F0
:102100008E2F90E0E5E3F2E0F2CFE7E6F2E0E49133
:102110008E2F90E0E7E6F2E0EACFE3E5F2E0E4912B
:102120008E2F90E0E3E5F2E0E2CF8330910508F0F6
:10213000CDCE880F991FFC01EC5DFE4F0190F08120
:10214000E02D89E090E082CF82E190E0E3E2F2E0EE
:102150007DCF80914802811509F45DCF853009F467
:102160005ACF8091E80083FD56CF8091E80082FD30
:1021700081CF8091E80080FF77CF4091F30080917C
:10218000F200942F2115310519F08830910550F097
:1021900041E0089709F040E08091E8008E77809355
:1021A000E80062CF44914093F1003196215031090B
:1021B0000196E8CF803809F089CE8091E800877FCA
:1021C0008093E8008091D3018093F10075CE811156
:1021D0007DCE8091D701182F823008F077CE809184
:1021E000E800877F8093E8001093D30194DA1115FB
:1021F000D9F084E08093480242E061EC81E05BDA50
:1022000042E261EC84E057DA42E261EC82E053DAC8
:1022100042E260EC83E04FDA80914802843051F46E
:1022200082E080930F0152CE8091E30087FDE1CFE1
:1022300081E0E0CF81E0F5CF1F93CF93DF93182F9C
:10224000A0919603B0919703109709F446C010929D
:1022500098031092990310927603109275031696C4
:10226000CD91DD9118979E0131503F3100F4D1E0BE
:10227000C11101C0D0E01996ED91FD911B973097E7
:1022800031F01B966D917D9180E00995D823D11591
:1022900039F08C2F8450813A20F58C2F0E942F0921
:1022A0001115A1F0E0919603F0919703808584FDCC
:1022B0000DC080919503811549F0808191819C0129
:1022C000215031092F333E4708F44BD981DB10925E
:1022D00096031092970310929503DF91CF911F916F
:1022E000089576DB8C2F4EDCDBCFCF93DF93EC01B0
:1022F0004A855B856E857F850E9499089B819095B4
:102300008091FA0389238093FA038C810E942D0522
:102310005FDB86E019928A95E9F7DF91CF91089506
:10232000CF93DF93EC018D8181FD13C082608D839B
:102330008091FA039B81892B8093FA038C810E9400
:10234000270546DB488559856E857F85CE010E942D
:1023500099081092F0031092F1038D8180FD02C064
:10236000CE01C3DFDF91CF910895AAE0B0E0EBEB9F
:10237000F1E10C946230FE013196DF018AE01D929A
:102380008A95E9F78AE2C82E81E0D82E7F0104E31E
:1023900011E0AE2E9F2CF60181916F018F3F09F461
:1023A0003EC0F894E82FE295EF70F0E021A18F7025
:1023B00041E001C0440F8A95EAF7922F942B91A334
:1023C00092A1842F8095892382A3789400C0E4E3AE
:1023D000F1E031E0B12C21912F3F79F0A22FA295AD
:1023E000AF70A05EB0E08C9190E02F7002C0959528
:1023F00087952A95E2F780FF39C080E0B82A330F2D
:1024000081E0EB33F80739F7F60182918F3F11F045
:102410000E94200780EA8A95F1F7F701B0828FEFDA
:10242000E81AF80A0C151D0509F0B5CF4AE050E08E
:102430006A2D792D86E592E00E94AF30892BC1F09C
:102440008AE0EA2DF92DA6E5B2E001900D928A9579
:10245000E1F781E080934B020E945A098093490280
:1024600090934A022A96EBE00C947E30832FC6CFDD
:1024700080914B028115B1F30091490210914A02FB
:102480000E945A09801B910B059760F34AE050E0C7
:1024900066E572E08CE492E00E94AF30892B49F04F
:1024A0008AE0E6E5F2E0ACE4B2E001900D928A95B4
:1024B000E1F710924B02D6CF0F931F93CF93DF9388
:1024C000853008F56A30F8F44730E8F4C42FD0E0DE
:1024D000CC0FDD1F9EE0699FC00DD11D11249CE82B
:1024E000899FC00DD11D1124CE0189960E94D33041
:1024F000082FCE018A960E94D330902FDF91CF9182
:102500001F910F91089580E090E0F8CF462F209121
:10251000620230916302232B89F4703F39F4603FEB
:1025200069F4809160029091610208957A3030F4EC
:10253000673020F4853010F4672FBECF80E090E044
:102540000895CF92DF92FF920F931F93CF93DF9363
:102550006C0100919B0480919A04082BC4E0D0E0A8
:1025600010E0C8010C2E02C0959587950A94E2F7F9
:1025700080FD0CC02197A8F7F12C8F2DDF91CF9112
:102580001F910F91FF90DF90CF900895FC2EB60120
:102590008C2FBCDF0E943206019761F3EECF0F93C0
:1025A0001F93CF93FC01278130852115310591F4CC
:1025B000858100811181811591F0611581F0C8013B
:1025C000C0DFC82F682FC8010E945D04B8018C2F9E
:1025D0009DDF9C01C901CF911F910F910895C80102
:1025E0000E949304C82FF2CFCF93DF93EC01A9DFB1
:1025F000BE018CDF0E943206DF91CF910895FC016D
:102600008481811509F1878190850097A1F00E944E
:102610003206282F92959F709630B9F080F4925F21
:102620009F70923030F4203FD1F058F481E0283E82
:1026300058F080E0089580819181D6DFEACF9A5FDB
:10264000EFCF81E0243FA9F7089591E0813F09F0A1
:1026500090E081E0283E08F080E0892B089581E039
:102660000895633771058105910528F4CB018357DF
:102670009C4F0C94D33080E0089585E290E00E9456
:10268000D3308F3569F486E290E00E94D330853DE7
:1026900039F487E290E00E94D33091E0813909F06B
:1026A00090E0892F81700895AAE0B0E0EAE5F3E1B7
:1026B0000C946030C0904602D090470281E0809335
:1026C000460210924702812C912CE12C5401F12CEE
:1026D00014C0F80125913591472D6F2D8E2D52D9BB
:1026E0000E5F1F4F7394872D873099F787E0A80EF0
:1026F000B11CF3948F2D8A3039F08501000F111F22
:10270000035D1C4F712CE5CFE39486E4880E911C89
:102710008E2D8530D9F619821A821B821C821D8269
:102720001E821F82188688EC89871A8695EEE92E0C
:1027300092E0F92E8E010F5F1F4F4AE050E0B70183
:10274000C8010E940D318AE0E80EF11C87E1E8160D
:1027500083E0F80691F7F8018AE011928A95E9F78B
:102760004AE050E0B701C8010E940D318AE0E80E4E
:10277000F11C89E4E81683E0F80691F7F80189E096
:1027800011928A95E9F78FEF9FEF8D839E8387E003
:102790008A874AE050E069E473E0C8010E940D3185
:1027A0004AE050E063E573E0C8010E940D31F80192
:1027B00086E011928A95E9F78DE5E82E83E0F82E00
:1027C00046E050E0B701C8010E940D3186E0E80EF6
:1027D000F11C8DE8E81683E0F80691F7C0924602F6
:1027E000D09247022A96EDE00C947C30AAE0B0E04B
:1027F000ECEFF3E10C946530E1EFF1E082E311924C
:102800008A95E9F7E0E0F4E083E211928A95E9F72E
:1028100081EFC82E81E0D82E90E0E92E94E0F92EC9
:1028200007E113E0F701C082D1824AE050E0B8012D
:10283000CE0101960E94C33088E09E012F5F3F4F7A
:10284000F901D60101900D928A95E1F789859A8563
:10285000F701828393838AE0C80ED11C87E0E80EDB
:10286000F11C065F1F4F093483E01807D9F62A963A
:10287000E8E00C948130AAE0B0E0E1E4F4E10C94EB
:10288000673007E713E029E4E22E23E0F22E4AE066
:1028900050E0B701CE0101960E94C330F80138968E
:1028A00087E011928A95E9F789819A81F8018083FE
:1028B00091838F8182838D818383888584838985B9
:1028C00085838B819C81868397838A8587FD04C05D
:1028D00020EF31E02587368780FF03C091E0F801C3
:1028E000908781FF04C0F80190859260908782FFF5
:1028F00004C0F80190859460908783FF04C0F801BC
:1029000090859860908784FF04C0F801908590615D
:10291000908785FF04C0F801808580628087015F11
:102920001F4F83E5E81683E0F80621F42A96E6E0D7
:102930000C94833093E5E92E93E0F92EA8CFA6E01E
:10294000B0E0E5EAF4E10C94673001E113E08DE5D5
:10295000E82E83E0F82E46E050E0B701CE01019664
:102960000E94C330F80188E011928A95E9F7B80116
:102970006C5F7F4F89819A810E946907F80180838B
:102980009183B8016B5F7F4F8B819C810E946907A7
:10299000F801828393838D8186838E81878386E08D
:1029A000E80EF11C085F1F4F8DE8E81683E0F8067B
:1029B00091F62696E6E00C9483309B01853070F406
:1029C0009AE0899FB00111246B517D4F4AE050E09D
:1029D000C9010E94C33080E090E008958FEF9FEF1F
:1029E0000895AAE0B0E0E7EFF4E10C946B30392FE2
:1029F000375569F49E012F5F3F4FB901DEDF892B08
:102A000031F489859A852A96E2E00C94873088EC27
:102A100090E0F9CFA0E0B0E0E0E1F5E10C946630A1
:102A20007B01C42FD22FD02E8115A9F04093F4033F
:102A30000E945A098093ED019093EE0181E0C1FD5F
:102A400084E0C0FD880FC2FD829516D8CDB7DEB7F1
:102A5000E7E00C9482308091F403481337C0009172
:102A6000ED011091EE010E945A09801B910B8C011F
:102A7000C701B7DF0817190748F51D2F105ECD17DE
:102A8000A9F08C2F8770C1E09C2F01C0990F8A9507
:102A9000EAF7892FB9D8183048F48D2F877001C014
:102AA000CC0F8A95EAF78C2F0E943C0D60E070E015
:102AB0008D2D94D881E0D1FD84E0D0FD880FD2FD2A
:102AC0008295183008F0C2CF9FD8C0CF81E0C1FDF9
:102AD00084E0C0FD880FC2FD8295F6CFA0E1B0E092
:102AE000E4E7F5E10C945D30FE013196DF0180E111
:102AF0001D928A95E9F708E010E09DE8A92E93E081
:102B0000B92E612C712C23014A189E2E8F2E620142
:102B1000730181E148165104610471041CF080E1E5
:102B2000C82ED12CA601B501892D982D0E94E03028
:102B3000AC0CBD1C0D2C000C00084C185D08600886
:102B400070080150104019F76096E0E10C9479305C
:102B50006FEF85E290E00E94EF306FEF86E290E049
:102B60000E94EF306FEF87E290E00E94EF3060E06C
:102B700088E290E00E94EF3097DDB0DF6FE585E2FC
:102B800090E00E94EF3065ED86E290E00E94EF3029
:102B900061E987E290E00C94EF30A0E0B0E0E3ED73
:102BA000F5E10C946430EC019881913010F109F05A
:102BB00046C08981813051F48A81239660E570E0B6
:102BC000893311F060E070E009D8EECF823029F44B
:102BD0008A8123960E944B0DE7CF833029F48A81A6
:102BE00023960E94C20DE0CF843041F022968111DD
:102BF000DBCFCDB7DEB7E9E00C9480308A81239635
:102C000020E030E09AE0482F4053550B4A30510500
:102C100060F02115310559F3EFE9FFE03197F1F745
:102C200000C0000021503109F4CF929FB001939F62
:102C3000700D11249A01260F371F8991E4CF219638
:102C4000E92FF0E0E355FD4F8491B82E292F26950A
:102C50002695269530E0F901E356FD4FE4909770F4
:102C6000F12C092E02C0F594E7940A94E2F7F901D9
:102C7000E357FD4FC490D12C092E02C0D594C794C0
:102C80000A94E2F723583D4FF901049110E002C085
:102C9000159507959A95E2F7E0FE03C081EE0E9434
:102CA0004B0DC0FE03C086EE0E944B0D60E070E04D
:102CB0008B2D0E94EE0DC0FE03C086EE0E94C20D59
:102CC000E0FE03C081EE0E94C20D00FF6DCF60E008
:102CD00070E08CE279CFA9E0B0E0E1E7F6E10C9496
:102CE0005B307C01FC018481811509F436C161E00F
:102CF000C70155DC8C01F7018581811519F180919F
:102D0000F0039091F1030097E9F008171907D1F04B
:102D1000E82FF0E0853008F047C0E295F295F07FAB
:102D2000FE27E07FFE27E056FC4F85818460858387
:102D300000831183CF01F4DA1092FA0361E0C70136
:102D40002EDC8C0180916603811134C0F7018581EE
:102D5000811509F4B9C0103508F0A1C0103208F08F
:102D600000C1011587E0180729F100F5C801805E50
:102D700091090897F8F08091FA039091F803892B54
:102D80009091F703892B99E0F701A2E5B3E0019058
:102D90000D929A95E1F70093590310935A031092FC
:102DA0005C038093510306C0E0E0BFCF01158FE0C4
:102DB000180709F7F70185818111BBC1173508F4A0
:102DC000B1C2183510F00C94C120680189EAD80E00
:102DD00067E673E08C2DF1DD892B39F5C60182950C
:102DE0009295907F9827807F9827FC01E056FC4FB2
:102DF0002281213009F067C2209167033091680376
:102E0000232B99F02091690330916A03232B69F0F9
:102E100020916B0330916C0340916D0350916E03D0
:102E2000242B352B232B09F458C280917103811573
:102E300009F4F7C2D090F803C090F7030E945A0932
:102E400088579C4E8093720390937303F70185819A
:102E5000811509F4E6C28C2D8D298D7909F013C3F3
:102E6000103508F0B0C2103408F014C3063E110546
:102E700009F4D7C2C8019052903208F010C386817D
:102E8000803108F4F8C2802F90E01092FA038D325E
:102E9000910509F0B1C282E08093FA0304C3003EB9
:102EA00092E5190750F4003682E5180708F082CF42
:102EB000C8019255803491055DCF980127573C4752
:102EC0002530310508F057CF09379CE7190709F07D
:102ED0004BC02091590330915A03232B79F181156E
:102EE000A1F081E00E947308809151030E94420D7D
:102EF00089E0E2E5F3E0A8E0B3E001900D928A9565
:102F0000E1F780915C038093070386E0F701A8E076
:102F1000B3E001900D928A95E1F7809107038093C9
:102F2000660388E093E0D7DE10926603F70185819F
:102F3000811104C0809151030E940A0E8091FB030D
:102F4000877059F0F7018581811539F080919D04D2
:102F500082FF03C082E00E940D052996E2E10C94F5
:102F600077308681803106CF0A379CE7190709F050
:102F700021CF811509F4B2C0C0905903D0905A03F3
:102F8000109151031983CE010196BC01C6010E9424
:102F900069072C0189818E83A1E16A2EA3E07A2E34
:102FA000B1E0AB2EB12C8FEF8D83F301078103FFCE
:102FB0004DC0208031808280938042145304A9F454
:102FC00084818887202F4681682F8E810E947E070A
:102FD000811559F088850E942E049D8198172CF444
:102FE000F30125815401B22A8D8348145904C1F498
:102FF00001FF16C0F30185818887202F4681682F45
:103000008E810E947E07811559F088850E942E04CA
:103010009D8198172CF4F30124815101B22A8D83EC
:1030200000FF14C08D818F3F89F481E0A816B104A0
:1030300069F4202FF301468160E08E810E947E07B3
:10304000811521F0F30185815401B82A88E0680ECA
:10305000711C81E593E08615970509F0A6CF81E004
:10306000A816B10489F5812F82958F70812B8F70FE
:1030700091E0103108F490E090FD8061082F80E22B
:10308000D816E0F4D1104EC09C2C802F8D704C2DA2
:10309000811509F44AC06AE08BEC97E00E9484082D
:1030A000A82E811109C0492D6EE185EA97E00E94A2
:1030B0008408A82E811531F0B02E06C0C6019052AA
:1030C000903388F1A12CB12CEDE5F3E087E011926B
:1030D0008A95E9F7A0926403B09265038091640336
:1030E00090916503892B09F429CFF701858181151A
:1030F00039F08FEF0E94730880915C0380935B032B
:1031000086E0F701ADE5B3E001900D928A95E1F715
:1031100080915B03809366038DE593E0DCDD109284
:1031200066030CCF0D29D12CAFCF68E083EC97E07C
:10313000B5CFC80197578038910508F0D8C0003145
:1031400008F0FCCE62E770E080E090E08ADA81115E
:10315000F5CEA12CB12C4501011138C08E010F5FB5
:103160001F4FF80184E011928A95E9F7B401C50177
:1031700078DA8983811509F4E1CE240135019FEFC6
:10318000491A590A690A790A8130E9F4B201C3017E
:1031900068DAD82E8A83811509F4D0CEB401C5012E
:1031A0006E5F7F4F8F4F9F4F2D2D2150233030F575
:1031B00023E0820E911CA11CB11C2401350151DABF
:1031C0008B838115C1F0C801E8DC15C083E7881640
:1031D0009104A104B10409F4B1CEB401C50141DAEE
:1031E0009FEF891A990AA90AB90A8111EFCF0150F4
:1031F000B3CF2B013C0142015301B3CF2D2D2550FC
:10320000233078F52401350123E0420E511C611C66
:10321000711C27DA8B83811571F384E0880E911C71
:10322000A11CB11CB201C3011CDA8C83811103C043
:1032300024013501E0CF8B819C8181302FEF9207F3
:1032400010F0982F80E02D2D263029F0273031F016
:103250000E94D026EDCF0E948126EACF0E94A026B0
:10326000E7CF2D2D243029F6FCD9D82E811509F46D
:1032700065CEB401C5016D5F7F4F8F4F9F4FF1D970
:10328000811509F45BCE94E0890E911CA11CB11C40
:1032900024013501282F2150330B4FEF429FC001ED
:1032A000439F900D11242D2D2150330B820F931F1E
:1032B000009709F4A0CF0197EFE9FFE03197F1F70C
:1032C00000C00000F5CF223009F0AFCD20916B0394
:1032D00030916C03232B09F4A8CDFC01EB55FC4F76
:1032E00020812E7F208380569C4F1AD89ECD033795
:1032F0008CE71807B9F480917103811519F00E94C9
:10330000140E1CCE1092F8030E9435050E945A0933
:1033100088579C4E809372039093730381E080934F
:1033200071030CCE023A82E51807A1F150F4C801EE
:103330009052903210F1013E110561F1053E1105E8
:1033400003C0023B82E5180709F06FCD25EE30E09F
:10335000277081E001C0880F2A95EAF7482F209155
:103360007403309171033115E9F0F701358131159E
:10337000A1F0282B20937403E1CDF70186818031E1
:1033800008F053CD812F8F7190E08230910511F0BC
:103390004297DACF21EE30E0DBCF80958223809315
:1033A0007403CCCD322F342309F43FCD982F909560
:1033B0009223909374030E942D05F7018581811556
:1033C00009F4BCCD32CD003E82E5180708F046C0B6
:1033D000003C82E5180728F5003A82E51807E8F472
:1033E000003682E51807E8F4C8019255803491054B
:1033F000C0F01092FA03C8018E32910508F060C047
:103400008832910508F04DC08E31910508F04BC00F
:1034100004974A9708F43FCD36C0043B82E518076D
:1034200041F7F7013580311409F454C00E358CE7AB
:10343000180709F44BC00F358CE7180749F00D3514
:103440008CE7180709F046C0809110018115F1F151
:103450001092100180E00E941C1170CD09378CE79A
:10346000180728F407378CE71807D8F6C2CF0B37B0
:103470008CE71807D5CF812F8F71843191F2863177
:1034800011F41092FA030E94140E809174030E94AA
:103490002705C7CF8681803108F0F5CCC2CFC8019F
:1034A000F4CC8A9781F780917403811531F0809173
:1034B000FA0392E089278093FA030E94E80CB1CFC7
:1034C0008C34910581F38D329240ECCF81E0809372
:1034D000100134CD80911001811163C0912F975557
:1034E00009F0F8C0E02FF0E0053008F027CDE295B4
:1034F000F295F07FFE27E07FFE27CF0180569C4F9C
:103500006C01D70115968C91EB55FC4F908180FB97
:1035100090F99083811509F4DBC10E945A098093C8
:10352000F2039093F303F60182818F5F828380918F
:10353000FA039091F803892B83838091F7038483A6
:103540004681578166857785C6010E949908F601F4
:10355000858181FDBAC1902F812F9093F0038093D4
:10356000F103F7019581911509F40FC61092F40348
:10357000980130572332310508F015C684E090E0F9
:103580000E94DB3080939C0490939D04F801E150ED
:10359000F047E232F10508F0E2C1ED5BFE4C0C941D
:1035A0003F30480180EE881A91089091F90380918C
:1035B000F803982B8091F703982B9D8388E0881659
:1035C000910408F05AC09801277081E001C0880F6B
:1035D0002A95EAF7311409F44BC02D81282B2D834D
:1035E000F701808191810E94930421E030E002C0C4
:1035F000220F331F8A95E2F729018091960390915B
:1036000097038E839F8380919E0390919F03888769
:10361000998767E7C62E63E0D62EA12CB12C8D8149
:10362000811104C0F6018281811117C0F6018381E6
:1036300090E08421892B89F08085982F977009F478
:1036400087E098E08916910408F068C0311409F405
:1036500061C086958170811166C0C50101962FE019
:10366000C20ED11CAA24A394B12C0297C1F61EC08D
:1036700080959D8198239D83B3CF311038C0809170
:103680009E0390919F030817190781F410929E03DF
:1036900010929F0310929A0310929B0310929C0326
:1036A00010929D03109298031092990380919603B3
:1036B00090919703009709F411CF28E082169104A6
:1036C00008F0EDC06D810E94DB07811103C081E02D
:1036D0000E941C11F7018581F801E851FC47E73091
:1036E000F10508F03ECFEB59FE4C0C943F300093AF
:1036F0009E0310939F030E94A50A60939A03709300
:103700009B0380939C0390939D03109298031092C7
:10371000990366CF82FB882780F99DCF311409F485
:103720009CCF80FF9ACFF601608071800615170547
:1037300019F4311409F491CF8E819F818C159D0568
:1037400009F48BCFF6010584F685E02D309721F042
:103750008081811509F481CF6D81C6010E94DB074C
:10376000811509F47ACF81E00615170509F080E08C
:103770008321282E6114710441F0811106C08885CF
:1037800099856816790609F068CF80E00E941C11BF
:10379000C0929603D092970381E0809395038FE0C7
:1037A0008A9DF0018B9DF00D1124E958FC4F858115
:1037B0008093760321100EC06114710459F080814A
:1037C00091819C0124503109213A310508F04AC009
:1037D0000E942F098FE08A9DF0018B9DF00D11242E
:1037E000E958FC4FC680D780C60191509F3110F434
:1037F00080EED82277247394C60101978F339E47B9
:1038000008F0712C8FE08A9DD0018B9DB00D1124A2
:10381000A958BC4F1996ED91FD911B97309741F037
:103820001B966D917D9181E00995972D9823792EB6
:103830007114A9F08FE08A9DF0018B9DF00D112489
:10384000E958FC4F868197810E9409048093750393
:1038500088E08816910448F4C6010E94B10A0E94CB
:10386000E80C0BC00E94C20DB5CFC6010497813A87
:10387000910548F48C2D0E94FB08211409F42ECEEA
:103880000E94E80C5BCB0E94E80C8FE39CE9019757
:10389000F1F700C000008C2D0E944B0DEECFFC0113
:1038A000208131810217130741F4311009C01092B1
:1038B000950380E00E941C1111CE311409F40ECE44
:1038C000FC01808585FD0ACEF4CF80E090E045CEF6
:1038D000F6014485558566857785C6010E9499085D
:1038E000F601858181FF3DCEC6010E947511809150
:1038F000F0039091F1030817190709F032CE1092E6
:10390000F0031092F1032DCE06E221EE41EE6AE1C2
:103910007CE780D813CB07E225EE45EE6BE17CE730
:10392000F8CF06E221EE40EE68E17CE7F2CF07E255
:1039300025EE44EE69E17CE7ECCF06E221EE42EEB3
:103940006CE17CE7E6CF07E225EE46EE6DE17CE731
:10395000E0CF08E221E045EE6EE17CE7DACF80912E
:103960009C04816080939C0460919C0470919D04F0
:1039700084E090E00E9409310E941D0EDFCA809110
:103980009D04886080939D04EFCF80919C048260A9
:10399000E9CF80919C048460E5CF80919C0488608D
:1039A000E1CF80919D048160EDCF80919D04826084
:1039B000E9CF80919C048061D5CF80919C04806286
:1039C000D1CF80919C048064CDCF0E941D0E809148
:1039D0009C048068C7CF80919C048C60C3CF809189
:1039E0009D048360CFCF80919C048E7FBBCF80915C
:1039F0009D04877FC7CF80919C048D7FB3CF80913A
:103A00009C048B7FAFCF80919C04877FABCF80914C
:103A10009D048E7FB7CF80919D048D7FB3CF809121
:103A20009C048F7E9FCF80919C048F7D9BCF809143
:103A30009C048F7B97CF0E941D0E80919C048F77F2
:103A400091CF80919C04837F8DCF80919D048C7F4A
:103A500099CF90919C04892F8B7F92FF8460877F00
:103A600092FF88607FCF80919D04982F909590FB66
:103A700080F990FB81F986CF90919C04892F8F7BF0
:103A800096FF80646FCF0E941D0E90919C04892F39
:103A900097FB87F9805866CF61E08EE090E00E9446
:103AA000EF3062CF60E0F9CF90919C04892F8F7E38
:103AB00094FF806157CF90919C04892F8E7F90FF57
:103AC000816050CF90919D04892F877F93FF8860FC
:103AD00059CF89E27AC389E263C307378CE71807B5
:103AE000F1F008378CE7180729F19801205E32457C
:103AF0002032310520F5911122C00F7181E090E054
:103B000002C0880F991F0A95E2F78C01682F83E0A5
:103B100090E00E94EF30802F0E9443040FCA81E0A2
:103B2000911551F00E94490443E062E081E00E9457
:103B3000C60404CA82E0F4CF0E945204F5CF40913B
:103B4000F60380919B04282F20953FEF70E02423FB
:103B500037232115310519F048234093F6030B371D
:103B60002CE7120741F4911509F4E8C90E943104C9
:103B70000E94FB07E3C9003482E5180708F04DC036
:103B8000003282E5180708F04FC0103548F51034B0
:103B900008F05DC0911509F471C00A358CE718076B
:103BA00009F4C7C008F0ABC001308CE7180709F46E
:103BB000BEC003308CE7180709F4B3C001158CE7C9
:103BC000180709F05BC00E941D0E8FEF94E32CE0F4
:103BD000815090402040E1F700C000000E94F00AB0
:103BE000980130553230B0F6980145E0369527956A
:103BF0004A95E1F7822F8F702091F60330E041E083
:103C0000082E01C0440F0A94EAF72423232B11F253
:103C10009111AECF1092F80333CE9801205C32455B
:103C20002032310508F0B6CF802F8F712091F60336
:103C300030E041E0082E01C0440F0A94EAF7242343
:103C4000232B09F4A7CF911509F478C991CFF70177
:103C50008681803108F09ECF911110C0212F2F70E6
:103C600081E090E002C0880F991F2A95E2F7209129
:103C7000F60382239323892B09F060C9F70187811A
:103C80009085009709F459C00E943206182FA92E7A
:103C9000F701C580B680B2948FE0B8228091FB0313
:103CA000877001F1DC2CC114F1F0892F807F803402
:103CB00061F0812F805E8830A8F0892F807E80326D
:103CC00021F4123078F0B11469F080919D0482FFE4
:103CD00009C082E00E940D058091FB038770DD24FE
:103CE000D3948111D12CEA2DE295EF708A2D803C7E
:103CF00008F090C0F0E0E459FE4C0C943F300B35D6
:103D00008CE71807C1F00C358CE7180709F0B6CF1F
:103D100080919D04002482FF0394802D0E94AC0CAE
:103D2000ADCF6FEF7FEF80E090E00E9409310E94FD
:103D3000470E81E0F3CF80E0F1CF858100811181D2
:103D4000811569F0C8010E94A112D82E682FC80100
:103D50000E945D04B8018D2D0E94861295CFC80186
:103D60000E949304D82EF6CF0A2D0F70803110F0E8
:103D70000295007FC114A9F0011559F0812F805ED2
:103D8000883010F0111107C0802F0E9427050E9473
:103D9000E80C812F3DC08091FA03802B8093FA03B9
:103DA000F6CF812F0E94C20D0115A1F1812F805EF7
:103DB000883010F0111104C0802F0E942D0506C01C
:103DC00000958091FA0380238093FA030E94E80C07
:103DD00021C00A2D0F70807F803211F00295007F84
:103DE000113040F009F481C0C11409F48CC0B11441
:103DF000A1F1CFCF80919D0482FD2BC0C11419F198
:103E0000011529F0802F0E9427050E94E80C80E010
:103E10000E944B0DD11409F4D5C08091FB0380FDA5
:103E2000D1C0F70115828695869586950E94490432
:103E3000C7010E946B168091FB0386958695869537
:103E40000E945204BFC080E00E94C20D011511F310
:103E5000B3CFC11469F1B11004C0802F0E943C0D92
:103E6000D9CF8B2D813089F48091F703182F8023CF
:103E7000081781F20E945A098093FE039093FF0372
:103E8000812F802B8093F703C5CF853019F6802FC3
:103E90000E943C0D802F0E94B5098091F903902F5C
:103EA0009823091709F4B6CF802B8093F903B2CF7A
:103EB000B11011C0802F0E94040E802F0E94B509FE
:103EC0008091F903902F982309F4A4CF009508233B
:103ED0000093F9039FCF8B2D813009F09BCF809108
:103EE000F803802309F496CFE5CF8B2DC11421F080
:103EF000863008F08FCFB1CF853008F08BCF802F80
:103F00000E94040E87CFB114D1F3193349F48FEF17
:103F100097EE23E0815090402040E1F700C0000080
:103F2000812F0E94C20D76CF869586958370813051
:103F300060F009F06FCF812F9A2D9370C11002C0ED
:103F400080E090E00E94D40865CF812F9A2D937075
:103F5000C11002C080E090E00E94AD085BCF6C2DE4
:103F6000812F0E94EE0956CF8370E9F5C11028C059
:103F7000812F829586958770880F880F412F4F700B
:103F8000082E01C0440F0A94EAF7212F207114FF74
:103F900006C02FE001C0220F8A95EAF720958A2DEE
:103FA000869586958370982F8230A9F08330C1F072
:103FB00080919A04913061F0242B82230E94430463
:103FC0000E949E0860E0C7010E94CF120C94AD17BA
:103FD000842B822BF3CF242B80919A048227EECF5F
:103FE000822F842BEBCFC11459F1A0FEE9CF812F92
:103FF000829586958770880F880F412F4F70082E05
:1040000001C0440F0A94EAF7212F207114FF06C063
:104010002FE001C0220F8A95EAF720958A2D869518
:1040200086958370982F823089F08330A1F080913B
:104030009B04913041F0242B82230E944604C0CF80
:104040008230A8F6BDCF842B822BF7CF242B809112
:104050009B048227F2CF822F842BEFCF8F70082F03
:10406000C11431F00E944904812F0E943C0DA8CF59
:10407000812F0E94040E802F0E945204A1CF123F74
:1040800081F170F4103FC9F0113F91F0C11409F4AF
:1040900067C0B11409F461C0812F0E944B0D90CF0D
:1040A000133F29F1143F91F780919D0482FD2CC0AC
:1040B0008A2D8F71C11401F317C08B2DC11479F0B3
:1040C000853008F07DCF8A2D8F71282F81E001C0C7
:1040D000880F2A95EAF790919B048927AECF863006
:1040E000F0CF8F71C110C8CF0E94490469CF80E022
:1040F000C11409F4A2CF8A2D8F71982F81E001C0DD
:10410000880F9A95EAF799CFC114C1F08091FB030B
:104110008770843049F41092FB031092FC031092D4
:10412000FD038A2D8F71A8CF8B2D63E0853008F0B9
:1041300047CF8A2D8F710E94A20942CF8B2D8530E7
:1041400040F01092FB031092FC031092FD0364E018
:10415000F0CF81E00E940D0533CF8A2D8F71C4CF3F
:10416000B114F9F2193349F48FEF97EE23E081503F
:1041700090402040E1F700C00000812F0E94C20D56
:104180001FCF03378CE718071BC906318CE71807C8
:1041900009F0A3CC8091F503811509F49CCC85E34B
:1041A0000E942F096DCB06318CE7180709F095CCDA
:1041B0008091F8038A7A91E0811101C090E0909398
:1041C000F503811509F485CC85E30E94FB0858CBE3
:1041D000EF92FF920F931F93CF93DF938091E002B2
:1041E000803108F047C08091DF02811509F442C098
:1041F00080919102909190029817E1F17C0199E0F1
:10420000899FE0011124FE01EE56FD4F8481811546
:10421000B1F191818091DB02981331C0908180913E
:10422000DA0298132CC08581811129C00281138183
:104230008091DC029091DD02081B190B60E08AED91
:1042400092E00E94CF120E94F11408171907B8F4E7
:104250008091E0028F7080618093E002C856DD4F4C
:1042600088818F70806188838AED92E00E946B164E
:104270000E940305CDB7DEB7E6E00C948330C7019A
:1042800083958770B7CFAFE0B0E0E9E4F1E20C943A
:104290005E308C0186E0F801DE011A9601900D92E5
:1042A0008A95E1F7F801F580E4808AED882E82E0B6
:1042B000982E8091DE02811117C0E11491F0F11463
:1042C00009F4C5C0C8010E94FF12811509F4BFC0DE
:1042D00089E0F801AAEDB2E001900D928A95E1F72C
:1042E00077DFFF24F3946BC0A280B380D090DF020D
:1042F0008091DC029091DD023501681A790AD114AF
:1043000009F400C18081582E8181C82E60E08AEDB9
:1043100092E00E94CF120E94F1146816790608F00C
:104320009AC0E114F1F28091DB02F8019181E090F2
:10433000E0022E2D203108F063C098131FC0909129
:10434000DA02808198131AC02091E1023091E202D2
:10435000878190852817390789F4F1104BC08E2D7D
:104360008F7080618093E0028AED92E00E946B166C
:104370008091E002F8018683F12C21C0F1103AC04F
:1043800040E06C2D852D0E94E40440E06C2D852DCD
:104390000E94E404F82E8111EFCF8A859B850E944C
:1043A000F412292F22952F70903470F49F702230D0
:1043B000A0F09115B1F0F8019681903190F48F2D15
:1043C0002F96EFE00C947A302A5F2F70223068F03D
:1043D000C8010E946B16FD2CF2CF911511F08115CA
:1043E00071F3805E883058F3F3CF803F40F3815FF4
:1043F0008330F9CF8091E00281608093E002BCCFEE
:1044000098131DC09091DA028081981318C02091F2
:10441000E1023091E202878190852817390779F40B
:10442000F1100DC0E682C8010E946B1689E0F80108
:10443000AAEDB2E001900D928A95E1F752CFC80142
:104440000E94FF12811519F08E2DF1103EC0C80197
:104450000E946B1646CFD090E0028D2D803150F433
:104460008AED92E00E946B16F40189E011928A9520
:10447000E9F782CFE11409F434CF9091DB02F8011F
:10448000818198131AC09091DA028081981315C027
:104490002091E1023091E202878190852817390747
:1044A00061F4F1100AC0D682C8010E946B16F401B3
:1044B00089E011928A95E9F714CFC8010E94FF1292
:1044C000811529F2F11419F28D2D803208F400CFF4
:1044D0008091DA029091DB0289839A83AB82BC825D
:1044E0008091DE028D831E828091E0028F83809115
:1044F000E1029091E20288879987CE0101960E949D
:104500006B16E6CE60E08AED92E00E94CF120E9428
:10451000F1146816790608F0A7CFE11409F4E1CE8A
:10452000F11409F494CF9091DB02F8018181981382
:104530002DC09091DA028081981328C02091E10269
:104540003091E2028781908528173907F9F480912C
:10455000DC029091DD02A81AB90A88ECA816B10411
:1045600008F064CF9091E00290FD60CF903108F4A4
:104570005DCF892F9683907F903F09F454CF982F79
:10458000907F905F8F70892B86834DCFC8010E94EA
:10459000FF1281119DCE8091E00281608093E00244
:1045A00056CFA2E1B0E0E7EDF2E20C9469300A8761
:1045B0001B872C873D874E875F87688B798B8A8B1B
:1045C000CE010A9660DE81112EC0209190023091BA
:1045D000910289E0AE01465F5F4FFA0149505109EF
:1045E000DA0101900D928A95E1F78E858115D9F057
:1045F000822F90E08395877090E0AC013417150608
:10460000E1F099E0929FD0011124AE56BD4F9E017A
:104610002F5F3F4FF90101900D929A95E1F740937A
:1046200090020E940305809191029091900289135B
:1046300011C06296E4E00C9485300E941D0E109229
:10464000900210929102EAEDF2E089E011928A95CF
:10465000E9F7E9CF29E0829FC00111248E569D4FD2
:1046600012DE811531F380919102909192020196B0
:10467000877080939102D7CFEF92FF920F931F9391
:10468000CF93DF9380919704E091EF01CDE081110A
:1046900030C0CDB7DEB7E6E00C948330DE2FDF5FAD
:1046A000D093EF01EE2EF12CCE9FF0011124E15DAD
:1046B000FB4F84818115E1F087819085892B21F45E
:1046C00081859285019651F4008111812281338187
:1046D0004481558166817781808563DFCE9DF001BD
:1046E000CF9DF00D1124E15DFB4F14821092FA036F
:1046F000ED2F80919704E81788F21092970410929A
:10470000EF01C7CFA0E0B0E0E8E8F3E20C945D3041
:10471000C0912E0497E0992E01E010E080912D04C5
:104720008C1308C0A9DF0E949E07CDB7DEB7E0E179
:104730000C947930D0E0FE01EE0FFF1FED5DFB4FD2
:1047400080819181989ED001999EB00D1124A05036
:10475000BC4F2D01FD01248121115BC07090970495
:10476000EFE2F4E060E070E0812C671508F04FC0E4
:10477000A384B484D201CD90DD902FEF3FEF612C64
:10478000462D50E07601E60CF11CE60CF11CD70139
:10479000ED90FD90E114F10439F0AE14BF0409F07E
:1047A000A90163949A01ECCF2F3F3207B1F1D801F0
:1047B00001C0AA0F2A95EAF78A2A9801062C02C09E
:1047C000220F331F0A94E2F7A901415051098416C0
:1047D000150611F52DE0269FF001279FF00D1124FD
:1047E000E15DFB4F989ED001999EB00D1124A05021
:1047F000BC4F12962D913D912783308724E024836E
:10480000108211828187928721E011962C930E9459
:10481000AF07C395C37082CF14826F5F7F4F3D9601
:10482000A4CF1092980410929904109211018091D3
:104830002D0480932E040E949E071ECF2F923F923C
:104840005F926F927F928F929F92AF92BF92CF9220
:10485000DF92EF92FF920F931F93CF93DF93CDB729
:10486000DEB76C970FB6F894DEBF0FBECDBF4B8B93
:104870005C8B6D8B7E8B8F8B792E988F9111109224
:10488000FA03188A198A1A8A86E0FE017396DE01F5
:104890001A9601900D928A95E1F76F8880919D0498
:1048A00082FF1FC00E945A092091FC033091FD0332
:1048B000821B930B8838934138F08091FB0382FD73
:1048C00003C082E00E940D050E945A092091FE0358
:1048D0003091FF03821B930B8838934110F00E94A4
:1048E00035056114E1F06E867F8661E0CE010A969F
:1048F0000E94CF1261E0CE010A960E94CF1261E0C1
:10490000CE010A960E94CF125C0180E5A8168CE7C2
:10491000B80689F4711421F181E0809311016E864B
:104920007F860A851B852C853D85A3016889798949
:104930008A8937DEC5C081E5A8168CE7B80621F460
:10494000711471F06EDFEBCF82E5A8168CE7B80624
:1049500039F4711429F0809111018111F3CFDCCF6A
:1049600040E0E42E44E0F42E512C812C912CF701F0
:1049700060817181DD24DA94CD2C80E0282F30E035
:10498000FB01E80FF11DE80FF11D40815181411538
:10499000510539F0A416B50609F096018F5F69013B
:1049A000EDCF10E09FEFC916DC0409F445C0F70114
:1049B000448110911101411110E0F70135802681E9
:1049C000711409F413C1111509F410C1311013C089
:1049D00041E001C0440FCA94EAF7242B26832091BA
:1049E0002B0430912C042233310528F422E3209348
:1049F0002B0410922C0421E030E002C0220F331F60
:104A00008A95E2F7C9010197F7012681281719064F
:104A100099F4C0909804D0909904C114D10409F479
:104A200067C00E945A098C199D09C39708F460C099
:104A300081E0F701848311E0512A8FEF881A980AE8
:104A400087E0E80EF11C85E08816910409F08FCF0D
:104A5000711409F420C1511409F41DC10E945A09AE
:104A6000809398049093990480919704883040F53E
:104A7000982F9F5F9093970499E0FE013A969E01CC
:104A80002F5F3F4FD90101900D929A95E1F76D820A
:104A90007E822DE0829FC0011124815D9B4F29E021
:104AA000AE014F5F5F4FFA01DC0101900D922A9534
:104AB000E1F72FEF3FEFFC0121873287A386B48611
:104AC0006C960FB6F894DEBF0FBECDBFDF91CF91CD
:104AD0001F910F91FF90EF90DF90CF90BF90AF901C
:104AE0009F908F907F906F905F903F902F90089550
:104AF00020912E0480912D04422FE0E0F0E097E019
:104B000051E0281709F447C0222E312CF101EE0F95
:104B1000FF1FED5DFB4FA081B1819A9FF0019B9F2C
:104B2000F00D1124E050FC4F608171816B8F7C8F00
:104B3000D12C30E000E0EB8DFC8DE00FF11DE00F9B
:104B4000F11D6081718161157105E9F0F701019036
:104B5000F081E02DE98FFA8F30E008C0CC24C394B7
:104B60006E177F0709F0C12CDC283F5FE98DFA8DB5
:104B7000E30FF11DE30FF11D0190F081E02D30975F
:104B800069F70F5FD8CFD11471F13017B8F491E005
:104B9000F7019483F70140932E04EE15FF0509F405
:104BA0004BCF90E0FC01EE0FFF1FED5DFB4F8082CD
:104BB00091820196837080932D043ECF9A9FF001DD
:104BC0009B9FF00D1124E050FC4F5483EE15FF0520
:104BD00009F3241304C09A012395422F43709101D5
:104BE000239523708ECFE0E0F0E0F9CF31101FC0A5
:104BF00061E070E002C0660F771F8A95E2F7CB0193
:104C000001978217930769F010E081E001C0880FD7
:104C1000CA94EAF7C82EC094F70186818C21868356
:104C20000BCF411591F3C4010E94AF07EDCFA9014D
:104C30000C2C02C0559547950A94E2F7C9010197DB
:104C400082239323892B21F540FF22C0F701828123
:104C50009381892BC9F0FE01319687E011928A95E4
:104C6000E9F70E945A099C018B839C8384E08D8321
:104C7000F70192818381792F9887898709811A8129
:104C800044E05E816F818DDCF7011582132DBDCF6D
:104C9000142F1170BACF90912E0480912D04981783
:104CA00031F030DD852D813009F40ACF38CEE4DCD7
:104CB00010929804109299040E949E07F3CFA6E0E8
:104CC000B0E0E5E6F6E20C9469300E945A098C01E6
:104CD00080916402909165028017910771F01982AA
:104CE0001A820E945A09BC0149815A8180E090E0F1
:104CF000A5DD00936402109365022696E4E00C940F
:104D00008530A6E0B0E0E7E8F6E20C946B308093E3
:104D1000600290936102903230F40E94AD0D2696AD
:104D2000E2E00C94873080EF89838A830E945A09DD
:104D30008160BC0149815A8181E091E07FDDEFCF44
:104D4000A6E0B0E0E6EAF6E20C9469308C018093CC
:104D50006002109361021032B0F4802F0E94C20DE5
:104D6000C801805E9109089728F06AE07EE001158D
:104D7000110511F464E07EE0C8010E942504269626
:104D8000E4E00C94853080EF89838A830E945A097D
:104D90008160BC0149815A8181E090E04FDDEFCF15
:104DA000CF93DF93EC01ADDFCE01CADFDF91CF916E
:104DB00008950F931F93CF93DF938C01862F67E69F
:104DC00073E00E94DD14892B91F4C0916703D091A8
:104DD0006803209761F0F8018281833039F4CE01B5
:104DE000DFDFCE01DDDFCE01DBDF01C0E0F7DF91E9
:104DF000CF911F910F9108950F931F93CF93DF933E
:104E00008C01C62F67E673E08C2F0E94DD14892B7E
:104E100009F058C0EC2FF0E0D80112968C9112974F
:104E2000ED5DFD4F8130A9F415968C9182FD4FC048
:104E300080FF4DC082E080838091690390916A0376
:104E40000097C1F480916703909168030097D1F1B6
:104E500011C08230A9F5D80115968C9182FD26C02B
:104E600080FD0AC083E0808380916B0390916C0386
:104E70000097F1F046DF26C084E0808380916D03C7
:104E800090916E030097B1F780916703909168034A
:104E9000009701F185DF8091690390916A03009783
:104EA00049F78091670390916803E4CF85E08083A0
:104EB0008091670390916803009721F071DFF1CF33
:104EC00086E08083DF91CF911F910F91089581E05B
:104ED0008083B8CF8091690390916A03B7CF0F9315
:104EE0001F93CF93DF938C01C62F67E673E08C2F5F
:104EF0000E94DD14892B71F4D0E0CD5DDD4F8881F7
:104F0000F801128218828330E9F048F4813059F0B8
:104F1000823081F0DF91CF911F910F9108958430FD
:104F2000B1F08530B9F780916703909168030097DD
:104F300089F306C08091690390916A03009799F301
:104F4000FFDEE8CF80916B0390916C03F7CF8091E7
:104F50006D0390916E03009799F72091670330914C
:104F600068038091690390916A0321153105F9F274
:104F7000009731F7C901E4CFCDB7DEB7AC970FB6D4
:104F8000F894DEBF0FBECDBF85B7806885BF85B7FB
:104F9000806885BF84B7877F84BF0FB6F894A895D3
:104FA00080916000886180936000109260000FBE65
:104FB00080E890E00FB6F8948093610090936100D0
:104FC0000FBE81E080930F018EE197E08093A801EE
:104FD0009093A9010E9451070E94F6130E943B146E
:104FE0000E949F140E942A0C0E94DB0B8091E20019
:104FF00084608093E200789480914802811599F052
:105000008091E9001091EC008F7010FB112717F9C7
:10501000182B1092E9008091E80083FD0E945C0E3D
:105020001F701093E90082E084BD93E095BD9AEF74
:1050300097BD80936E000E943D13811102C00E94B3
:10504000A8156AE2E62E61E0F62E04E311E0F7010E
:1050500081917F018F3F11F00E9420070E151F05DF
:10506000B1F704E311E0F80181918F018F3F11F056
:105070000E94200781E00B331807A9F7ECE4F2E067
:105080008AE011928A95E9F7E6E5F2E08AE011926A
:105090008A95E9F780E090E00E94DB30833E9E4FE6
:1050A00021F40E943D13811129C063EE7EEF80E060
:1050B00090E00E94093160E082E090E00E94EF30D1
:1050C00081E080939A0461E083E090E00E94EF30F9
:1050D00060E074E184E090E00E9409310E94A8152C
:1050E00060E070E0AB018FE090E00E94013160E091
:1050F00070E0AB0183E190E00E94013182E090E03A
:105100000E94D33080932A0284E090E00E94DB303A
:1051100080939C0490939D040E94B5118FEF96E7B5
:1051200021E0815090402040E1F700C000000E9443
:10513000B51180914C0280FF08C06FEF7FEF80E0D7
:1051400090E00E9409310E94F00A83E090E00E9402
:10515000D3300E94430480E091E0809386029093D4
:1051600087027E018FEFE81AF80A8091480210E466
:10517000853009F47CC00E94B5110BE212E05CE4BA
:10518000C52E52E0D52EF601D8019D91808125E3F0
:1051900032E02A173B0709F474C031969817A9F337
:1051A000B12CF601A1906F01F80181918F018A1550
:1051B00019F18A25782E88248394912C872D8821B3
:1051C000A1F09982BA820E945A098B839C8381E064
:1051D0008D8391E08A2D882109F490E09E83498196
:1051E0005A816B817C818D8129DB9394880C892D78
:1051F000873021F7F801A292B3948B2D8A3089F67B
:105200000E94A50A41C080914802843019F1109291
:10521000280288E190E00FB6F894A895809360008A
:105220000FBE1093600083B7817F846083BF83B714
:10523000816083BF7894889583B78E7F83BF0FB6D4
:10524000F894A89580916000886180936000109226
:1052500060000FBE0E94B511ECE4F2E08081811184
:1052600068C5319686E592E08E179F07B9F7809161
:105270004802853009F4C7CF0E941D0E0E949E0887
:105280007ACF98138DCF1BDD00919803109199036D
:1052900001151105A1F18090390290903A02A09079
:1052A0003B02B0903C020E94A50ADC01CB018819A8
:1052B0009909AA09BB0940913502509136026091C3
:1052C00037027091380284179507A607B707B8F020
:1052D000C8010E94AD0D109298031092990310928C
:1052E000390210923A0210923B0210923C02109244
:1052F0003502109236021092370210923802C09096
:10530000F003D090F103C114D10419F1A090F2037D
:10531000B090F3030E945A098A199B098C01C601B7
:105320000E94F11480179107A0F42091F003822FBE
:1053300090E0253008F055C182959295907F98278E
:10534000807F982780569C4FFC01258122FF0E9478
:10535000901180911101811511F100919804109123
:10536000990401151105D9F00E945A09801B910B6F
:1053700020912B0430912C042817390780F4909148
:105380002E0480912D04981709F42DC1BBD91092D9
:105390002B0410922C04109298041092990480917E
:1053A0007103811569F00E945A09209172033091AE
:1053B0007303821B930B8F3F9F4710F40E94140EC0
:1053C00086E0E1E0F3E0D70101900D928A95E1F7E4
:1053D00090900203B0900303D0900403A0900503C3
:1053E000C090060310920303109204031092050369
:1053F000109206038D2D8B2909F441C000913F02C4
:10540000109140020E945A09801B910B9C019091BF
:10541000FF02911509F488C42531310580F19F3FC1
:1054200019F09F5F9093FF02B11459F00E942E086B
:1054300091E01B140CF09FEF899F802D1124809325
:105440000303D11459F00E942E0891E01D140CF0B2
:105450009FEF899F802D1124809304038091030383
:10546000811569F010910403111549F00E9420087C
:1054700080930303812F0E942008809304038A2DC8
:105480008C2909F441C000913D0210913E020E9416
:105490005A09801B910B9C019091FE02911509F411
:1054A0003EC42135310580F19F3F19F09F5F9093F5
:1054B000FE02A11459F00E944E0891E01A140CF05B
:1054C0009FEF899F802D112480930503C11459F00B
:1054D0000E944E0891E01C140CF09FEF899F802DD4
:1054E00011248093060380910503811569F01091C2
:1054F0000603111549F00E94200880930503812FAF
:105500000E9420088093060380910203891119C02C
:1055100080910303811511F08B1113C020910403B6
:10552000211511F02D110DC090910603911511F068
:105530009C1107C030910503311103C0822B892BC8
:1055400011F00E94C60986E0F701A1E0B3E00190E6
:105550000D928A95E1F70E949E0890914102891769
:1055600021F0809341020E94A50A80914802843074
:1055700009F0FBCD83E08093E9008091E80082FF91
:10558000F4CD8091E80090E085FF09C00E94AA0B4D
:1055900030E2C32ED12C87018115B9F191E08091C1
:1055A000E8008B778093E800911509F4DECD009137
:1055B000620210916302E98101151105A1F1EE3F2C
:1055C00009F053C08A81833020F08550833008F081
:1055D0004CC0EA81EE3008F048C0F0E0E858FE4CDC
:1055E0004EC580E0B1CE48D810929804109299042C
:1055F0000E949E07D4CE8091F100F801808381E063
:10560000C81AD10859F20F5F1F4F8091E80085FD3D
:10561000F2CF8091E8008B778093E8000E94AA0B7C
:10562000811599F3BBCFE43148F4E11549F0E1501D
:10563000E33130F4F0E0EA57FE4C21C5EE3F49F289
:105640008FEF898312C01A8289E08B830EC08A8112
:10565000823079F08330A9F0813091F70E94A50A59
:1056600023D56B837C838D839E83C7010E9436077D
:105670007CCD88E290E097D51B821C821D828E83B0
:10568000F4CF8091460290914702892B71F38AE012
:10569000ECE4F2E0DE01139601900D928A95E1F7B9
:1056A000E4CF8A81823061F66B817C818D819E811D
:1056B000FBD488E290E093D5D8CF4C816B818A816E
:1056C0000E945C129C013827232732272D833E83BA
:1056D000CCCF2D813E813227232732274C816B810D
:1056E0008A810E94C20CC1CF0E945413BECF80E1B8
:1056F0008A83BBCF1A8283E7A8CF8C818D3108F0D3
:10570000B4CF8A809B80982489249824A12CB12C22
:1057100087016701C80ED11C0C151D0509F4A5CF22
:1057200083E788169104A104B10470F4C40183577F
:105730009C4F39D5F80184830F5F1F4F8FEF881A74
:10574000980AA80AB80AE8CF80E0F4CF8091460210
:1057500090914702892B09F488CFDC808D2D8D3103
:1057600008F083CF8A809B80982489249824A12CD8
:10577000B12C8701250132014D14510461047104DB
:1057800008F073CF83E788169104A104B10430F4C4
:10579000F8016481C40183579C4F21D58FEF481ACB
:1057A000580A680A780A8FEF881A980AA80AB80A6D
:1057B0000F5F1F4FE1CF0E946E1557CF85E098CF46
:1057C000DC808D2D8D3108F050CF8A809B8098240D
:1057D00089249824A12CB12C250132018E010B5F64
:1057E0001F4F4D1451046104710408F03ECF8CEB3F
:1057F000881682E09806A104B10488F4C401899651
:10580000D2D4F80181938F018FEF481A580A680AA1
:10581000780A8FEF881A980AA80AB80AE2CF80E0BF
:10582000F0CF3C80032D10E00D3108F01ECF8A81AF
:105830009B819827892798272C01612C712C8C3B00
:1058400022E0920708F011CFB3014CEB52E044196B
:10585000550966097709431551056105710508F475
:1058600004CF2091460230914702232BD9F54C01F9
:1058700029E2820E911C80FBCC24C0F8D12C80FF41
:105880000AC0889690D42D81382FC90181159C4774
:1058900011F48FEF8D83C201D301830D911DA11DE2
:1058A000B11D80FF18C0580181E0A81AB108CE01CF
:1058B00005968A0D9B1D8BA79CA7C401800F911F85
:1058C00072D4EBA5FCA52081922F81159C4711F481
:1058D0008FEF80838501F701EC0DFD1D2FEFC016C2
:1058E000D10628F08701A12CB12C450125C04481A7
:1058F0008581942F81159C4711F42483258382E0B0
:10590000C80ED11C3296EBCF8CEB481682E05806BD
:105910006104710428F4F8016481C20189965FD49E
:105920008FEF881A980AA80AB80A8FEF481A580AFF
:10593000680A780A0F5F1F4F83149104A104B10411
:1059400018F393CE8091460290914702892B09F477
:105950008CCEC7010E9436078FEF91EE24E0815074
:1059600090402040E1F700C00000EDCB88E0E2E18C
:10597000F1E0DE01919601900D928A95E1F7FE012A
:1059800032968FE111928A95E9F786E0898388E063
:10599000FE01B196DE0115967FCE8CEB898381E006
:1059A0008A831B821C8261CE8B819C81A92FAA0FC6
:1059B000AA0BBA2F25E0880F991FAA1FBB1F2A9593
:1059C000D1F7803E2FEF9207A207B20708F04DCE25
:1059D0008C3B21E09207A105B10508F046CEAC0151
:1059E000BD01405E5F4F6F4F7F4F4D3B21E052073F
:1059F0006105710510F04CEB51E0481B590BBC01DF
:105A000067517A4FC701A2D330CE4AE150E06FEF21
:105A100070E0CE010796B0D38091460289830A8355
:105A20001B8281E08C831D8282E029CE81E08093FD
:105A300062021092630282E3809344021092450254
:105A40000E945A0980934202909343020ECE0115A0
:105A5000110561F1B0904C02C0904202D090430217
:105A60000E945A098C199D098536910530F1B2FEC4
:105A700024C0B1FE22C00E945A0980934202909332
:105A80004302809144029091450201978093440221
:105A900090934502892B51F4109262021092630296
:105AA00081E0809346021092470200E08091460216
:105AB00089830A8380914402C8CD82E380934402A3
:105AC00010924502F3CF1092460210924702CDCDBC
:105AD00040E250E06FEF70E0C7014ED3C6CDEB81DE
