:100000000C9461030C947E030C947E030C947E0389
:100010000C947E030C947E030C947E030C947E035C
:100020000C947E030C947E030C9407250C94CB2433
:100030000C9405260C947E030C947E030C947E0392
:100040000C947E030C947E030C947E030C947E032C
:100050000C947E030C94DF250C947E030C947E0399
:100060000C947E030C947E030C947E030C947E030C
:100070000C947E030C947E030C947E030C947E03FC
:100080000C947E030C947E030C947E030C947E03EC
:100090000C947E030C947E030C947E030C947E03DC
:1000A0000C947E030C947E030C947E0305010902DC
:1000B000A10185020901A1000509190129081500FE
:1000C0002501950875018102050109300931158165
:1000D000257F95027508810609381581257F9501D0
:1000E00075088106050C0A38021581257F95017572
:1000F000088106C0C005010980A101850319012AF4
:10010000B700150126B700950175108100C0050CD8
:100110000901A101850419012AA002150126A002E6
:10012000950175108100C005010906A1018506052C
:100130000719E029E71500250195087501810205D9
:1001400007190029EF1500250195F07501810205B9
:10015000081901290595057501910295017503910D
:1001600001C00660FF0961A1010962150026FF00B8
:100170009520750881020963150026FF00952075FA
:10018000089102C005010906A101050719E029E748
:1001900015002501950875018102950175088101F9
:1001A0000507190029FF150026FF0095067508812F
:1001B000000508190129051500250195057501910E
:1001C00002950175039101C0FD377A585A00000469
:1001D000E6D6B4460200210116000000742FE5A304
:1001E000E002C801215D003D8889C65436C3174F1F
:1001F000E4F17CFE7F08FEE19DA178E81400A1FFF8
:10020000A54E16ED28B0D4E246AFB54C5EA92CFB46
:10021000E69ACEFF74ED12A12E87F8E97186174495
:10022000533BA2B27C9A3BDF77F63989081D889947
:100230000289524C8325FDA2E14847F36768578F36
:10024000D25E740BBF84E571B0462DC09BFD506E2D
:10025000B7C441C3114640F3A9FC66096552B99180
:100260003D1CF1C9426672F575C0A615FB9C26C0FF
:1002700039FB477DFF0B14B3920D0335BB7DC4479B
:10028000752913ED417543424E83F5CA5B637927A7
:10029000184885E6936F584F6C6151C1471E9E7692
:1002A000E9E3CDB32CB2CB411956382B835F61B94A
:1002B0009A962070BAFBA069E19C9CD76A188D3988
:1002C00086D3E428DCBFE3221FA39FBBF30202AB6B
:1002D000E6D71CDEF0BA137D53DB7230A14ABF0CA7
:1002E000F1DD2B4F95A8AF490F7BA8302DE17DD5CF
:1002F000A05E02205108033B1288142B713F037744
:10030000EDBD6DD6CEDD7F0000000000EB8AEB1C5A
:1003100046408B3C0001BD02C905000071E44F124C
:10032000B1C467FB020000000004595A29001E00F6
:100330001F0020002100220023002B0014001A00BF
:100340000800150017001C00390004001600070003
:1003500009000A000B00E10000001D001B00060060
:1003600019000500E000E2000000215200002C000E
:1003700000002A0035002D0027002600250024005B
:10038000310030002F00130012000C00180028006C
:100390002E00340033000F000E000D00E500E500D4
:1003A000380037003600100011002352E400E60048
:1003B0000000225200002C0001003A003B003C00EB
:1003C0003D003E003F000100010052004C000100D2
:1003D000010001000100500051004F000100010028
:1003E0004B0001000000AE00AA00A900A800010017
:1003F00001000100000001000000010000004C00AD
:10040000010044004300420041004000010001009F
:100410000100010001000100010001004500010090
:100420000100010001004E00010052000100010026
:1004300046004D004A004F005100500000000100EE
:1004400000000100010054005500560001000100A9
:10045000010001005F006000610057000100010021
:1004600001005C005D005E0063000100010001000E
:10047000000059005A005B006700010001006200A3
:1004800000006300000058000000010001000100AE
:100490000100010001000100010001000100010054
:1004A0000100010001000100010001000100010044
:1004B0000100010001000100010001000100010034
:1004C0000100010001000100000001000000010026
:1004D0000100010001000100010001000100010014
:1004E0000100010001000100010001000100010004
:1004F00001000100010001000100010000000100F5
:1005000001000100010001000100010000000100E4
:1005100000000100000001000100010001000100D5
:10052000010001000100007C010001000100010048
:1005300001000100010001000100010001000100B3
:1005400001000100010001000100010001000100A3
:1005500001000100000001000000010009025B0031
:10056000030100A0FA0904000001030101000921B0
:10057000110100012244000705810308000109045C
:1005800001000203000000092111010001222200E4
:100590000705820320000107050303200001090469
:1005A0000200010300000009211101000122B60030
:1005B000070584032000011201000200000008ED7D
:1005C000FE01000001010203011C037600690061C5
:1005D000006C003A006600360034006300320062AE
:1005E00000330063000000120366004100750078CC
:1005F000004C0049004300450000001003620072F7
:10060000006F0063006B00610072000000040309CA
:1006100004000000000000000000000000000000D6
:1006200000000000000000000000000000000000CA
:1006300000000000007E0F00D4FFFFFFC700000095
:100640007800000000000000002A2B2800000000B5
:100650000000000000000000000000002900000071
:10066000002C1E3420212224342627252E362D3717
:1006700038271E1F202122232425263333362E37E8
:10068000381F0405060708090A0B0C0D0E0F101180
:1006900012131415161718191A1B1C1D2F3130238D
:1006A0002D350405060708090A0B0C0D0E0F101155
:1006B00012131415161718191A1B1C1D2F3130355B
:1006C0004C0011241FBECFEFDAE0DEBFCDBF11E03A
:1006D000A0E0B1E0EEEDFCE502C005900D92AE3673
:1006E000B107D9F724E0AEE6B1E001C01D92A33D09
:1006F000B207E1F70E942E260C946D2E0C94000098
:10070000482F2091D2049091890459E0291302C006
:1007100080E0089530E0529FF001539FF00D1124C6
:10072000E657FB4F8181681306C08081481303C0E0
:1007300085818111EECF2F5F3F4F2770E7CFE8ED26
:10074000F0E080818E7F80831092E2001092DA00C8
:100750001092E100A0EEB0E08C9181608C938081DA
:100760008F77808319BCA7EDB0E08C918E7F8C933E
:1007700080818F7E80831092720408952091E4001E
:100780003091E50085E69091EC0090FF06C09091D5
:10079000E80090FF06C080E008959091E80092FD87
:1007A000FACF90917F04992391F0953091F0909138
:1007B000EB0095FD10C04091E4005091E500241736
:1007C000350709F381509A01F1F684E0089582E03B
:1007D000089583E0089581E008958091810487FF62
:1007E00013C08091E80082FF06C08091E8008B77FB
:1007F0008093E80004C080917F048111F2CF0895B6
:1008000080917F048823D9F38091E80080FFF8CF9E
:100810008091E8008E77ECCF982F9093E900242FF9
:10082000762F50E0891731F07091EC002091ED00A7
:100830005091F00021FD07C09F5F973071F78093C2
:10084000E90081E008953091EB003E7F3093EB00AA
:100850003091ED003D7F3093ED003091EB00316041
:100860003093EB007093EC002093ED005093F00078
:100870002091EE0027FDE0CF80E00895B0E0A0E0F9
:10088000E4E4F4E00C94182EC8EDD0E088818F7E6B
:100890008883E7EDF0E080818160808384E082BF1F
:1008A00081E08093720488818E7F888302EE10E05D
:1008B000F80110821092DA0081EEC82ED12CF601D8
:1008C000108288818F778883888180688883888177
:1008D0008F7D888319BC10927F041092800410923F
:1008E0007E0410927D0490EEE92EF12CF7018081B8
:1008F0008B7F808388818160888342E060E080E034
:100900000E940C04F60180818E7F8083F801808133
:1009100081608083808188608083F70180818E7F01
:100920008083888180618883CDB7DEB7E8E00C944E
:10093000342EFC01809187049091880486179707D4
:10094000A0F06115710529F49091E8009E779093CD
:10095000E80090E06115710551F4911108C0809193
:10096000E80082FF35C080E00895BC01F2CF80919D
:100970007F048823C9F18530C9F18091E80083FDA7
:1009800031C08091E80082FDEACF8091E80080FFCD
:10099000E1CF2091F3008091F200322F282F6115D2
:1009A000710519F02830310558F091E028303105F3
:1009B00009F090E02091E8002E772093E800CACF5C
:1009C00081918093F100615071092F5F3F4FE7CF14
:1009D00080917F04882341F0853041F08091E800C8
:1009E00083FFBDCF81E0089582E0089583E00895FC
:1009F00080917404089587E797E7909301088093A6
:100A0000000888E19AE00FB6F894A89580936000FA
:100A10000FBE90936000FFCF9C014FB7F894809178
:100A20006E0490916F04A0917004B09171044FBF57
:100A3000821B930B08952FB7F89460916E04709108
:100A40006F0480917004909171042FBF08952FB7A7
:100A5000F89480916E0490916F04A0917004B0910D
:100A600071042FBF089590910C019923D1F09091BA
:100A70006B0497FF16C0E82FE695E695E695EE31F4
:100A8000D8F4F0E0E858FE4F282F277081E090E07E
:100A900001C0880F2A95EAF7809592818923828385
:100AA0000895E0E7F1E09281891301C01282319646
:100AB00091E0E637F907B9F7089590910C01992371
:100AC000C1F090916B0497FF14C0E82FE695E6956E
:100AD000E695EE31F8F4F0E0E858FE4F877021E03B
:100AE00030E001C0220F8A95EAF78281822B82834F
:100AF0000895A2E7B1E0EFEF90E02D91821751F059
:100B0000EF3F19F4211101C0E92F9F5F9630A9F73B
:100B1000EF3F09F408950E2E000CFF0BE059FE4F35
:100B2000E6CFA3E0B0E0E7E9F5E00C941E2E2091BB
:100B3000690430916A0428173907A1F090936A0478
:100B400080936904E0916704F0916804309751F054
:100B500024E029839B838A830084F185E02DCE01E4
:100B6000019609952396E2E00C943A2EA3E0B0E0BA
:100B7000ECEBF5E00C941E2E209165043091660498
:100B800028173907A1F09093660480936504E091DB
:100B90006704F0916804309751F023E029839B8328
:100BA0008A830084F185E02DCE0101960995239674
:100BB000E2E00C943A2EE0916704F09168043097DB
:100BC00029F00190F081E02D0995089580E00895C5
:100BD0004115510511F0FA01099508950E94270564
:100BE00020915A04211104C020915B04222321F09A
:100BF000909357048093560420915C04211104C003
:100C000020915D04222321F0909355048093540495
:100C1000E0916704F0916804309749F082E0809396
:100C200058040680F781E02D88E594E00995089541
:100C30008091530480FD16C081FD16C082FD16C050
:100C4000809152048823A1F0883280F428E0829FAA
:100C5000C001112468E270E00E94ED2D862F672B01
:100C600039F0089582E0089584E0089588E00895B9
:100C700081E008958091530480FD14C081FD14C06B
:100C800082FD16C080915104882381F08E3180F45A
:100C900020E5829FC00111246EE170E00E94ED2DDD
:100CA000862F089584E1089588E2089588E00895E4
:100CB00080E50895282F35EB2303C001112497FF09
:100CC00004C080589109892F089580589F4FFBCF09
:100CD000CF93DF93EC01409146045091470460911B
:100CE0004804709149042FB7F89480916E04909154
:100CF0006F04A0917004B09171042FBF841B950BF9
:100D0000A60BB70B843F9140A105B10518F5809162
:100D1000460490914704A0914804B09149048093FF
:100D2000420490934304A0934404B093450484EF99
:100D300091E0A0E0B0E080933E0490933F04A09344
:100D40004004B0934104D0934E04C0934D04DF910E
:100D5000CF9108950E941B05609342047093430451
:100D6000809344049093450482E390E0A0E0B0E0D7
:100D7000E2CFFC018481862351F492819923B9F05A
:100D80006923808583FF05C081E061110FC080E089
:100D90000895892F8F7092959F70982B862F8F7052
:100DA00062956F70682B81E09613F1CF089581E012
:100DB000FDCFBC014091380480913904942F8913F0
:100DC00001C00895292F30E0F901EE0FFF1FE05D0B
:100DD000FB4F0190F081E02DE617F70799F487E0CB
:100DE000869FF001879FF00D1124E157FC4F81E0B1
:100DF00084839413E6CF2F5F3F4F237033272093D4
:100E0000380408952F5F3F4F922F9370D8CF1092E0
:100E10008D0310928C03EFE8F3E08581811102C00D
:100E200014821682379683E0E73CF807B1F70895FD
:100E3000E1E3F2E090E080E06DE573E244E853E244
:100E40002FED32E27783668351874087338722878D
:100E500097878687019670968830910599F708954F
:100E600081152CE7920741F420913C0430913D0418
:100E7000232B11F490E080E0089580E00895F89429
:100E8000E82FE295EF70F0E031A1282F2F7081E07C
:100E900090E001C0880F2A95EAF7982F9095932348
:100EA00091A392A1892B82A37894089590916B04C9
:100EB00092FF10C041E0282F2471243009F040E057
:100EC00031E0282F2871283009F030E0431711F065
:100ED0002CE0822793FF10C041E0282F2471243199
:100EE00009F040E031E0282F2871283109F030E086
:100EF000431711F02CE0822730916C0430FF10C0B2
:100F000051E0282F2171213009F050E041E0282FD5
:100F10002871283009F040E0541711F029E08227A9
:100F200031FF10C041E0282F2171213109F040E04C
:100F300031E0282F2871283109F030E0431711F0F3
:100F400029E0822794FD877E089582389105B9F1C2
:100F5000B0F48133910509F47DC048F489329105DC
:100F600009F46DC08A32910509F479C0089585337A
:100F7000910509F45FC08933910509F10895833E15
:100F80009105D9F138F4803E910529F1823E910511
:100F900079F10895863E9105D9F1873E910509F4CE
:100FA0003EC0843E910541F520916C0421FF24C090
:100FB00080916B0484FD19C087EE90E00895209124
:100FC0006B04237009F056C020916C0423FF14C0F9
:100FD00089E290E0089520916B0420FD38C03091A3
:100FE0006C0430FF09C024FF3FC090E080E008950A
:100FF00020916B0422FDF7CF089520916B0422FD10
:1010000036C030916C0430FD35C024FDEECFF4CFF6
:1010100020916B0423FFF0CF24FDE7CFCDCF2091AB
:101020006B0423FD2AC030916C0431FFEECF84EEB7
:1010300090E0089520916B0425FDCACF089520917A
:101040006B0425FD1DC020916C0423FFD5CF89E3DF
:1010500090E0089520916B0426FD15C0089520911D
:101060006B0426FD13C0089583EE90E0089582EE90
:1010700090E0089580EE90E0089586EE90E0089567
:1010800085E390E008958AE290E0089581E390E09E
:10109000B3CF1F93CF93DF930E94A507EC01C11537
:1010A00080E5D807E8F5C11580E4D80708F09BC0B3
:1010B000C03ED10518F5CD3CD10508F081C0C83A35
:1010C000D10570F4C53AD10508F072C0C130D10520
:1010D00011F118F0C430D105F0F4D0E0C0E01BC02D
:1010E000C33CD105D0F7C85AD0E0CC0FDD1FC85E95
:1010F000DE4F0990D881C02DD4640DC0C11580E2A7
:10110000D80708F0CBC0C11581E0D80708F05AC055
:10111000C83ED10510F7CE01DF91CF911F91089500
:10112000C03682E5D80718F5C03482E5D80708F044
:1011300069C0C03282E5D80708F05DC0C11582E5FC
:10114000D80708F493C02C2F2695269580E2289F77
:10115000900111248C2F8370C1E0D0E002C0CC0F2D
:10116000DD1F8A95E2F7C22BD32BDD68D4CFC03ABE
:1011700082E5D80760F4C03882E5D80708F457C084
:10118000CF71D0E0DC2FCC27C46FD06AC4CFC03C75
:1011900082E5D80708F45EC0C03E82E5D80708F0B3
:1011A0009CCFDC2FCC27CC27DF71C06FD06AB3CFA8
:1011B000C55AD0E0CB5EDE4FC881D0E0D064ABCF63
:1011C000D065A9CF8D2F0E945607182FCE019927E1
:1011D0000E94A507C12FD0E0DC2FCC27CC27DF71E0
:1011E000C82BD92B98CFCE0199270E94A507CC27D1
:1011F000DF70D06AF5CFCF71D0E0DC2FCC27C16F84
:10120000D06A89CF2C2F26952695277080E2289FBB
:10121000900111248C2F8370C1E0D0E002C0CC0F6C
:10122000DD1F8A95E2F7DC68C22BD32B74CF2C2FFD
:1012300026952695277080E2289F900111248C2FF7
:101240008370C1E0D0E002C0CC0FDD1F8A95E2F7C9
:10125000DA68EACF8C2F8F710E945607C82FD0E032
:10126000DC2FCC27CC27DF71D06255CF8C2F8F712C
:101270000E94560755E0D695C7955A95E1F7CF706D
:10128000D0E0DC2FCC27282F30E084FF05C044E0DD
:10129000220F331F4A95E1F7D069C6CF8D2F8F718A
:1012A0000E945607182FCE0199270E94A507C12F2B
:1012B000D0E0DC2FCC27CC27DF71906291CF8091DA
:1012C000ED01882331F01092ED011092EC011092A3
:1012D000EB0108959091ED01292F282361F080956D
:1012E00089238093ED01882339F00E94270590938C
:1012F000EC018093EB01089590E080E0F8CF982F07
:101300009095809161048923809361040895982FBA
:101310009095809162048923809362040895CF930D
:1013200080916204C0916104C82B8091ED018823F3
:1013300009F10E9427052091EB013091EC01821BFD
:10134000930B8838934110F00E945F098091ED0162
:10135000C82B80910C018823B1F080916B0487FF2A
:1013600012C08EE1EAE7F1E090E0815080F4911143
:101370000E945F0980914A0480958C2390914B04D0
:10138000892BCF91089586E0E2E7F1E0EDCF21913E
:10139000222359F39F5FE9CF1092C2011092C1013D
:1013A0001092C00108959091BF01292F282321F0A8
:1013B000809589238093BF0108958091D2049091F4
:1013C0008904981301C008958F5F8770FACF292F81
:1013D0009A3078F5873068F590E037E0239F800DEC
:1013E000911D1124682F677023E0969587952A95A3
:1013F000E1F7FC01EE0FFF1FE80FF91FE556FE4F66
:1014000050E040E080E0219130E0062E02C03695A9
:1014100027950A94E2F721703327042E01C0220F8A
:101420000A94EAF7822B4F5F5F4F4330510559F71B
:10143000089580E00895292F9A3098F5873088F52F
:1014400090E037E0239F800D911D1124282F2770F5
:1014500041E001C0440F2A95EAF723E0969587956D
:101460002A95E1F7FC01EE0FFF1FE80FF91FE55683
:10147000FE4F30E020E070E05191DF011197CB0189
:10148000022E02C0969587950A94E2F781708195A5
:101490008527842385278C932F5F3F4F2330310589
:1014A00059F708958093FE0108959091FE0121E07F
:1014B00030E0F90101C0EE0F8A95EAF7D90102C0C8
:1014C000AA0FBB1F6A95E2F7EA2B01C0220F4A95CB
:1014D000EAF7892F8E23E81305C0292B822F0E945B
:1014E000520A089520952923F9CF21E030E001C068
:1014F000220F8A95EAF720958091FE0182230E94AF
:10150000520A08959091C201809589238093C20167
:10151000282F277069F4891759F090916C0492FF75
:1015200007C08695869586950E94750A0E94CC090B
:10153000089521E030E001C0220F8A95EAF78091FA
:10154000FE01822B0E94520A089590916C0492FF32
:1015500010C098E0899F90011124622B6093C20112
:101560000E94990A0E9427059093C1018093C001AF
:1015700008950E94990A08958093FD01089590911D
:101580005A04662309F471C091110CC090915B0458
:10159000911108C090915D04911104C090915C0478
:1015A000992331F098E09093510491E09093520484
:1015B0008D3C41F40E943A06819580935B040E9421
:1015C000EE0508958E3C19F40E943A06F6CF8F3C42
:1015D00031F40E943A06819580935A04F0CF803D01
:1015E00019F40E943A06F8CF893D29F40E941806A2
:1015F00080935C04E4CF8A3D21F40E941806819513
:10160000F7CF8B3D31F40E941806819580935D04DD
:10161000D6CF8C3D19F40E941806F8CF9FE2980FA0
:10162000983070F4815D990B21E030E001C0220F09
:101630008A95EAF780915904822B80935904BFCF91
:101640008D3D31F480915304816080935304B7CF72
:101650008E3D21F4809153048260F7CF8F3D09F0D5
:10166000AECF809153048460F0CF8D3CD9F490913B
:101670005B0497FF1DC010925B0480915A04811196
:1016800006C080915B04811102C0109251048091C8
:101690005C04811194CF80915D04811190CF1092F0
:1016A00052048DCF8E3CD9F490915B0419161CF333
:1016B0009FE2980F983008F03CC0815D990B21E0C3
:1016C00030E0A90102C0440F551F8A95E2F7CA0114
:1016D000809590915904892380935904CECF8F3CF3
:1016E00029F497FFE5CF10925A04C7CF803D19F433
:1016F0001916CCF3DDCF90915C04893D29F41916BD
:10170000BCF610925C04B9CF8A3D19F497FFD0CF94
:10171000F8CF8B3D39F490915D0497FFC9CF1092BB
:101720005D04ABCF8C3D21F690915D041916BCF39E
:10173000BFCF8D3D31F4809153048E7F809353044D
:101740009CCF8E3D21F4809153048D7FF7CF8F3D48
:1017500009F093CF809153048B7FF0CF9C013A9591
:1017600021153F4150F5FC01EE27F170BC016627C1
:101770007270AC01442754709C012227387094FF8A
:101780000EC080E0EF2B09F080E1672B09F080624A
:10179000452B09F08064232B89F08068089581E04F
:1017A000EF2B09F480E0672B09F08260452B09F0EC
:1017B0008460232B19F08860089580E008950F93CA
:1017C0001F93CF93DF938B01EA0190917F049430B4
:1017D00061F58093E9008FEF9091E800815095FDCD
:1017E00006C095ED9A95F1F700008111F5CF809133
:1017F000E80085FF1AC00E94BE03811111C08091CC
:10180000E80085FD06C08091E8008E778093E800AF
:10181000F2CFF80181918F018093F100219779F740
:101820008091E8008E778093E800DF91CF911F913F
:101830000F91089543E050E0BC0184E00E94DF0B6B
:10184000089546E050E0BC0184E00E94DF0B08955B
:1018500040E250E0BC0184E00E94DF0B0895CF938A
:10186000DF93EC0148E050E0BC0181E00E94DF0B17
:1018700088E0FE01A5E7B4E001900D928A95E1F7BA
:10188000DF91CF910895CF93C82F6FEF81116CEB4B
:1018900084E290E00E94B12D6FEFC11166E085E215
:1018A00090E00E94B12D6FEFC1116AE286E290E0F4
:1018B0000E94B12DCF910895CF93DF93C8E4D3E078
:1018C00060E0CE010E94B12D2196C11584E0D807B9
:1018D000B9F7DF91CF9108951F93CF93DF93962FA0
:1018E0008430E8F46A30D8F44730C8F4632F122FFC
:1018F000C42FD0E0CC0FDD1F2EE0929FC00DD11D74
:1019000011249CE8899FC00DD11D1124CE01889619
:101910000E94B12D612FCE0189960E94B12DDF91D9
:10192000CF911F91089584E290E00E94932D8C3B0B
:1019300089F485E290E00E94932D863059F486E286
:1019400090E00E94932D91E08A3209F090E0892F77
:101950008170089580E0FCCF0F931F93CF93DF93A6
:10196000843030F56A3020F5473010F5C42FD0E0D0
:10197000CC0FDD1F2EE0629FC00DD11D11243CE86D
:10198000839FC00DD11D1124CE0188960E94932DF6
:10199000082F10E0102F0027CE0189960E94932D6A
:1019A0009801282BC901DF91CF911F910F910895C4
:1019B00090E080E0F8CF20911B0230911C02232B95
:1019C000A1F4703F39F4603F81F480911D02909141
:1019D0001E0208957A3048F4673038F4843028F4D1
:1019E000462F672F0E94AC0C089590E080E0089588
:1019F000CF92DF92FF920F931F93CF93DF936C01EF
:101A00000091FE018091FD01082BC3E0D0E010E0C1
:101A1000FC2EC8010C2E02C0959587950A94E2F71A
:101A200080FD0CC02197A0F7F12C8F2DDF91CF9175
:101A30001F910F91FF90DF90CF900895B6018C2FEA
:101A40000E94DB0C0E944908019761F3EECFCF930F
:101A5000DF93EC010E94F80CBE010E94DB0C0E9497
:101A60004908DF91CF910895FC0124812223F1F0F0
:101A700087819085009789F00E94490892959F7010
:101A80009630B1F078F49250923080F4803F19F0A3
:101A900058F4883E58F481E00895808191810E9435
:101AA000270DECCF9A50F0CF843FA9F380E0089542
:101AB000883E88F3813FD1F7EECFA6E0B0E0E3E6C1
:101AC000FDE00C941D2EFC01878190850097E9F4C0
:101AD000CF0126E0DE01119601900D922A95E1F7E3
:101AE000FC01258189819A81222399F0662389F05E
:101AF0000E94F80C182F682F89819A810E941B0A76
:101B000069817A81812F0E94DB0C2696E3E00C9498
:101B1000392E0E94E709182FF3CFAEE1B0E0E3E9D8
:101B2000FDE00C94142EC0903C04D0903D0481E064
:101B300090E090933D0480933C04B12CA12C812C27
:101B40007501912C1AC0F801EE0DFF1DEE0FFF1F5D
:101B5000E45DFC4F25913491402F692D882D0E9422
:101B60006C0C0F5F1F4F0730110569F787E0E80E17
:101B7000F11C9394EAE09E1619F010E000E0E3CF28
:101B80008394F6E4AF0EB11C84E08812D9CF1A8298
:101B900019821C821B821E821D8218861F8288EC7D
:101BA00090E09A87898708E512E04AE050E0B801A2
:101BB000CE0101960E94D52D065F1F4F083AE2E044
:101BC0001E0799F77E01FBE0EF0EF11C8AE0F7019A
:101BD00011928A95E9F74AE050E0B801C7010E94E6
:101BE000D52D065F1F4F083FF2E01F07A1F77E01CA
:101BF00085E1E80EF11C8AE0F70111928A95E9F778
:101C00008FEF9FEF9A8F898F87E08E8F4AE050E0A9
:101C1000B801C7010E94D52D065F1F4F0834F3E0BD
:101C20001F07A1F7D0923D04C0923C046E96ECE0F1
:101C30000C94302E80E00E94430C60E087E290E03C
:101C40000E94B12D0E948D0D0E945C0C81E00E94CB
:101C5000430C0895883080F49B01982F8AE0989F68
:101C6000B0011124685A7D4F4AE050E0C9010E943A
:101C7000832D90E080E008958FEF9FEF0895AAE014
:101C8000B0E0E5E4FEE00C941E2E9C0137552F3F9A
:101C9000310509F068F4BE016F5F7F4F0E942A0E84
:101CA000892B31F489859A852A96E2E00C943A2EA4
:101CB00088EC90E0F9CFAAE0B0E0E1E6FEE00C9419
:101CC000142E04E113E082E0C82E83E0D82E98EFB2
:101CD000E92E92E0F92E27E0922E31E0A32E33E098
:101CE000B32E88248394D6010D931D936D014AE091
:101CF00050E0B701CE0101960E94832DF80138967D
:101D0000DF01892D1D928A95E9F789819A81D80191
:101D100011969C938E938F8112968C9312978D813E
:101D200013968C931397888514968C9314978985B2
:101D300015968C9315978B819C8117969C938E9307
:101D4000169718961C9218978A8587FF3CC01E9696
:101D50001C921E921D9780FF03C0D80118968C928A
:101D600081FF04C0F80190859260908782FF07C0D0
:101D7000D80118969C911897946018969C9383FFAD
:101D800004C0F80190859860908784FF07C0D8014F
:101D900018969C911897906118969C9385FF04C0A3
:101DA000F801808580628087015F1F4FFAE0EF0EA7
:101DB000F11C88E4E81683E0F80609F094CF2A962F
:101DC000ECE00C94302EF801B686A586C4CFAAE0CC
:101DD000B0E0EDEEFEE00C94182EE1EBF2E080E5D1
:101DE000DF011D928A95E9F7EFE8F3E088E3DF0170
:101DF0001D928A95E9F781EBC82E82E0D82E7F01EB
:101E000008EA12E0F701D182C0824AE050E0B8014E
:101E1000CE0101960E94832D88E0FE013196D60105
:101E200001900D928A95E1F789859A85D7011396DD
:101E30009C938E931297BAE0CB0ED11CE7E0EE0E86
:101E4000F11C065F1F4F083FF2E01F07D9F62A96E4
:101E5000E8E00C94342E90916C0492FB222720F938
:101E6000281779F080FB92F990936C0460916B04D1
:101E700070916C0484E090E00E94CF2D82E00E947B
:101E8000820A089580910C01882359F180916B0496
:101E900087FF27C00E948F098093790140E250E0BC
:101EA00063EC71E088E791E00E94592E892BC1F024
:101EB00080E2E8E7F1E0A3ECB1E001900D928A95B1
:101EC000E1F7E0916704F0916804309749F086E00B
:101ED000809378010480F581E02D88E791E00995F1
:101EE00008950E948F098093700148E050E063EEEE
:101EF00071E080E791E00E94592E892B89F388E0F8
:101F0000E0E7F1E0A3EEB1E001900D928A95E1F7F0
:101F1000E0916704F0916804309711F30280F38137
:101F2000E02D80E791E0DBCFCF93DF93EC014A8592
:101F30005B856E857F850E94E8058B810E947F0905
:101F40008C810E9487090E94420F86E0FE01119257
:101F50008A95E9F7DF91CF910895CF93DF93EC0154
:101F60008D8181FD17C082608D83809161049B818A
:101F7000892B80936104809162049C81892B8093DA
:101F800062040E94420F488559856E857F85CE0187
:101F90000E94E80510926404109263048D8180FD14
:101FA00003C0CE010E94940FDF91CF91089510924B
:101FB000620480910C01882339F180916B0487FFC2
:101FC00023C0EAE7F1E08EE1DF011D928A95E9F78F
:101FD00090E080E00E94B60590E080E00E949105CC
:101FE000109261040E94420F86E0E8E5F4E0DF0110
:101FF0001D928A95E9F710925104109252041092A2
:1020000053040E94EE050895E2E7F1E086E0DCCF9C
:10201000AAE2B0E0EEE0F0E10C941D2EE1E8F4E07D
:102020008091F100819384E0E938F807C9F7809145
:102030008204833009F47FC008F5813009F456C06A
:10204000823009F4C0C08091E80083FFFAC080911B
:102050008104909182049A3008F0F3C0E92FF0E0F7
:10206000EC5CFF4E0C94012EF4101A1121111A1180
:1020700021117211941121119E12AB128A3009F4B0
:1020800091C08B3009F474C08930E9F680918104E5
:102090008132C9F68091850490918604009711F0F1
:1020A000029789F68091E800877F8093E80080910D
:1020B000E80082FF3BC08091F3009091F2008927F5
:1020C00098278927029731F48091F100813011F02F
:1020D000863021F48091F100809374048091E800AF
:1020E0008B778093E8000E94ED03ADCF809181044F
:1020F000813A09F0A8CF8091E800877F8093E800BB
:102100008091850490918604892B61F060E090E0D5
:1021100080E070E00E9499048091E8008B778093C2
:10212000E80091CF68E085E794E0F3CF80917F04E9
:102130008111BDCF88CF80918104813A09F083CF8E
:102140008091850490918604892B09F07CCF809141
:10215000E800877F8093E8008091E80080FFFCCF53
:1021600080910C018093F1008091E8008E77B9CFC7
:1021700080918104813209F066CF8091850490912D
:102180008604892B09F05FCF8091E800877F8093D8
:10219000E8000E94ED038091830480930C010E946B
:1021A000D70F51CF80918104813209F04CCF8091BB
:1021B000E800877F8093E8000E94ED03809184040B
:1021C0008093730440CF80918104813A09F03BCF22
:1021D0008091E800877F8093E8008091E80080FF8D
:1021E000FCCF80917304BECF803889F0823849F5E6
:1021F000809185048F70873020F58093E90080916D
:10220000EB0085FB882780F91092E90006C08091D9
:102210007D0490917E04911182609091E800977FF7
:102220009093E8008093F1001092F1008091E80013
:102230008E7727C0282F2D7F21F48823A1F08230AC
:1022400029F18091E80083FF0AC08091E800877F30
:102250008093E8008091EB0080628093EB00AA9667
:10226000E3E00C94392E80918304813051F7933050
:1022700009F080E080937E041092E9008091E800EC
:10228000877F8093E8000E94ED03DBCF8091830479
:102290008111F2CF809185048F702FEF280F2630A7
:1022A00080F68093E9002091EB0020FFE5CF93308A
:1022B00031F48091EB0080628093EB00DDCF909150
:1022C000EB0090619093EB0021E030E001C0220F21
:1022D0008A95EAF72093EA001092EA008091EB00D9
:1022E0008860EACF8111ADCF109183041F77809170
:1022F000E3008078812B8093E3008091E800877F62
:102300008093E8000E94ED038091E80080FFFCCFFD
:102310008091E30080688093E30083E0111101C0A5
:1023200082E080937F048DCF8058823008F089CF7F
:1023300020918304309184042C3DA3E03A07A1F559
:1023400083E08A838AE289834FB7F894DE0113968B
:1023500020E03EE051E2E32FF0E050935700E4919B
:1023600020FF03C0E295EF703F5FEF708E2F90E08B
:10237000EA30C0F0C7968D939D932F5F243159F7B3
:102380004FBF8091E800877F8093E8006AE270E0A9
:10239000CE0101960E9499048091E8008B7780938A
:1023A000E8004FCFC096E7CF8091850490918604D6
:1023B000432F55274330510509F44FC078F541307C
:1023C000510509F445C08BE590E0ECE5F5E04230BD
:1023D000510509F036CF2091E800277F2093E800CF
:1023E00020918704309188048217930708F49C0198
:1023F00040E02115310509F06EC041116CC080919B
:10240000E80082FDC9CF80917F04882329F28530BE
:1024100019F28091E80083FFF2CFBECF413251051F
:1024200009F44AC04232510509F00BCF83309105BF
:1024300008F007CFFC01EE0FFF1FEE59FE4F019091
:10244000F081E02D815A9E4FDC018C9190E020C0FC
:1024500082E190E0E7EBF5E0BECF33272130310594
:10246000D9F078F022303105F9F02330310509F048
:10247000E8CEE9ECF5E0E4918E2F90E0E9ECF5E0B0
:1024800007C0EDE0F6E0E4918E2F90E0EDE0F6E09D
:10249000009709F4D6CE9FCFEBEFF5E0E4918E2FB5
:1024A00090E0EBEFF5E0F4CFE7EEF5E0E4918E2F6E
:1024B00090E0E7EEF5E0ECCF8330910508F0C1CE77
:1024C000880F991FFC01E859FE4F0190F081E02D23
:1024D00089E090E080CF80917F04882309F45CCF6D
:1024E000853009F459CF8091E80083FD55CF809164
:1024F000E80082FD84CF8091E80080FF7ACF809150
:10250000F3009091F200892798278927211531053A
:1025100019F08830910550F041E0089709F040E04B
:102520008091E8008E778093E80063CF44914093D8
:10253000F1003196215031090196E8CF803809F039
:1025400080CE8091E800877F8093E80080918004AE
:102550008093F1006BCE811174CE10918304123000
:1025600008F06FCE8091E800877F8093E800109399
:1025700080040E94ED031123D1F084E080937F0456
:1025800042E061EC81E00E940C0442E261EC84E0F4
:102590000E940C0442E261EC82E00E940C0442E2E0
:1025A00060EC83E00E940C0480917F044ACE80910D
:1025B000E30087FDE2CF81E0E1CF0E94D70F2FEF4C
:1025C00084E39CE0215080409040E1F700C000008F
:1025D00088E19AE00FB6F894A895809360000FBE4A
:1025E00090936000FFCF882321F00E947F090E9412
:1025F000420F0895882339F090916104892B8093CC
:1026000061040E94420F0895882321F00E948709E7
:102610000E94420F0895882339F090916204892B1B
:10262000809362040E94420F0895882381F19CEFF9
:10263000980F913A28F40E9433050E94420F0895A2
:1026400090E2980F983050F4877091E001C0990F94
:102650008A95EAF7892F0E948709EFCF9BE5980FAB
:10266000933028F490E080E00E94B605089598E544
:10267000980F9B3128F490E080E00E949105089526
:1026800093E3980F933118F460E00E94BF0A089515
:10269000FF920F931F93CF93DF9300914F041091FC
:1026A00050040115110509F451C010924E04109206
:1026B0004D0410924A0410924B04D8011696CD9105
:1026C000DC91AE015A9541155F4108F4D07ED1E00E
:1026D000C11101C0D0E0F82ED8011996ED91FC91FE
:1026E0001A97309731F01B966D917C9180E0099597
:1026F000D823DD2339F08CEF8C0F813A68F58C2FCD
:102700000E943305E0914F04F091500440815181C3
:10271000FF2071F0808584FD0BC080914C048823DC
:1027200039F091E09A01215031092F333E4708F0EA
:1027300090E090FF03C0CA010E9468060E94420F09
:102740001092500410924F0410924C04C801CDB75F
:10275000DEB7E5E00C94372E0E94420F8C2F0E94CA
:102760001513D0CFCF938823B9F1C82F8CEF8C0FDE
:10277000813AA0F580910C01882301F180916B04CE
:1027800087FF1CC0EC2FE695E695E695F0E0E8584B
:10279000FE4F828190E04C2F477021E030E002C074
:1027A000220F331F4A95E2F782239323892B79F076
:1027B0008C2F0E9433050E94420F09C0E2E7F1E02E
:1027C0008191C817A9F381E0E837F807C9F78C2F82
:1027D0000E945D050E94420FCF91089580E28C0F08
:1027E000883068F4C77021E030E001C0220FCA953C
:1027F000EAF780916204822B80936204EBCFEBE5D1
:10280000EC0FE33040F4F0E0EB5EFE4F808190E0AF
:102810000E94B605E1CFE8E5EC0FEB3150F4F0E0B3
:10282000EE0FFF1FE85EFE4F808191810E949105AF
:10283000D3CF83E38C0F833178F661E08C2F0E9435
:10284000BF0ACACF1F93CF93DF93182FEB010E94CB
:10285000B213209739F4812F0E941513DF91CF9185
:102860001F9108958FE99FE00197F1F700C00000E4
:102870002197EFCFB0E0A0E0E0E4F4E10C94182E53
:102880006B01C42FD22FFC0185818823A9F04093CE
:1028900060040E94270590935F0480935E04C770D4
:1028A00081E001C0880FCA95EAF70E940B13CDB7EB
:1028B000DEB7E8E00C94342E10916004141339C094
:1028C00080915E0490915F040E940C057C01C6011A
:1028D0000E943F0EE816F90660F5C0E2CD0F1D1705
:1028E000C1F080E2810F883048F4177081E0012E3A
:1028F00001C0880F0A94EAF70E940413C83000F55B
:1029000081E09D2F977001C0880F9A95EAF70E9489
:102910000B1370E060E0802F0E942214C83038F65C
:10292000D77081E001C0880FDA95EAF70E9404139E
:10293000BECFC77081E001C0880FCA95EAF7F6CF15
:1029400070E060E0802F0E942214B1CFB0E0A0E0E0
:10295000ECEAF4E10C94162EEC018AE0A82E288112
:10296000222309F4A6C0213009F049C089818130B1
:1029700079F48E010E5F1F4F8A8160E570E0893324
:1029800011F070E060E00E942214E8012196E7CF88
:10299000823039F48E010E5F1F4F8A810E94B2137C
:1029A000F4CF833039F48E010E5F1F4F8A810E946D
:1029B0001513EBCF843011F02196E8CF2A812296AF
:1029C00090E080E0AE014F5F5F4F2053330B2A3021
:1029D000310550F00097D1F2EFE9FFE03197F1F7C0
:1029E00000C000000197F6CFA89EB001A99E700D0F
:1029F0001124C901860F971F2981EA01E3CFE22F35
:102A0000F0E0EF5BF94FB490822F8695869586951E
:102A100090E0FC01EF5CF94FE4902770F12C022E5E
:102A200002C0F594E7940A94E2F7F1E0EF22FF2464
:102A3000FC01EF5DF94FC490D12C022E02C0D59459
:102A4000C7940A94E2F731E0C322DD24FC01EF5E73
:102A5000F94F049110E002C0159507952A95E2F709
:102A600001701127E114F10419F081EE0E94B213F4
:102A7000C114D10419F086EE0E94B21370E060E038
:102A80008B2D0E942214C114D10419F086EE0E94ED
:102A90001513E114F10419F081EE0E9415130115CC
:102AA000110509F473CF70E060E08CE20E942214FB
:102AB0006DCFCDB7DEB7EAE00C94322ECF93DF9323
:102AC000EC010E94AE0B9E01205E310928303105D9
:102AD00010F0209741F40E940B138C2F0E94B21328
:102AE000DF91CF9108950E94FA12F7CFA8E0B0E0ED
:102AF000ECE7F5E10C940E2EDC0114962C912223C8
:102B000009F45FC17C0161E00E945D0D8C01F70159
:102B10008581882319F18091630490916404009762
:102B2000E9F008171907D1F09927F4E0880F991FE9
:102B3000FA95E1F7FC01EA5CFD4F208124602083D7
:102B40008F5C9D4FDC010D931C930E94AD0F109282
:102B5000610461E0C7010E945D0D8C01F701858170
:102B6000882309F4B8C0C80197578038910508F048
:102B7000E6C0D02EFFE0F01708F413C18FEF93E00A
:102B80000E94932D81110DC108E413E0D11038C0CB
:102B9000E4E04E2EAE014F5F5F4F3A0133243A948A
:102BA000D301E42D1D92EA95E9F76801FFEFCF1AF2
:102BB000DF0AC8010E94932D8983882309F4F1C09C
:102BC0008130D1F4580122E0A20EB11CC6010E944E
:102BD000932D582E8A83882309F4E3C08FEF850D47
:102BE0008330E0F4680133E0C30ED11CC5010E94BC
:102BF000932D8B838823D9F1C3010E94A61437C07B
:102C0000011524E0120709F4CCC0C8010E94932DDD
:102C1000811101C0DA940F5F1F4FB8CF8BEF850D84
:102C2000833068F5480143E0840E911CC5010E9481
:102C3000932D8B8364018823D1F0680154E0C50E85
:102C4000D11CC4010E94932D8C83882381F08B8139
:102C50009C818130AFEF9A0710F0982F8827B6E05B
:102C60005B1639F0E7E05E1639F00E9452238601C8
:102C700097CF0E942D23FBCF0E94A722F8CFF4E02C
:102C800065015F12F4CFC5010E94932DB82E680133
:102C900024E0C20ED11CC80103960E94932DBB20D4
:102CA00009F47FC0882309F47CC0482F4150550B9C
:102CB000349EC001359E900D1124AB2DA150BB0B4D
:102CC0008A0F9B1F019798F2EFE9FFE03197F1F728
:102CD00000C00000F7CF680127E5D21A3FEFC31606
:102CE000D10411F008F051C667E272E08C2D0E9409
:102CF0002A0E892B21F5C60164E0880F991F6A9579
:102D0000E1F7FC01EF5CFD4F22812130A1F520911C
:102D1000270230912802232B91F020912902309133
:102D20002A02232B61F020912B0230912C02232BBD
:102D300031F420912D0230912E02232B21F1D70165
:102D400015965C90552009F442C00E35BCE71B0770
:102D500029F10F35ECE71E0741F00D35FCE71F07A1
:102D6000A1F5809100018823C9F01092000180E054
:102D70000E94481316C0223011F720912B02309187
:102D80002C02232BE1F2FC01EA5CFD4F20812E7F17
:102D900020838F5C9D4F0E94AD0FD1CF81E0809347
:102DA00000018091C201877061F0D70115968C9166
:102DB000882339F080916C0482FF03C082E00E9476
:102DC000820A2896E2E10C942A2E5524539480918D
:102DD0000001882309F442C5480120EE821A9108B7
:102DE0003090ED018091BF01382A80916204382A29
:102DF00038E08316910408F0DBC098012770332770
:102E000081E090E001C0880F2A95EAF7552009F487
:102E1000CCC0382AD7018D919C910E94E70921E00E
:102E200030E0F90102C0EE0FFF1F8A95E2F7FE8342
:102E3000ED8320914F043091500438872F836090A8
:102E4000980170909901212CE22DF0E0EE0FFF1F08
:102E5000EE5FFC4FC080D180C114D10409F4D2C40C
:102E6000311005C0D60112968C918111DEC0F60199
:102E7000838190E02D813E8182239323892B09F465
:102E8000D4C08085982F977009F487E038E08316C6
:102E9000910408F0A7C0552009F4A0C08695817060
:102EA000882309F4C2C0D601AD90BC900A151B0559
:102EB00019F4552009F4B9C0EF81F885CE16DF0664
:102EC00009F4B3C0D6011D96ED91FC91309721F025
:102ED0008081882309F4A9C0632DC6010E94B90628
:102EE000882309F4A2C00A151B0509F079C501154C
:102EF000110509F47BC0511079C0412C81E0A61462
:102F0000B70409F080E080FF90C080E00E94481381
:102F1000D0925004C0924F0481E080934C04F6019B
:102F2000858180934A0441100DC0AB2859F08081FF
:102F300091819C0124503109213A310508F059C092
:102F40000E943305D6011696AD90BC90C5019A95A6
:102F500081159F4110F4E0EEBE2277247394C501E1
:102F600001978F339E4708F0712CD6011996ED9189
:102F7000FC911A97309731F01B966D917C9181E00E
:102F800009957822772071F0F601868197810E9459
:102F9000AE0B80934B04C501F8E08F16910460F5E9
:102FA0000E9468060E94420F2EC08095382232CFC0
:102FB000552009F410C410939901009398010E94C0
:102FC0001B056093460470934704809348049093D4
:102FD000490410924E0410924D041CCF82FB8827A6
:102FE00080F95ECF552009F181705ACF452C81E0E0
:102FF0008ACF0E941513A6CF0497813A910548F411
:103000008A2D0E945D05442009F428C40E94420FC5
:10301000C8CE0E94420F8FE39CE90197F1F700C0F0
:1030200000008A2D0E94B213EECF23940DCFFC0135
:10303000208131810217130709F009C4511009C416
:1030400010924C0480E00E94481308C490E080E095
:1030500046C4F9014485558566857785C9010E9476
:10306000E805D60115968C9181FF3DC4C6010E94EA
:10307000940F80916304909164040817190709F074
:1030800032C410926404109263042DC406E221EE4F
:1030900041EE6AE17CE7C7010E943A1482CE07E262
:1030A00025EE45EE6BE17CE7F6CF06E221EE40EE41
:1030B00068E17CE7F0CF07E225EE44EE69E17CE7CA
:1030C000EACF06E221EE42EE6CE17CE7E4CF07E2D4
:1030D00025EE46EE6DE17CE7DECF08E221E045EE2D
:1030E0006EE17CE7D8CF80916B04816080936B04A4
:1030F00095C080916C04886080936C048FC080912F
:103100006B048260F3CF80916B048460EFCF809179
:103110006B048860EBCF80916C048160EDCF80916F
:103120006C048260E9CF80916B048061DFCF809175
:103130006B048062DBCF80916B048064D7CF0E94E8
:10314000D70F80916B048068D1CF80916B04886029
:10315000DCCF80916C048260E0CF80916B048E7F25
:10316000C5CF80916C04877FC7CF80916B048D7F22
:10317000BDCF80916B048B7FB9CF80916B04877F2B
:10318000B5CF80916C048E7FB7CF80916C048D7F1A
:10319000B3CF80916B048F7EA9CF80916B048F7D1C
:1031A000A5CF80916B048F7BA1CF0E94D70F809118
:1031B0006B048F779BCF80916B04877FDCCF8091EE
:1031C0006C048D7FE0CF80916B0482FB992790F98E
:1031D00021E0922790FB82F990FB83F987CF8091C1
:1031E0006C04982F909591708E7F892B90FB81F9BC
:1031F00083CF90916B04892F8F7B96FF806476CF6D
:103200000E94D70F90916B04892F97FB87F9805804
:103210006DCF61E08EE090E00E94B12D60916B0473
:1032200070916C0484E090E00E94CF2D0E94D70F33
:10323000B8CD60E0EFCF90916B04892F8F7E94FF23
:10324000806154CF90916B04892F8E7F90FF8160B5
:103250004DCF90916C04892F877F93FF88604CCF6E
:1032600089E20E945D05D2CE89E20E943305CECE6E
:103270000737FCE71F0709F45CC008372CE7120783
:1032800009F45BC0F70187819085009709F485C038
:103290000E9449088C01F701C580B680B2943FE0D6
:1032A000B3228091C201877001F1AC2CCC20F1F0E7
:1032B000812F807F803461F080E2800F8830A8F019
:1032C000812F807E803221F4023078F0BB2069F0BB
:1032D00080916C0482FF09C082E00E94820A809182
:1032E000C2018770AA24A3948111A12CD12ED2945B
:1032F0002FE0D222FBE0FD1508F4C2C0ED2DF0E076
:10330000EC57F64E0C94012EE419E4191A1A1A1A05
:10331000C61AE51A401A401AEA1A541B651B651BA7
:1033200081E00E94990A43E062E081E00E94550A30
:1033300038CD81E00E94750AF6CF82E0FBCF0B35D5
:103340009CE7190741F10C35ACE71A07D1F00A35B3
:103350001C4709F097CF81E01BC00E94D70FEFEF09
:10336000F4E32CE0E150F0402040E1F700C0000021
:103370000E94FB046FEF7FEF90E080E00E94CF2D72
:103380002DC380916C0482FB882780F991E0892706
:103390000E942B0F77CF80E0FBCF858100811181C8
:1033A000882369F0C8010E94F80CD82E682FC80144
:1033B0000E941B0AB8018D2D0E94DB0C69CFC80149
:1033C0000E94E709D82EF6CF212F2F70D22E107F22
:1033D00019F0D29490EFD922CC20B9F0DD2069F019
:1033E00080E2800F883010F0011109C080916204E2
:1033F000D82AD09262040E94420F802F3FC0809151
:103400006104D82AD0926104F6CF802F0E94151350
:10341000DD20B1F180E2800F883010F0011104C08E
:103420008D2D0E94870903C08D2D0E947F090E9467
:10343000420F26C0312F3F70D32E107F103219F06B
:10344000D29480EFD822002349F0013009F47EC0E5
:10345000CC2009F48AC0BB20C9F1CFCF80916C0485
:1034600082FD30C0CC2041F1DD2039F08091620432
:10347000D82AD09262040E94420F80E00E94B213C8
:10348000AA20A9F08091C20180FD11C0F701158228
:103490008695869586950E94990AC7010E947615A1
:1034A0008091C2018695869586950E94750A60E096
:1034B000C7010E945D0D85CC80E00E941513DD20C0
:1034C000F9F2AECFCC2069F1B11004C08D2D0E946D
:1034D0000B13D6CF41E0B41210C01091ED018D2D29
:1034E0008123D81669F20E9427059093EC018093FE
:1034F000EB01D12AD092ED01C3CF55E0B512C0CF78
:103500008D2D0E940B138D2D0E946A098091BF01A1
:103510009D2D9823D91609F4B3CFD82AD092BF0194
:10352000AFCFB1100AC08D2D0E9404138D2D0E94C3
:103530006A098D2D0E94D309A3CF81E0B812A0CFD4
:10354000809162048D2109F49BCFEDCFCC2029F02E
:1035500095E09B1508F494CFB9CFA4E0AB1508F41F
:103560008FCF8D2D0E9404138BCFBB20D1F3093355
:1035700049F4BFEFE7EEF3E0B150E040F040E1F78F
:1035800000C00000802F0E9415137ACF812F8695EE
:103590008695837041F0813079F088EF8D0D84300D
:1035A00008F06ECF41C0C8019370C11002C080E026
:1035B00090E00E94B60564CFC8019370C11002C0AC
:1035C00080E090E00E9491055BCF6C2D802F0E94DF
:1035D000BF0A56CF812F837091F5C11025C0402FAF
:1035E000429546954770440F440F802F8F70042EEC
:1035F00001C0880F0A94EAF720E004FF07C02FE01B
:1036000030E001C0220F4A95EAF7209516951695ED
:103610001370123079F060F43091FD01113039F0FF
:10362000822B83230E94BC0A0E94DB0529CF832BB7
:10363000822BF8CF282B8091FD018227F3CF86952E
:10364000CC2011F0812F8170882371F3402F429597
:1036500046954770440F440F802F8F70042E01C091
:10366000880F0A94EAF720E004FF07C02FE030E05B
:1036700001C0220F4A95EAF720951695169513700A
:10368000123069F050F43091FE01113029F0822B94
:1036900083230E94520AC8CF832B822BFACF282B78
:1036A0008091FE018227F5CF1F70CC2039F0812F49
:1036B0000E94990A802F0E940B13B6CF802F0E9480
:1036C0000413812F0E94750AAFCF023FB9F170F445
:1036D000003FD9F0013F91F0CC2009F468C0BB2035
:1036E00009F462C0802F0E94B21357CF033F69F1E3
:1036F000043F91F780916C0482FD32C0812F8F715D
:10370000CC2001F10E94990A48CFCC2091F024E00E
:103710002B1508F442CF1F7181E090E0012E01C00B
:10372000880F0A94EAF79091FE0189270E94520AB5
:1037300034CF35E03B1508F430CFEDCF812F8F71BA
:10374000CC2001F30E94750A28CF80E0CC2071F3D1
:103750001F7181E0012E01C0880F0A94EAF7E6CFBD
:10376000CC20B9F08091C2018770843049F40E9466
:10377000CC09812F8F710E94750A0E94DB0597CEBC
:1037800044E063E04B15C8F3812F8F710E94A50AB6
:10379000F4CF54E05B1520F40E94CC0964E0F4CF30
:1037A00081E00E94820AE9CF812F8F71ABCFBB20CD
:1037B00079F0093349F48FEF97EEA3E08150904000
:1037C000A040E1F700C00000802F0E941513E5CE55
:1037D000812F8F71B7CF809198019091990108172F
:1037E000190781F4109299011092980110924604E1
:1037F00010924704109248041092490410924E040B
:1038000010924D0480914F0490915004009731F133
:10381000A8E08A16910408F00ACC632D0E94B9062C
:1038200081111CC081E00E944813F801E851FC4757
:10383000E730F10508F057C0E05EF34E0C94012E1E
:1038400055185B1846184F18611867186D185520E1
:1038500029F0DC0118968C9185FFF4CBC8019755AF
:103860008F3F910509F008F7F801FF2744E0EE0FBC
:10387000FF1F4A95E1F79F012F5C3D4F6901D7017A
:1038800015969C911597EA5CFD4F808190FB80F91D
:10389000808315968C91882309F4DBCB0E94270541
:1038A00090930B0280930A02F60182818F5F8283DC
:1038B0008091610490916204892B83838091ED0152
:1038C00084834681578166857785C6010E94E80515
:1038D000D60115968C9181FDB9CB902F812F9093B5
:1038E000630480936404F7018581882309F44FC041
:1038F00010926004C8019057839708F035C084E0A7
:1039000090E00E949B2D90936C0480936B04F801CF
:10391000E150F047E232F10508F0E5CBEE56F34E08
:103920000C94012EAD182219B5187F188318B918F8
:103930008718BD18C91893181B199718CD189B180C
:10394000D118F9189F18D5180019A518DB18E31815
:103950008B18C1188F18C518A918DF18EF18091986
:1039600019197918B11829190631FCE71F07D9F47C
:10397000809162048A7A91E009F490E090939A0130
:10398000882309F46DCC85E36CCC512C20CA063118
:103990002CE7120709F06CCC80919A01882309F476
:1039A00063CC85E362CC07373CE7130709F4B8CC56
:1039B00082E008374CE7140709F4B3CC03303CE746
:1039C000130709F4D7CC08F0BACC01155CE715074A
:1039D00009F4C3CC01301C4709F054CC0E94DD121D
:1039E000412CA114B10409F402CB87CAB0E0A0E0D5
:1039F000ECEFFCE10C94192E8091BC01807F09F062
:103A000051C08091BB01882309F44CC0E091D204DD
:103A100089E0D82E809189048E1709F443C00E2FB7
:103A200010E0ED9DF0011124E657FB4F84818823BF
:103A3000F1F1D09EE001D19ED00D1124FE01E65798
:103A4000FB4F91818091B701981331C09081809193
:103A5000B60198132CC08581811129C0E280F380C2
:103A60008091B8019091B901E81AF90A60E086EBFB
:103A700091E00E945D0D0E943F0EE816F906B8F431
:103A80008091BC018F7080618093BC01C057DB4F77
:103A900088818F708061888386EB91E00E94761523
:103AA0000E94DD09CDB7DEB7E7E00C94352EF801B2
:103AB0003196E770AFCFA8E1B0E0E1E6FDE10C940C
:103AC000112E8C0186E0F801DE01539601900D92D3
:103AD0008A95E1F7F801F480E58086EB882E81E095
:103AE000982E8091BA0181112AC0F11003C0FF24E1
:103AF000F3941CC0EE20F9F0C8010E94340DF82E9A
:103B00008823C9F089E0F801A6EBB1E001900D929D
:103B10008A95E1F78091BA01813031F48091B60144
:103B20009091B7010E94270D0E94F61C8F2D689678
:103B3000EFE00C942D2EC8010E947615D8CFC280DC
:103B4000D380B090BB018091B8019091B90136014A
:103B5000681A790ABB2009F41FC15080A18060E077
:103B600086EB91E00E945D0D0E943F0E681679067B
:103B700008F0BCC0FF2009F4BACF8091BC01382FF7
:103B8000307F2091B701F8019181311160C0FE2C86
:103B900029131DC02091B6019081291318C04091AE
:103BA000BD015091BE01278130854217530779F43A
:103BB000E11046C08F7080618093BC0186EB91E07C
:103BC0000E9476158091BC01F8018683AFCFE11089
:103BD00037C06A2D852D0E9480036A2D852D0E9495
:103BE0008003E82E8111A2CF5B8AAC8A8B899C89E5
:103BF0000E94270D292F22952F70243058F49F7092
:103C0000223080F0992391F0F8019681907F71F431
:103C1000FE2C8CCF2A50223068F0C8010E94761505
:103C2000EB2CF6CF992311F0882391F3805E883036
:103C3000A0F7EECF803F60F3815F833070F7E8CF6D
:103C40008091BC0181608093BC01F12C6FCF29135E
:103C50001EC02091B6019081291319C04091BD0169
:103C60005091BE01278130854217530781F4E1103E
:103C70000EC08683C8010E94761589E0F801A6EB84
:103C8000B1E001900D928A95E1F7FB2C4FCFC8016E
:103C90000E94340D882309F44ECFEE2009F44BCF57
:103CA0008091BC018032B8F02091B6013091B7010B
:103CB0003B872A87DD86CC869091BA019E871F8636
:103CC000888B8091BD019091BE019A8B898BCE012A
:103CD0000A960E94761589E0F801A6EBB1E0019002
:103CE0000D928A95E1F70E94F61C01CF8091BC01EC
:103CF000982F907F51F486EB91E00E94761589E031
:103D0000F40111928A95E9F7A0CFFF2009F4EFCED4
:103D10002091B701F801918129131AC02091B601B1
:103D20009081291315C04091BD015091BE0127819A
:103D300030854217530761F4E1100AC08683C80139
:103D40000E94761589E0F40111928A95E9F79DCFDA
:103D5000C8010E94340D882309F4EDCEEE2009F449
:103D6000EACE8091BC01803208F4B5CF2091B60133
:103D70003091B7013A832983DC82CB829091BA01DA
:103D80009D831E828F838091BD019091BE01998792
:103D90008887CE0101969DCF60E086EB91E00E947E
:103DA0005D0D0E943F0E6816790608F0A8CFFF202F
:103DB00009F49DCEFE2CEE2009F4BDCE9091B70102
:103DC000F8018181981336C09091B60180819813D3
:103DD00031C02091BD013091BE01878190852817A7
:103DE000390741F58091B8019091B901C81AD90AF3
:103DF000F8ECCF16D104A8F49091BC0190FD11C04D
:103E0000907F79F08091BC01F8018683903F31F07A
:103E1000982F907F905F8F70892B8683C8010E94B6
:103E2000761589E0F801A6EBB1E001900D928A9534
:103E3000E1F77CCEC8010E94340D81114CCF8091F6
:103E4000BC0181608093BC01C8010E9476156ECED2
:103E5000A2E1B0E0EEE2FFE10C941C2E0A871B8782
:103E60002C873D874E875F87688B798B8A8BCE0145
:103E70000A960E945B1D81112AC089E0FE013A96D4
:103E8000DE01119601900D928A95E1F78E858823C7
:103E9000F1F02091890430E0C901019687709927DB
:103EA0004091D2044817190659F199E0929FD00128
:103EB000939FB00D1124A657BB4FFE013196019080
:103EC0000D929A95E1F7809389040E94DD0919E02B
:103ED0008091D204909189048917F9F0819FC001E3
:103EE000112486579B4F0E945B1D8823B1F080915F
:103EF000D20490E00196877099278093D204E8CF8E
:103F00000E94D70F109289041092D20489E0E6EB48
:103F1000F1E0DF011D928A95E9F76296E4E00C94E6
:103F2000382EEF92FF920F931F93CF93DF938091E0
:103F3000C703882361F0E0918E038DE0F82E809115
:103F4000C703E81748F01092C70310928E03CDB74D
:103F5000DEB7E6E00C94362EEE24E394EE0EE0920B
:103F60008E03CE2FD0E0EF9DF0011124E853FC4FDB
:103F700084818823E9F087819085892B21F48185CC
:103F80009285019659F40081118122813381448107
:103F900055816681778180850E94281FFC9EF001F3
:103FA000FD9EF00D1124E853FC4F14821092610421
:103FB000EE2DC5CF10923B0410923A0410920B01E3
:103FC00080913904809338040E9407070E94911F52
:103FD0000895B0E0A0E0EFEEFFE10C940F2EC09149
:103FE000380497E0992E01E010E02DE0322E34E005
:103FF000432E55245394809139048C1309C00E9498
:10400000911F0E940707CDB7DEB7E1E10C942B2E7C
:10401000D0E0FE01EE0FFF1FE05DFB4F808191813C
:10402000989ED001999EB00D1124A157BC4F1496B3
:104030002C911497211159C06090C703E8ECF3E06C
:1040400030E020E0812C5D01261508F04CC0E384AF
:10405000F484D501CD90DC906FEF7FEF712C472D6C
:1040600050E0DA01AA0FBB1FAC0DBD1D0D90BC9135
:10407000A02D109731F0EA16FB0609F4BA017394EB
:10408000EECF6F3F7607A9F1D80102C0AA0FBB1F80
:104090006A95E2F78A2AB801072C02C0660F771FDB
:1040A0000A94E2F7AB01415051098416150601F557
:1040B000329EF001339EF00D1124E853FC4F989E80
:1040C000D001999EB00D1124A157BC4F12962D918D
:1040D0003C91139730872783448210821182928704
:1040E000818715965C920E94D9062196C37083CF72
:1040F00014822F5F3F4F3D96A7CFAEE1B0E0E3E8DB
:10410000F0E20C940E2E4B8B5C8B6D8B7E8B8F8B29
:10411000988F911110926104188A198A1A8A86E080
:10412000FE017396DE011A9601900D928A95E1F7D1
:1041300080916C0482FF24C00E9427052091C00159
:104140003091C101821B930B8838934158F18091C3
:10415000C20182FB882780F991E0892780FF03C094
:1041600082E00E94820A0E9427052091EB01309193
:10417000EC01821B930B8838934110F00E945F0979
:104180008E85811111C00A851B852C853D854E8544
:104190005F85688979898A890E94281F6E96E2E185
:1041A0000C942A2E80E0DACF61E0CE010A960E94BC
:1041B0005D0D6C018F8540E5C4164CE7D40651F4C3
:1041C0008823F1F081E080930B0181E090E080FD95
:1041D000DACFE4CF61E5C6166CE7D60629F488236A
:1041E00079F00E94DA1FF1CF72E5C7167CE7D70697
:1041F00039F4882329F080910B01882319F3F1CF3A
:104200008FE8E82E83E0F82E512CB12CA12C8824C5
:104210008394912CCE0101969A8F898F44244394E4
:10422000F7014081518166246A94762C20E0822F28
:1042300090E0FC01EE0FFF1FE40FF51F608171811C
:104240006115710539F0C616D70609F0C3012F5F55
:104250003C01EDCF10E0FFEF6F167F0609F443C07D
:10426000F701448110910B01812F411180E0182F3B
:104270001170F701358086819F85992309F4F5C077
:10428000112309F4F2C0311014C0A401062C01C09E
:10429000440F0A94EAF7842B868380918C039091D3
:1042A0008D03C29730F462E370E070938D036093E6
:1042B0008C03C40102C0880F991F2A95E2F7019769
:1042C000F70126812817190671F480913A0490911C
:1042D0003B04009709F44AC00E940C05C39708F4F8
:1042E00045C0F7014482512AFFEFAF1ABF0A27E009
:1042F000E20EF11C38E0A316B10409F091CF8F85CE
:10430000882309F412C1552009F40FC10E94270522
:1043100090933B0480933A048091C703883010F552
:1043200091E0980F9093C70399E0FE013A96DE0161
:10433000119601900D929A95E1F74DE0849FC0018E
:10434000112488539C4F29E0FE013196DC01019035
:104350000D922A95E1F72FEF3FEFFC01328721877D
:10436000D486C38681E05826852D31CF80913804CC
:1043700050913904982FF0E0E0E0851314C0909339
:104380003804EE15FF0509F4AECF90E0FC01EE0F06
:10439000FF1FE05DFB4FB182A082019683709927D9
:1043A00080933904A0CF682E712CF301EE0FFF1F0C
:1043B000E05DFB4F20813181F7E0F29FD001F39F58
:1043C000B00D1124A157BC4F2D913C9111973E8FF8
:1043D0002D8F40E020E030E0E32FF0E0EE0FFF1FF4
:1043E0006D8D7E8DE60FF71F208031802114310402
:1043F000E1F0F7010190F081E02DFC8FEB8F20E0E0
:1044000005C02616370609F4412F2F5FE22FF0E092
:10441000EE0FFF1F6B8D7C8DE60FF71F60817181A2
:104420006115710571F73F5FD7CF4423D9F0FD01C6
:10443000231708F4F7014482EE16FF0621F4909347
:104440003804142F50CF981307C0AE17BF0721F4BC
:10445000C3010196982F937093012F5F3F4F822FD6
:1044600083708BCFF0E0E0E0F7CF90E0311020C018
:10447000B40102C0660F771F2A95E2F79B01215015
:1044800031092817390731F4442309F44CC0C50118
:104490000E94D906C401062C01C0880F0A94EAF7CD
:1044A000982F9095F701868189238683132D1BCF42
:1044B000AC01062C02C0559547950A94E2F7BA0163
:1044C000617077279C012150310982239323892B26
:1044D00031F5672B21F1F70182819381892BE1F07E
:1044E000E98DFA8D27E011922A95E9F70E942705B8
:1044F000282F8B839C8334E03D83F7018281938155
:10450000782F8887998709811A813C8144E05E81F0
:104510006F81892F0E94281FF7011582BBCFF42FCE
:10452000F1703F2EB7CF312EB5CF909138048091E6
:104530003904981719F00E94E91F14CF0E94911FA7
:1045400010923B0410923A040E9407070BCFA6E09A
:10455000B0E0EDEAF2E20C941C2E8C0190931E0266
:1045600080931D02011580E21807C0F4802F0E947D
:104570001513C8010E94AE0B9801205E3109283046
:10458000310518F00115110531F40E940413269627
:10459000E4E00C94382E0E94F312F9CF80EF898367
:1045A0008A830E9427058160682F9C838B834981C1
:1045B0005A817C8181E090E00E947D20E8CF0F93BA
:1045C0001F93CF93DF938C01EB0167E272E08C2F96
:1045D0000E942A0E892B71F4DD27C15EDD4F888190
:1045E000F801128218828330F1F048F4813059F0DA
:1045F000823081F0DF91CF911F910F910895843027
:10460000B9F08530B9F78091270290912802009780
:1046100089F306C08091290290912A02009799F3AC
:104620000E94A722E7CF80912B0290912C02F6CF17
:1046300080912D0290912E02009791F720912702F0
:10464000309128028091290290912A02211531058A
:10465000F1F2009729F7C901E3CFA6E0B0E0E3E368
:10466000F3E20C941E2E90931E0280931D0281157E
:1046700020E2920730F40E945E152696E2E00C9448
:104680003A2E80EF89838A830E9427058160682FF4
:104690009C838B8349815A817C8181E091E00E94D7
:1046A0007D20EBCFCF93DF93EC010E942D23CE0131
:1046B0000E94A722DF91CF9108950F931F93CF936C
:1046C000DF938C01862F67E272E00E942A0E892B0D
:1046D000B1F4C0912702D0912802209781F0F8010F
:1046E0008281833051F4CE010E945223CE010E9478
:1046F0005223CE010E94522302C08430D0F7DF91B2
:10470000CF911F910F9108950F931F93CF93DF9334
:104710008C01EB0167E272E08C2F0E942A0E892B3C
:1047200009F05CC0FE01FF27D80112968C91129708
:10473000E15EFD4F8130B9F415969C9192FF02C065
:1047400080830AC090FFFCCF82E0808380912902A1
:1047500090912A020097B9F4809127029091280243
:104760000097E1F110C08230B9F515968C9182FD69
:1047700028C080FD0BC083E0808380912B02909144
:104780002C02009701F10E942D2328C084E0808331
:1047900080912D0290912E020097A9F78091270217
:1047A000909128020097F9F00E94522380912902EB
:1047B00090912A02009739F7809127029091280260
:1047C000E2CF85E0808380912702909128020097B4
:1047D00029F00E945223F0CF86E08083DF91CF91B1
:1047E0001F910F9108958091290290912A02B8CFCC
:1047F000A6E0B0E0EEEFF3E20C941C2E0E94270539
:104800008C018091EE019091EF018017910781F06A
:1048100019821A820E942705682F49815A81792FAF
:1048200080E090E00E947D201093EF010093EE0164
:104830002696E4E00C94382EAAE0B0E0E2E2F4E23E
:104840000C94132E8E010F5F1F4F8AE0F801119216
:104850008A95E9F78EE4E82E81E0F82E6801AA2413
:10486000A394B12C2FE5822E21E0922EF7018191A5
:104870007F018F3F09F440C0F894E82FE295EF7074
:10488000F0E021A18F70A50102C0440F551F8A9549
:10489000E2F7CA01922F982B91A392A180958923C8
:1048A00082A3789400C0E8E5F1E0712C31E0219119
:1048B0002F3F09F44AC0A22FA295AF70B0E09096A6
:1048C0008C9190E02F7002C0959587952A95E2F71C
:1048D00080FD3BC0832F782A330F8E169F0639F751
:1048E000F701319780818F3F11F00E943F0750EA16
:1048F0005A95F1F7F6017082FFEFCF1ADF0A48E50B
:10490000E41641E0F40609F0B1CF4AE050E0B80106
:1049100083EF91E00E94592E892BD9F08AE0F801AB
:10492000A3EFB1E001900D928A95E1F781E08093C9
:10493000F2010E9427059093F1018093F00110E0AD
:10494000812F2A96EDE00C942F2E80E0C4CF10E04A
:104950001FC01091F201112391F38091F001909109
:10496000F1010E940C05059750F34AE050E063EF17
:1049700071E081E192E00E94592E892B41F38AE097
:10498000E3EFF1E0A1E1B2E001900D928A95E1F749
:104990001092F201D5CF1F920F920FB60F921124F1
:1049A0002F933F934F935F936F937F938F939F9337
:1049B000AF93BF93CF93EF93FF93C091E900CF7074
:1049C0008091EC001092E9008091F000877F809345
:1049D000F00078940E9408101092E9008091F00095
:1049E00088608093F000C093E900FF91EF91CF9130
:1049F000BF91AF919F918F917F916F915F914F91F7
:104A00003F912F910F900FBE0F901F9018951F92FE
:104A10000F920FB60F9211242F933F934F935F93F2
:104A20006F937F938F939F93AF93BF93EF93FF9376
:104A30008091E10082FF09C08091E20082FF05C001
:104A40008091E1008B7F8093E1008091DA0080FF0C
:104A500024C08091D80080FF20C08091DA008E7F32
:104A60008093DA008091D90080FF9BC080E189BDEE
:104A700082E189BD09B400FEFDCF81E080937F040F
:104A800080917204811109C00E949F030E943E041C
:104A90008091E20084608093E2008091E10080FFD9
:104AA00017C08091E20080FF13C08091E2008E7FEA
:104AB0008093E2008091E20080618093E200809127
:104AC000D80080628093D80019BC85E080937F0471
:104AD0008091E10084FF29C08091E20084FF25C01D
:104AE00080E189BD82E189BD09B400FEFDCF8091DE
:104AF000D8008F7D8093D8008091E1008F7E8093D5
:104B0000E1008091E2008F7E8093E2008091E200DC
:104B100081608093E20080918004882309F447C07B
:104B200084E080937F0480917F048091E10083FF83
:104B300027C08091E20083FF23C08091E100877F3E
:104B40008093E10082E080937F0410928004809142
:104B5000E1008E7F8093E1008091E2008E7F809360
:104B6000E2008091E20080618093E20042E060E038
:104B700080E00E940C048091F00088608093F00037
:104B8000FF91EF91BF91AF919F918F917F916F9125
:104B90005F914F913F912F910F900FBE0F901F90FB
:104BA000189519BC10927F041092720476CF8091F0
:104BB000E30087FD02C081E0B4CF83E0B2CF7894F8
:104BC0001F920F920FB60F9211248F939F93AF9362
:104BD000BF9380916E0490916F04A0917004B09186
:104BE00071040196A11DB11D80936E0490936F0412
:104BF000A0937004B0937104BF91AF919F918F9176
:104C00000F900FBE0F901F9018951F920F920FB626
:104C10000F9211248F939F93AF93BF9380916D0454
:104C2000811113C080916E0490916F04A091700463
:104C3000B09171044196A11DB11D80936E049093B3
:104C40006F04A0937004B0937104BF91AF919F91D2
:104C50008F910F900FBE0F901F901895A0E3B0E0BA
:104C6000E4E3F6E20C940E2E85B7806885BF85B725
:104C7000806885BF84B7877F84BF0FB6F894A895F6
:104C800080916000886180936000109260000FBE88
:104C900080E890E00FB6F8948093610090936100F3
:104CA0000FBE8DE397E090936F0180936E010E9499
:104CB00018070E94E70E0E945B0E0E949F030E944D
:104CC0003E048091E20084608093E20078948091B9
:104CD0007F04882399F01091E9001F708091EC0007
:104CE00080FFDDC080E8182B1092E9008091E80079
:104CF00083FD0E9408101F701093E90082E084BDBC
:104D000093E095BD9AEF97BD80936E000E94930C3F
:104D1000811102C00E941A0E0EE411E038E5E32E64
:104D200031E0F32ED8018D918D018F3F11F00E945B
:104D30003F07E016F106B1F708E511E02FE5E22E96
:104D400021E0F22EF80181918F018F3F11F00E9436
:104D50003F07E016F106B1F78AE0E1E1F2E0DF019A
:104D6000282F1D922A95E9F7E3EFF1E0DF011D926C
:104D70008A95E9F790E080E00E949B2D853E9E4F4A
:104D800021F40E94930C811163C065EE7EEF90E0E8
:104D900080E00E94CF2D60E082E090E00E94B12D83
:104DA00081E08093FD0161E083E090E00E94B12DFD
:104DB00060E074E184E090E00E94CF2D60E086E046
:104DC00090E00E94B12D60E087E090E00E94B12D5C
:104DD00040E050E0BA0188E090E00E94C32D60E01E
:104DE00083E290E00E94B12D60E08CE090E00E94B0
:104DF000B12D60E08DE090E00E94B12D19821A8201
:104E00001B821C821D821E821F82188648E050E091
:104E100067E170E0CE0101960E94A12D40E050E0D4
:104E2000BA018FE190E00E94C32D80E00E94430C04
:104E30000E941A0E40E050E0BA018FE090E00E941C
:104E4000C32D40E050E0BA0183E190E00E94C32D01
:104E500082E090E00E94932D8093FF0184E090E037
:104E60000E949B2D90936C0480936B040E941C24E1
:104E7000EFEFF6E721E0E150F0402040E1F700C01D
:104E800000000E941C248091110280FF0AC06FEF75
:104E90007FEF90E080E00E94CF2D0E94FB0480E035
:104EA00022CF83E090E00E94932D0E94BC0A81E013
:104EB00091E090936804809367049BE1692E92E0EF
:104EC000792E8E010F5F1F4F80917F04853069F42A
:104ED000B0E1EB2E82E1F82E80917F04853009F459
:104EE00052C00E94D70F0E94DB050E941C24F0E0F4
:104EF000CF2EF2E0DF2EA1E1EA2EA2E0FA2ED701BA
:104F0000F60191918D9122E0EA30F20709F473C025
:104F10009817B9F3E1E1AE2EE2E0BE2E912C2224E7
:104F20002394D5018D905D01F60131906F01381405
:104F300019F1512C442443943824832D8421A1F069
:104F40005BA69CA60E9427059EA78DA72FA691E091
:104F5000882D842109F490E098AB4BA55CA56DA544
:104F60007EA58FA50E947D205394440CF7E05F122C
:104F7000E4CFF6013197808293942AE09212D1CF48
:104F80000E941B053CC080917F04843021F1109267
:104F90006D0488E190E0A0E40FB6F894A8958093A2
:104FA00060000FBEA093600083B7817F846083BFE1
:104FB00083B7816083BF7894889583B78E7F83BFE2
:104FC0000FB6F894A8958091600088618093600086
:104FD000109260000FBE80917E04882309F47CCF7C
:104FE0000E941C24E1E1F2E0819181115BC56E1603
:104FF0007F06D1F771CF98138DCF0E94F82380914F
:105000004D0490914E04892B09F43EC04091420416
:105010005091430460914404709145042FB7F89473
:1050200080916E0490916F04A0917004B09171040E
:105030002FBF841B950BA60BB70B40913E045091DC
:105040003F04609140047091410484179507A607BE
:10505000B707D0F080914D0490914E040E945E15E8
:1050600010924E0410924D04109242041092430488
:10507000109244041092450410923E0410923F0492
:105080001092400410924104C0906304D0906404D4
:10509000C114D10409F180910A0290910B020E947F
:1050A0000C055C01C6010E943F0E8A159B05A0F409
:1050B0008091630490916404992774E0880F991F8C
:1050C0007A95E1F7FC01EA5CFD4F208122FD04C0E6
:1050D0008F5C9D4F0E94AD0F80910B01882301F1E1
:1050E00080913A0490913B040097D1F00E940C0506
:1050F00020918C0330918D032817390788F4909103
:10510000380480913904981709F4D5C00E94E91F2A
:1051100010928D0310928C0310923B0410923A046B
:1051200086E0E8E5F4E0D80101900D928A95E1F778
:1051300090905904A0905A04C0905B04D0905C04F5
:10514000B0905D0410925A0410925B0410925C04BB
:1051500010925D04A11003C0CC2009F445C08091D9
:105160005604909157040E940C059C0190915104A3
:10517000992309F4B5C425313105B0F19F3F19F0E9
:105180009F5F90935104AA2059F00E943A0691E043
:105190001A140CF09FEF899F802D112480935A04DC
:1051A000CC2059F00E943A069FEF1C140CF491E0B9
:1051B000899F802D112480935B0480915A04882359
:1051C00099F080905B04882079F00E945A06882329
:1051D00009F47AC080935A04882D0E945A068823C5
:1051E00009F474C080935B04D11003C0BB2009F4A0
:1051F00043C080915404909155040E940C059C0179
:1052000090915204992309F470C421353105A0F11D
:105210009F3F19F09F5F90935204DD2059F00E9448
:10522000180691E01D140CF09FEF899F802D11242A
:1052300080935C04BB2059F00E9418069FEF1B145A
:105240000CF491E0899F802D112480935D0480915E
:105250005C04882389F080905D04882069F00E94B6
:105260005A068823A9F180935C04882D0E945A066F
:10527000882381F180935D048091590489112CC0A9
:1052800080915A04882311F0A81226C080915B04F3
:10529000882311F0C81220C080915D04882311F08A
:1052A000B8121AC090915C04992319F081E0D912C8
:1052B00014C080E012C00E94911F10923B04109213
:1052C0003A040E9407072CCF81E084CF81E08ACF87
:1052D00081E0C9CF81E0CECF81E080FD13C0809115
:1052E0005A04811170C080915B0481116CC080915F
:1052F0005C04811168C081E090915D04911101C04E
:1053000080E080FD0E94EE0586E0F801A8E5B4E0AB
:1053100001900D928A95E1F70E94DB0590910C02B5
:10532000891721F080930C020E941B0580917F0455
:10533000843009F0C9CD83E08093E9008091E800D2
:1053400082FFC2CD8091E80090E085FF0AC00E94F4
:10535000BE0360E2C62ED12C5801882309F43FC059
:1053600091E08091E8008B778093E800992309F41D
:10537000ABCDC0901B02D0901C028981C114D10416
:1053800009F43BC08E3F09F0A4C08A81833020F02D
:105390008550833008F09DC0EA81EE3008F099C056
:1053A000F0E0EB52F64D0C94012EA12BBB2BC22B3F
:1053B000692A692AFC2B0E2C212C612C662C692A67
:1053C000692A692A6E2C81E09CCF8091F100D50179
:1053D0008D935D01B1E0CB1AD10809F4C1CF809162
:1053E000E80085FDF2CF8091E8008B778093E8009C
:1053F0000E94BE03882399F3B3CF8C3009F4A5C073
:1054000068F5843009F48BC058F4823009F452C036
:1054100008F076C0813009F449C08FEF898359C004
:10542000863009F48FC008F482C08B30B1F78091C8
:105430003C0490913D04892B09F44BC040E250E0BC
:10544000B80182E00E94DF0BEFEFF1EE24E0E150C3
:10545000F0402040E1F700C000001FCD803109F48A
:10546000BCC0C0F48E3009F476C008F471C08091DD
:105470003C0490913D04892B61F1AA80BB80BA2441
:10548000AB24BA24CC80D12C3DE1C316D10408F55D
:10549000750199C0823109F4A5C008F4A1C0833117
:1054A00009F4CAC08E3F09F0B8CF76CF1A8289E0DE
:1054B0008B830FC08A81823009F40AC3833081F064
:1054C000813009F0AACF0E941B059B838C837D83CA
:1054D0006E8340E250E0B80182E00E94DF0BF4CC22
:1054E00080913C0490913D04892B99F3FE01339601
:1054F000D7018D917D0181936A167B06C9F7E9CFAB
:105500008A81823009F089CF6B817C818D819E8177
:105510000E94072E87E290E00E94B12DDACF4C81E5
:105520006B818A810E94AC0C9D838E83D2CF2D81AA
:105530003E813227232732274C816B818A810E944A
:105540006C0CC7CF0E948D0DC4CF80E18A83C1CF80
:105550001A8288EBADCFEA80FB80FE24EF24FE2484
:10556000AC80B12C6801BDE1AB16B10408F0B1CF3D
:10557000C701885B9C4F9601201B310B2A153B0508
:1055800008F0A7CFE8EBEE16F10460F40E94932D2B
:10559000D60114968C93FFEFEF1AFF0A2FEFC21A71
:1055A000D20AE6CFF6011482F6CF48EBE416F104F6
:1055B00038F4200F311FD90114966C910E94B12D3F
:1055C000BFEFEB1AFB0AC701885B9C4F97012A19B2
:1055D0003B092C153D0548F37CCF0E945C0C79CF2C
:1055E00084E0B4CFEA80FB80FE24EF24FE24AC806C
:1055F000B12C6801EDE1AE16B10408F06ACFC70125
:1056000088969601201B310B2A153B0508F061CFC7
:10561000F0E3EF16F2E0FF0660F40E94932DD6014E
:1056200014968C93FFEFEF1AFF0A2FEFC21AD20ADB
:10563000E6CFF6011482F6CFCA80DB80DC24CD24CD
:10564000DC24AC80B12C3DE1A316B10408F041CFBD
:10565000260148E2440E511C80E3C81682E0D806B9
:1056600008F037CF80E392E08C199D098A159B05DD
:1056700008F42FCF80913C0490913D04892BD9F5FB
:10568000F12CE12CC0FE10C0C60187960E94932D1C
:105690009D8189279827892781159C4711F48FEFD1
:1056A0008D83EE24E394F12CC6018A0D9B1D4501E8
:1056B00080FF17C0B1E08B1A910845E0242E312CF1
:1056C0002C0E3D1E280C391CC2018A0D9B1D0E9408
:1056D000932DF101908181159C4719F48FEFD10131
:1056E0008C93F801EE0DFF1D2FEFCF01801B910B66
:1056F0008815990510F076011BC084819581892752
:105700009827892781159C4711F424832583329695
:10571000ECCFE0E3EE16E2E0FE0638F4200F311F96
:10572000D90114966C910E94B12DBFEFEB1AFB0AC0
:10573000C701889697012C193D092A153B0548F3A6
:10574000C8CE88E0EDE0F1E0DE01919601900D9287
:105750008A95E1F780E2D8011D928A95E9F786E003
:10576000898388E0FE01B196DE01159601900D92C5
:105770008A95E1F7AECE84E6898381E08A831B8235
:105780001C82A7CE8C81682F70E0762F66278B81D4
:10579000860F972F911D092E000CAA0BBB0B35E02D
:1057A000880F991FAA1FBB1F3A95D1F7AC01BD0105
:1057B000405E5F4F6F4F7F4F481759076A077B075F
:1057C00008F487CE8436E1E09E07A105B10508F014
:1057D00080CE4536F1E05F076105710520F044E6B3
:1057E00051E060E070E0481B590BBC0168537E4FEC
:1057F000C8010E947A2D6DCE4AE150E06FEF70E053
:10580000CE0107960E94662E80913C048983CA824D
:105810001B8281E08C831D8282E087CE81E090E054
:1058200090931C0280931B0282E390E090931002FD
:1058300080930F020E94270590930E0280930D0221
:1058400048CECD2871F18091110282FBFF24F0F83F
:1058500086958170F82280910D0290910E020E942F
:105860000C058536910530F1FF2021F10E942705B6
:1058700090930E0280930D0280910F02909110027E
:1058800001979093100280930F02892B51F410928C
:105890001C0210921B0281E090E090933D048093E3
:1058A0003C0480913C04898380911B028A8380910F
:1058B0000F02FECD82E390E09093100280930F02DE
:1058C000F0CF10923D0410923C0403CE40E250E031
:1058D0006FEF70E0C8010E94662EFBCDEB81E730D0
:1058E00008F0F7CDF0E0E958F34D0C94012E7E2C32
:1058F000892CA12CD82CF52C1A2D2D2DFE01339698
:105900008EE1DF011D928A95E9F788E089838A8319
:10591000CFCD8C819AE0F92E6E01B1E2CB0ED11C75
:10592000F6012F2D11922A95E9F7B6010E942A0E51
:105930008983F601DE01129601900D92FA94E1F747
:10594000C8CDFC808AE0FE013596DE01919601907B
:105950000D928A95E1F789A19AA10E9430079AA336
:1059600089A38BA19CA10E9430079CA38BA38DA12E
:105970009EA10E9430079EA38DA38FA198A50E948F
:10598000300798A78FA337E08FEF3F1568F04AE004
:10599000F49EB0011124685A7D4F4AE050E0CE01D8
:1059A00081960E94D52D80E089830E94180791CDB1
:1059B0006C812AE0CE018196DC01E22F1D92EA95EE
:1059C000E9F7683008F047C0629FB00111246855BC
:1059D0007D4F4AE050E00E94832D80E089838AE079
:1059E000FE01B196DE011296C1CEFC808AE0FE0176
:1059F0003596DE01919601900D928A95E1F789A581
:105A00009AA50E9430079AA789A7F7E08FEFFF15A4
:105A100068F02AE0F29EB001112468557D4F4AE0FB
:105A200050E0CE0181960E94D52D80E089830E94AE
:105A3000E70E4FCD6C812AE0CE018196DC01E22F8A
:105A40001D92EA95E9F7683030F4629FB0011124A5
:105A500068507D4FBECF8FEFC1CFFC808AE0FE0142
:105A60003596DE01919601900D928A95E1F78BA112
:105A70009CA10E9430079CA38BA3F7E08FEFFF153A
:105A800068F02AE0F29EB001112468507D4F4AE090
:105A900050E0CE0181960E94D52D80E089830E943E
:105AA0005B0E17CDE9BCF9BC09B400FEFDCF8091B7
:105AB000D8008F7D8093D8008091E0008260809331
:105AC000E0008091E00081FDFCCF0E94D70F04CA66
:105AD00087E290E00E94932D1B821C821D8225CDBF
