:100000000C948D030C94AA030C94AA030C94AA03D9
:100010000C94AA030C94AA030C94AA030C94AA03AC
:100020000C94AA030C94AA030C9443250C94072562
:100030000C9441260C94AA030C94AA030C94AA03D2
:100040000C94AA030C94AA030C94AA030C94AA037C
:100050000C94AA030C941B260C94AA030C94AA03D8
:100060000C94AA030C94AA030C94AA030C94AA035C
:100070000C94AA030C94AA030C94AA030C94AA034C
:100080000C94AA030C94AA030C94AA030C94AA033C
:100090000C94AA030C94AA030C94AA030C94AA032C
:1000A0000C94AA030C94AA030C94AA030501090258
:1000B000A10185020901A1000509190129081500FE
:1000C0002501950875018102050109300931158165
:1000D000257F95027508810609381581257F9501D0
:1000E00075088106050C0A38021581257F95017572
:1000F000088106C0C005010980A101850319012AF4
:10010000B700150126B700950175108100C0050CD8
:100110000901A101850419012AA002150126A002E6
:10012000950175108100C005010906A1018506052C
:100130000719E029E71500250195087501810205D9
:1001400007190029EF1500250195F07501810205B9
:10015000081901290595057501910295017503910D
:1001600001C00660FF0961A1010962150026FF00B8
:100170009520750881020963150026FF00952075FA
:10018000089102C005010906A101050719E029E748
:1001900015002501950875018102950175088101F9
:1001A0000507190029FF150026FF0095067508812F
:1001B000000508190129051500250195057501910E
:1001C00002950175039101C0FD377A585A00000469
:1001D000E6D6B4460200210116000000742FE5A304
:1001E000E003FA01795D003D8889C65436C3174F94
:1001F000E4F17CFE7F08FEE19DA178E81400A1FFF8
:10020000A54E16ED28B0D4E246AFB54C5EA92CFB46
:10021000E69ACEFF74ED12A12E87F8E97186174495
:10022000533BA2B27C9A3BDF77F63989081D889947
:100230000289524C8325FDA2E14847F36768578F36
:10024000D25E740BBF84E571B0462DC09BFD506E2D
:10025000B7C441C3114640F3A9FC6609650A74CAD4
:10026000C4E5A65BE4E44C086622A92F2F8A8080AF
:10027000DBD9A6EF6413C2FF11D41971801307F7FD
:100280007420C60DEDF9C928E722190303B47C9345
:10029000E296FF76C64BDAED87A1AB23220D84E60A
:1002A0009B6EC453C18AD386F236E8D2567EDDBC3B
:1002B0001D55402D73437339384556EEA377C4530B
:1002C000BDA666138EF609A5B573F0374C9C676B17
:1002D0008BFA786FBBBC62D8796FF320EED00A67D7
:1002E0004AFCA5A17CBDDC7AB6092418A95CF030D3
:1002F0008A75AFCDDB35EE8FCF15162E806C20EDD5
:10030000CD649BC77908AF7AC2AA6B967B6CC1C9D2
:10031000E718EA3995AC5929BF5DDD9B0ADD63AB6F
:10032000390E49BD57B7BC8F39DFDF6C3CB429C0EB
:100330006961A4EDA6468A9153280420B76C5BB985
:10034000CEAD1956B299158B7B773EA48E82D1D94A
:10035000C1D33AFDA0D2936A0E8E7C6183F46C8D7A
:100360000000000070DDFD7F2A09506D000195033B
:10037000FB070000DEAE769DB1C467FB0200000003
:100380000004595A167C1E001F0020002100220084
:1003900023002B0014001A000800150017001C0091
:1003A000E30004001600070009000A000B00E1004A
:1003B00000001D001B00060019000500E000E2001F
:1003C0000000215200002C0000002A0035002D0002
:1003D0002700260025002400310030002F001300E4
:1003E00012000C00180028002E00340033000F000B
:1003F0000E000D00E500E300380037003600100065
:1004000011002352E400E6000000225200002C00FC
:1004100035003A003B003C003D003E003F0001003B
:10042000010052002A004C000100010001005000B0
:1004300051004F00010001004B0001000000AE0020
:10044000AA00A900A80001000100010000000100AD
:100450000000010000004C00010044004300420085
:100460004100400001000100010001000100010005
:1004700001000100450001000100010001004E00E3
:10048000010052000100010046004D004A004F00EB
:100490005100500000000100000001000100540064
:1004A0005500560001000100010053005F0060008C
:1004B000610057000100010001005C005D005E006A
:1004C000630001004B000100000059005A005B006E
:1004D0006700010063006200000062000000580035
:1004E0000000010001000100010001000100010005
:1004F00001000100010001000100010001000100F4
:10050000010001000100010001004E000100520045
:100510000100010046004D004A004F00510050000C
:1005200000000100000001000100010001000100C5
:100530000100010001000100010052000100010062
:10054000010001000100500051004F0001000100B6
:100550000100010000000100010001000100010094
:100560000100010000000100000001000000010086
:100570000100010001000100010001000100007CF8
:100580000100010001000100010001000100010063
:100590000100010001000100AE00010001000100A6
:1005A0000100010001000100010001000000010044
:1005B0000000010009025B00030100A0FA09040029
:1005C000000103010100092111010001224400077B
:1005D000058103080001090401000203000000096D
:1005E00021110100012222000705820320000107DA
:1005F00005030320000109040200010300000009B3
:10060000211101000122B600070584032000011218
:1006100001000200000008EDFE01000001010203DC
:10062000011C037600690061006C003A0066003628
:1006300000340063003200620033006300000012E7
:100640000366004100750078004C004900430045F6
:100650000000001003620072006F0063006B006115
:100660000072000000040309040000000000000004
:10067000000000000000000000000000000000007A
:10068000000000000000000000000000007E0F00DD
:10069000D4FFFFFFC700000078000000000000004A
:1006A000002A2B28000000000000000000000000CD
:1006B0000000000029000000002C1E34202122240C
:1006C000342627252E362D3738271E1F202122239A
:1006D0002425263333362E37381F0405060708092C
:1006E0000A0B0C0D0E0F10111213141516171819F2
:1006F0001A1B1C1D2F3130232D3504050607080950
:100700000A0B0C0D0E0F10111213141516171819D1
:100710001A1B1C1D2F3130354C0011241FBECFEF8A
:10072000DAE0DEBFCDBF11E0A0E0B1E0E6E7FDE535
:1007300002C005900D92AE36B107D9F724E0AEE6BF
:10074000B1E001C01D92A13CB207E1F70E946A2608
:100750000C94B92E0C940000482F2091C004909165
:10076000770459E0291302C080E0089530E0529FD9
:10077000F001539FF00D1124E858FB4F818168135D
:1007800006C08081481303C085818111EECF2F5FA1
:100790003F4F2770E7CFE8EDF0E080818E7F8083C8
:1007A0001092E2001092DA001092E100A0EEB0E0A8
:1007B0008C9181608C9380818F77808319BCA7EDA9
:1007C000B0E08C918E7F8C9380818F7E808310929D
:1007D000600408952091E4003091E50085E6909151
:1007E000EC0090FF06C09091E80090FF06C080E00A
:1007F00008959091E80092FDFACF90916D049923AD
:1008000091F0953091F09091EB0095FD10C04091E2
:10081000E4005091E5002417350709F381509A014F
:10082000F1F684E0089582E0089583E0089581E080
:10083000089580916F0487FF13C08091E80082FFC4
:1008400006C08091E8008B778093E80004C0809117
:100850006D048111F2CF089580916D048823D9F33E
:100860008091E80080FFF8CF8091E8008E77ECCF90
:10087000982F9093E900242F762F50E0891731F0BC
:100880007091EC002091ED005091F00021FD07C027
:100890009F5F973071F78093E90081E00895309170
:1008A000EB003E7F3093EB003091ED003D7F3093C5
:1008B000ED003091EB0031603093EB007093EC0071
:1008C0002093ED005093F0002091EE0027FDE0CF43
:1008D00080E00895B0E0A0E0E0E7F4E00C94642E3E
:1008E000C8EDD0E088818F7E8883E7EDF0E08081DD
:1008F0008160808384E082BF81E08093600488818E
:100900008E7F888302EE10E0F80110821092DA00E8
:1009100081EEC82ED12CF601108288818F778883D2
:1009200088818068888388818F7D888319BC109234
:100930006D0410926E0410926C0410926B0490EE91
:10094000E92EF12CF70180818B7F80838881816083
:10095000888342E060E080E00E943804F6018081F4
:100960008E7F8083F80180818160808380818860B0
:100970008083F70180818E7F808388818061888376
:10098000CDB7DEB7E8E00C94802EFC0180917504B1
:100990009091760486179707A0F06115710529F4E8
:1009A0009091E8009E779093E80090E061157105C2
:1009B00051F4911108C08091E80082FF35C080E0B9
:1009C0000895BC01F2CF80916D048823C9F1853070
:1009D000C9F18091E80083FD31C08091E80082FD7B
:1009E000EACF8091E80080FFE1CF2091F300809171
:1009F000F200322F282F6115710519F028303105CA
:100A000058F091E02830310509F090E02091E8009D
:100A10002E772093E800CACF81918093F100615036
:100A200071092F5F3F4FE7CF80916D04882341F01C
:100A3000853041F08091E80083FFBDCF81E00895CB
:100A400082E0089583E0089580916204089587E725
:100A500097E7909301088093000888E19AE00FB629
:100A6000F894A895809360000FBE90936000FFCF2C
:100A70009C014FB7F89480915C0490915D04A09123
:100A80005E04B0915F044FBF821B930B08952FB794
:100A9000F89460915C0470915D0480915E04909183
:100AA0005F042FBF08952FB7F89480915C04909154
:100AB0005D04A0915E04B0915F042FBF08959091F2
:100AC0000C019923D1F09091590497FF16C0E82F9B
:100AD000E695E695E695EE31D8F4F0E0E858FE4F5D
:100AE000282F277081E090E001C0880F2A95EAF74F
:100AF00080959281892382830895E0E7F1E09281D5
:100B0000891301C01282319691E0E637F907B9F7EF
:100B1000089590910C019923C1F09091590497FF89
:100B200014C0E82FE695E695E695EE31F8F4F0E08E
:100B3000E858FE4F877021E030E001C0220F8A950F
:100B4000EAF78281822B82830895A2E7B1E0EFEF7A
:100B500090E02D91821751F0EF3F19F4211101C05F
:100B6000E92F9F5F9630A9F7EF3F09F408950E2E05
:100B7000000CFF0BE059FE4FE6CFA3E0B0E0E3EC42
:100B8000F5E00C946A2E20915704309158042817F0
:100B90003907A1F09093580480935704E0915504CD
:100BA000F0915604309751F024E029839B838A8387
:100BB0000084F185E02DCE01019609952396E2E0AF
:100BC0000C94862EA3E0B0E0E8EEF5E00C946A2EDB
:100BD000209153043091540428173907A1F09093C1
:100BE000540480935304E0915504F09156043097D7
:100BF00051F023E029839B838A830084F185E02DD3
:100C0000CE01019609952396E2E00C94862EE091A0
:100C10005504F0915604309729F00190F081E02DB1
:100C20000995089580E008954115510511F0FA01E4
:100C3000099508950E94530520914804211104C08C
:100C400020914904222321F0909345048093440489
:100C500020914A04211104C020914B04222321F049
:100C60009093430480934204E0915504F09156041C
:100C7000309749F082E0809346040680F781E02DAA
:100C800086E494E0099508958091410480FD16C0A2
:100C900081FD16C082FD16C0809140048823A1F01A
:100CA000883280F428E0829FC001112468E270E05D
:100CB0000E94392E862F672B39F0089582E008951F
:100CC00084E0089588E0089581E0089580914104CA
:100CD00080FD14C081FD14C082FD16C080913F04C8
:100CE000882381F08E3180F420E5829FC001112499
:100CF0006EE170E00E94392E862F089584E10895F8
:100D000088E2089588E0089580E50895282F35EB5E
:100D10002303C001112497FF04C080589109892F33
:100D2000089580589F4FFBCFCF93DF93EC01409104
:100D300034045091350460913604709137042FB714
:100D4000F89480915C0490915D04A0915E04B09150
:100D50005F042FBF841B950BA60BB70B843F9140FC
:100D6000A105B10518F58091340490913504A09146
:100D70003604B09137048093300490933104A093EB
:100D80003204B093330484EF91E0A0E0B0E08093AC
:100D90002C0490932D04A0932E04B0932F04D09391
:100DA0003C04C0933B04DF91CF9108950E94470516
:100DB0006093300470933104809332049093330431
:100DC00082E390E0A0E0B0E0E2CFFC0184818623E2
:100DD00051F492819923B9F06923808583FF05C07E
:100DE00081E061110FC080E00895892F8F70929586
:100DF0009F70982B862F8F7062956F70682B81E0A3
:100E00009613F1CF089581E0FDCFBC0140912604F7
:100E100080912704942F891301C00895292F30E071
:100E2000F901EE0FFF1FE25EFB4F0190F081E02D14
:100E3000E617F70799F487E0869FF001879FF00D8A
:100E40001124E358FC4F81E084839413E6CF2F5F95
:100E50003F4F237033272093260408952F5F3F4F81
:100E6000922F9370D8CF10927B0310927A03EDE704
:100E7000F3E08581811102C014821682379683E0E7
:100E8000E53BF807B1F70895E1E3F2E090E080E098
:100E900069E973E240EC53E22BE133E27783668346
:100EA0005187408733872287978786870196709678
:100EB0008830910599F7089581152CE7920741F440
:100EC00020912A0430912B04232B11F490E080E030
:100ED000089580E00895F894E82FE295EF70F0E02F
:100EE00031A1282F2F7081E090E001C0880F2A9552
:100EF000EAF7982F9095932391A392A1892B82A32F
:100F0000789408959091590492FF10C041E0282FE1
:100F10002471243009F040E031E0282F2871283076
:100F200009F030E0431711F02CE0822793FF10C046
:100F300041E0282F2471243109F040E031E0282FCE
:100F40002871283109F030E0431711F02CE0822796
:100F500030915A0430FF10C051E0282F2171213008
:100F600009F050E041E0282F2871283009F040E0D6
:100F7000541711F029E0822731FF10C041E0282FDB
:100F80002171213109F040E031E0282F287128310A
:100F900009F030E0431711F029E0822794FD877EA5
:100FA000089582389105B9F1B0F48133910509F4BF
:100FB0007DC048F48932910509F46DC08A329105EB
:100FC00009F479C008958533910509F45FC0893328
:100FD000910509F10895833E9105D9F138F4803ED9
:100FE000910529F1823E910579F10895863E91059A
:100FF000D9F1873E910509F43EC0843E910541F543
:1010000020915A0421FF24C08091590484FD19C005
:1010100087EE90E0089520915904237009F056C09E
:1010200020915A0423FF14C089E290E00895209192
:10103000590420FD38C030915A0430FF09C024FF04
:101040003FC090E080E008952091590422FDF7CF41
:1010500008952091590422FD36C030915A0430FD84
:1010600035C024FDEECFF4CF2091590423FFF0CFFB
:1010700024FDE7CFCDCF2091590423FD2AC0309124
:101080005A0431FFEECF84EE90E008952091590488
:1010900025FDCACF08952091590425FD1DC020913A
:1010A0005A0423FFD5CF89E390E008952091590495
:1010B00026FD15C008952091590426FD13C00895FA
:1010C00083EE90E0089582EE90E0089580EE90E047
:1010D000089586EE90E0089585E390E008958AE211
:1010E00090E0089581E390E0B3CF1F93CF93DF9317
:1010F0000E94D107EC01C11580E5D807E8F5C115BC
:1011000080E4D80708F09BC0C03ED10518F5CD3C5F
:10111000D10508F081C0C83AD10570F4C53AD105AF
:1011200008F072C0C130D10511F118F0C430D105FA
:10113000F0F4D0E0C0E01BC0C33CD105D0F7C85AE2
:10114000D0E0CC0FDD1FC85EDE4F0990D881C02DE6
:10115000D4640DC0C11580E2D80708F0CBC0C1151A
:1011600081E0D80708F05AC0C83ED10510F7CE017B
:10117000DF91CF911F910895C03682E5D80718F509
:10118000C03482E5D80708F069C0C03282E5D807CC
:1011900008F05DC0C11582E5D80708F493C02C2F74
:1011A0002695269580E2289F900111248C2F83702C
:1011B000C1E0D0E002C0CC0FDD1F8A95E2F7C22B60
:1011C000D32BDD68D4CFC03A82E5D80760F4C038AD
:1011D00082E5D80708F457C0CF71D0E0DC2FCC27C8
:1011E000C46FD06AC4CFC03C82E5D80708F45EC0A3
:1011F000C03E82E5D80708F09CCFDC2FCC27CC2757
:10120000DF71C06FD06AB3CFC55AD0E0CB5EDE4F7E
:10121000C881D0E0D064ABCFD065A9CF8D2F0E941C
:101220008207182FCE0199270E94D107C12FD0E045
:10123000DC2FCC27CC27DF71C82BD92B98CFCE0140
:1012400099270E94D107CC27DF70D06AF5CFCF71E4
:10125000D0E0DC2FCC27C16FD06A89CF2C2F269508
:101260002695277080E2289F900111248C2F83708F
:10127000C1E0D0E002C0CC0FDD1F8A95E2F7DC6848
:10128000C22BD32B74CF2C2F26952695277080E266
:10129000289F900111248C2F8370C1E0D0E002C000
:1012A000CC0FDD1F8A95E2F7DA68EACF8C2F8F71B9
:1012B0000E948207C82FD0E0DC2FCC27CC27DF711B
:1012C000D06255CF8C2F8F710E94820755E0D69542
:1012D000C7955A95E1F7CF70D0E0DC2FCC27282FA7
:1012E00030E084FF05C044E0220F331F4A95E1F748
:1012F000D069C6CF8D2F8F710E948207182FCE0123
:1013000099270E94D107C12FD0E0DC2FCC27CC2712
:10131000DF71906291CF8091ED01882331F01092BE
:10132000ED011092EC011092EB0108959091ED0106
:10133000292F282361F0809589238093ED0188234C
:1013400039F00E9453059093EC018093EB010895CE
:1013500090E080E0F8CF982F909580914F048923FA
:1013600080934F040895982F90958091500489237D
:10137000809350040895CF9380915004C0914F04FE
:10138000C82B8091ED01882309F10E94530520911B
:10139000EB013091EC01821B930B8838934110F0E4
:1013A0000E948B098091ED01C82B80910C0188234C
:1013B000B1F08091590487FF12C08EE1EAE7F1E0B5
:1013C00090E0815080F491110E948B098091380443
:1013D00080958C2390913904892BCF91089586E0D4
:1013E000E2E7F1E0EDCF2191222359F39F5FE9CFAE
:1013F0001092C2011092C1011092C0010895909103
:10140000BF01292F282321F0809589238093BF01D4
:1014100008958091C00490917704981301C00895B5
:101420008F5F8770FACF292F9A3078F5873068F56B
:1014300090E037E0239F800D911D1124682F677085
:1014400023E0969587952A95E1F7FC01EE0FFF1FA3
:10145000E80FF91FE556FE4F50E040E080E0219193
:1014600030E0062E02C0369527950A94E2F72170E7
:101470003327042E01C0220F0A94EAF7822B4F5F14
:101480005F4F4330510559F7089580E00895292FA3
:101490009A3098F5873088F590E037E0239F800DEB
:1014A000911D1124282F277041E001C0440F2A9577
:1014B000EAF723E0969587952A95E1F7FC01EE0F70
:1014C000FF1FE80FF91FE556FE4F30E020E070E007
:1014D0005191DF011197CB01022E02C0969587959D
:1014E0000A94E2F7817081958527842385278C9360
:1014F0002F5F3F4F2330310559F708958093FE0148
:1015000008959091FE0121E030E0F90101C0EE0F55
:101510008A95EAF7D90102C0AA0FBB1F6A95E2F7C4
:10152000EA2B01C0220F4A95EAF7892F8E23E81390
:1015300005C0292B822F0E947E0A08952095292319
:10154000F9CF21E030E001C0220F8A95EAF720951B
:101550008091FE0182230E947E0A08959091C2012B
:10156000809589238093C201282F277069F48917F9
:1015700059F090915A0492FF07C0869586958695FA
:101580000E94A10A0E94F809089521E030E001C0FC
:10159000220F8A95EAF78091FE01822B0E947E0A33
:1015A000089590915A0492FF10C098E0899F90018D
:1015B0001124622B6093C2010E94C50A0E94530548
:1015C0009093C1018093C00108950E94C50A0895B7
:1015D0008093FD010895662309F45DC08D3C41F4BC
:1015E0000E9466068195809349040E941A06089518
:1015F0008E3C19F40E946606F6CF8F3C31F40E94AF
:101600006606819580934804F0CF803D19F40E94CE
:101610006606F8CF893D29F40E94440680934A0467
:10162000E4CF8A3D21F40E9444068195F7CF8B3D9B
:1016300031F40E944406819580934B04D6CF8C3DB3
:1016400019F40E944406F8CF9FE2980F983070F486
:10165000815D990B21E030E001C0220F8A95EAF705
:1016600080914704822B80934704BFCF8D3D31F496
:1016700080914104816080934104B7CF8E3D21F475
:10168000809141048260F7CF8F3D09F0AECF809109
:1016900041048460F0CF8D3CD9F49091490497FFC8
:1016A0001DC01092490480914804811106C08091A8
:1016B0004904811102C010923F0480914A048111B3
:1016C00094CF80914B04811190CF109240048DCF24
:1016D0008E3CD9F49091490419161CF39FE2980F9F
:1016E000983008F03FC0815D990B21E030E0A901FE
:1016F00002C0440F551F8A95E2F7CA018095909168
:101700004704892380934704CECF909148048F3CAF
:1017100029F497FFE3CF10924804C5CF803D19F418
:101720001916CCF3DBCF90914A04893D29F41916A0
:10173000ACF610924A04B7CF8A3D19F497FFCECF8A
:10174000F8CF8B3D39F490914B0497FFC7CF10929F
:101750004B04A9CF8C3D09F0C1CF90914B041916D1
:10176000B4F3BCCF8D3D31F4809141048E7F8093E2
:10177000410499CF8E3D21F4809141048D7FF7CFB4
:101780008F3D09F090CF809141048B7FF0CF9C0179
:101790003A9521153F4150F5FC01EE27F170BC014F
:1017A00066277270AC01442754709C012227387060
:1017B00094FF0EC080E0EF2B09F080E1672B09F069
:1017C0008062452B09F08064232B89F0806808959E
:1017D00081E0EF2B09F480E0672B09F08260452B54
:1017E00009F08460232B19F08860089580E0089543
:1017F0000F931F93CF93DF938B01EA0190916D04B8
:10180000943061F58093E9008FEF9091E80081506A
:1018100095FD06C095ED9A95F1F700008111F5CF81
:101820008091E80085FF1AC00E94EA03811111C06F
:101830008091E80085FD06C08091E8008E77809356
:10184000E800F2CFF80181918F018093F100219798
:1018500079F78091E8008E778093E800DF91CF914F
:101860001F910F91089543E050E0BC0184E00E9475
:10187000F80B089546E050E0BC0184E00E94F80BAC
:10188000089540E250E0BC0184E00E94F80B089506
:10189000CF93DF93EC0148E050E0BC0181E00E946F
:1018A000F80B88E0FE01A3E6B4E001900D928A9562
:1018B000E1F7DF91CF910895CF93C82F6FEF81119A
:1018C0006AE484E290E00E94FD2D6FEFC11165E2B1
:1018D00085E290E00E94FD2D6FEFC1116DE086E280
:1018E00090E00E94FD2DCF910895CF93DF93C8E43F
:1018F000D3E060E0CE010E94FD2D2196C11584E069
:10190000D807B9F7DF91CF9108951F93CF93DF9355
:10191000962F8430E8F46A30D8F44730C8F4632F47
:10192000122FC42FD0E0CC0FDD1F2EE0929FC00DF0
:10193000D11D11249CE8899FC00DD11D1124CE0119
:1019400088960E94FD2D612FCE0189960E94FD2D63
:10195000DF91CF911F91089584E290E00E94DF2DE6
:101960008A3489F485E290E00E94DF2D853259F4B3
:1019700086E290E00E94DF2D91E08D3009F090E04A
:10198000892F8170089580E0FCCF0F931F93CF9330
:10199000DF93843030F56A3020F5473010F5C42FDE
:1019A000D0E0CC0FDD1F2EE0629FC00DD11D1124B1
:1019B0003CE8839FC00DD11D1124CE0188960E9462
:1019C000DF2D082F10E0102F0027CE0189960E94EE
:1019D000DF2D9801282BC901DF91CF911F910F9125
:1019E000089590E080E0F8CF20911B0230911C0216
:1019F000232BA1F4703F39F4603F81F480911D02E4
:101A000090911E0208957A3048F4673038F484309B
:101A100028F4462F672F0E94C50C089590E080E0BF
:101A20000895CF92DF92FF920F931F93CF93DF938E
:101A30006C010091FE018091FD01082BC3E0D0E014
:101A400010E0FC2EC8010C2E02C0959587950A94D3
:101A5000E2F780FD0CC02197A0F7F12C8F2DDF91CC
:101A6000CF911F910F91FF90DF90CF900895B60115
:101A70008C2F0E94F40C0E947508019761F3EECF41
:101A8000CF93DF93EC010E94110DBE010E94F40C74
:101A90000E947508DF91CF910895FC0124812223D3
:101AA000F1F087819085009789F00E9475089295E2
:101AB0009F709630B1F078F49250923080F4803F6D
:101AC00019F058F4883E58F481E00895808191819E
:101AD0000E94400DECCF9A50F0CF843FA9F380E0F4
:101AE0000895883E88F3813FD1F7EECFA6E0B0E0BD
:101AF000ECE7FDE00C94692EFC018781908500974E
:101B0000E9F4CF0126E0DE01119601900D922A95AD
:101B1000E1F7FC01258189819A81222399F06623CE
:101B200089F00E94110D182F682F89819A810E94D7
:101B3000470A69817A81812F0E94F40C2696E3E09E
:101B40000C94852E0E94130A182FF3CFAEE1B0E05B
:101B5000ECEAFDE00C94602EC0902A04D0902B0497
:101B600081E090E090932B0480932A04B12CA12C67
:101B7000812C7501912C1AC0F801EE0DFF1DEE0F9E
:101B8000FF1FEC57FC4F25913491402F692D882D74
:101B90000E94850C0F5F1F4F0730110569F787E022
:101BA000E80EF11C9394EAE09E1619F010E000E0B4
:101BB000E3CF8394F6E4AF0EB11C84E08812D9CF52
:101BC0001A8219821C821B821E821D8218861F8225
:101BD00088EC90E09A87898708E512E04AE050E0B7
:101BE000B801CE0101960E94212E065F1F4F083AD0
:101BF000E2E01E0799F77E01FBE0EF0EF11C8AE0A0
:101C0000F70111928A95E9F74AE050E0B801C7015F
:101C10000E94212E065F1F4F083FF2E01F07A1F729
:101C20007E0185E1E80EF11C8AE0F70111928A95A8
:101C3000E9F78FEF9FEF9A8F898F87E08E8F4AE0C9
:101C400050E0B801C7010E94212E065F1F4F0834E3
:101C5000F3E01F07A1F7D0922B04C0922A046E96DE
:101C6000ECE00C947C2E80E00E945C0C60E087E24B
:101C700090E00E94FD2D0E94A60D0E94750C81E04F
:101C80000E945C0C0895883080F49B01982F8AE0B4
:101C9000989FB0011124685A7D4F4AE050E0C90175
:101CA0000E94CF2D90E080E008958FEF9FEF089580
:101CB000AAE0B0E0EEE5FEE00C946A2E9C013755F8
:101CC0002F3F310509F068F4BE016F5F7F4F0E941E
:101CD000430E892B31F489859A852A96E2E00C948B
:101CE000862E88EC90E0F9CFAAE0B0E0EAE7FEE0CB
:101CF0000C94622E02E013E088EFE82E82E0F82ECA
:101D000097E0B92E21E0C22E23E0D22EAA24A3947C
:101D10004AE050E0B701CE0101960E94CF2DF801B4
:101D20003896DF018B2D1D928A95E9F789819A817A
:101D3000D80111969C938E938F8112968C93129753
:101D40008D8113968C931397888514968C93149792
:101D5000898515968C9315978B819C8117969C93FA
:101D60008E93169718961C9218978A8587FF3CC009
:101D70001E961C921E921D9780FF03C0D8011896D4
:101D8000AC9281FF04C0F80190859260908782FF39
:101D900007C0D80118969C911897946018969C9348
:101DA00083FF04C0F80190859860908784FF07C086
:101DB000D80118969C911897906118969C9385FF6E
:101DC00004C0F801808580628087FAE0EF0EF11C84
:101DD000015F1F4F88E4E81683E0F80609F098CF0A
:101DE0002A96EAE00C947E2EF801D686C586C4CFEA
:101DF000AAE0B0E0EEEFFEE00C94642EE1EBF2E03E
:101E000080E5DF011D928A95E9F7EDE7F3E088E3CD
:101E1000DF011D928A95E9F781EBC82E82E0D82E6A
:101E20007F0108EA12E0F701D182C0824AE050E067
:101E3000B801CE0101960E94CF2D88E0FE013196B7
:101E4000D60101900D928A95E1F789859A85D7018F
:101E500013969C938E931297BAE0CB0ED11CE7E0B9
:101E6000EE0EF11C065F1F4F083FF2E01F07D9F688
:101E70002A96E8E00C94802E90915A0492FB222737
:101E800020F9281779F080FB92F990935A04609119
:101E9000590470915A0484E090E00E941B2E82E065
:101EA0000E94AE0A089580910C01882359F1809117
:101EB000590487FF27C00E94BB098093790140E243
:101EC00050E063EC71E088E791E00E94A52E892B39
:101ED000C1F080E2E8E7F1E0A3ECB1E001900D92FF
:101EE0008A95E1F7E0915504F0915604309749F056
:101EF00086E0809378010480F581E02D88E791E009
:101F0000099508950E94BB098093700148E050E054
:101F100063EE71E080E791E00E94A52E892B89F3A2
:101F200088E0E0E7F1E0A3EEB1E001900D928A9540
:101F3000E1F7E0915504F0915604309711F30280D7
:101F4000F381E02D80E791E0DBCFCF93DF93EC01CD
:101F50004A855B856E857F850E9414068B810E9471
:101F6000AB098C810E94B3090E94530F86E0FE01E9
:101F700011928A95E9F7DF91CF910895CF93DF937E
:101F8000EC018D8181FD17C082608D8380914F04AB
:101F90009B81892B80934F04809150049C81892BD5
:101FA000809350040E94530F488559856E857F8524
:101FB000CE010E94140610925204109251048D8199
:101FC00080FD03C0CE010E94A50FDF91CF9108953F
:101FD0001092500480910C01882339F180915904AA
:101FE00087FF23C0EAE7F1E08EE1DF011D928A95C9
:101FF000E9F790E080E00E94E20590E080E00E9436
:10200000BD0510924F040E94530F86E0E6E4F4E011
:10201000DF011D928A95E9F710923F041092400467
:10202000109241040E941A060895E2E7F1E086E06A
:10203000DCCFAAE2B0E0EFE1F0E10C94692EEFE62C
:10204000F4E08091F100819384E0E737F807C9F765
:1020500080917004833009F47FC008F5813009F461
:1020600056C0823009F4C0C08091E80083FFFAC0F6
:1020700080916F04909170049A3008F0F3C0E92FBA
:10208000F0E0EB5BFF4E0C944D2E05112B1132113D
:102090002B1132118311A5113211AF12BC128A30EB
:1020A00009F491C08B3009F474C08930E9F680914D
:1020B0006F048132C9F68091730490917404009783
:1020C00011F0029789F68091E800877F8093E800FD
:1020D0008091E80082FF3BC08091F3009091F20074
:1020E000892798278927029731F48091F100813060
:1020F00011F0863021F48091F10080936204809188
:10210000E8008B778093E8000E941904ADCF80919E
:102110006F04813A09F0A8CF8091E800877F80930F
:10212000E8008091730490917404892B61F060E061
:1021300090E080E070E00E94C5048091E8008B7719
:102140008093E80091CF68E083E694E0F3CF80913C
:102150006D048111BDCF88CF80916F04813A09F061
:1021600083CF8091730490917404892B09F07CCF04
:102170008091E800877F8093E8008091E80080FFED
:10218000FCCF80910C018093F1008091E8008E7764
:10219000B9CF80916F04813209F066CF80917304CA
:1021A00090917404892B09F05FCF8091E800877FBC
:1021B0008093E8000E9419048091710480930C01BF
:1021C0000E94E80F51CF80916F04813209F04CCF0B
:1021D0008091E800877F8093E8000E941904809135
:1021E00072048093610440CF80916F04813A09F0BA
:1021F0003BCF8091E800877F8093E8008091E800E2
:1022000080FFFCCF80916104BECF803889F0823896
:1022100049F5809173048F70873020F58093E90031
:102220008091EB0085FB882780F91092E90006C0B9
:1022300080916B0490916C04911182609091E80000
:10224000977F9093E8008093F1001092F1008091C5
:10225000E8008E7727C0282F2D7F21F48823A1F056
:10226000823029F18091E80083FF0AC08091E80064
:10227000877F8093E8008091EB0080628093EB0081
:10228000AA96E3E00C94852E80917104813051F779
:10229000933009F080E080936C041092E900809103
:1022A000E800877F8093E8000E941904DBCF8091CB
:1022B00071048111F2CF809173048F702FEF280F7A
:1022C000263080F68093E9002091EB0020FFE5CFD7
:1022D000933031F48091EB0080628093EB00DDCF8E
:1022E0009091EB0090619093EB0021E030E001C011
:1022F000220F8A95EAF72093EA001092EA00809173
:10230000EB008860EACF8111ADCF109171041F7787
:102310008091E3008078812B8093E3008091E80036
:10232000877F8093E8000E9419048091E80080FF75
:10233000FCCF8091E30080688093E30083E011117B
:1023400001C082E080936D048DCF8058823008F008
:1023500089CF20917104309172042C3DA3E03A079B
:10236000A1F583E08A838AE289834FB7F894DE017E
:10237000139620E03EE051E2E32FF0E05093570047
:10238000E49120FF03C0E295EF703F5FEF708E2F66
:1023900090E0EA30C0F0C7968D939D932F5F243173
:1023A00059F74FBF8091E800877F8093E8006AE289
:1023B00070E0CE0101960E94C5048091E8008B7701
:1023C0008093E8004FCFC096E7CF8091730490913F
:1023D0007404432F55274330510509F44FC078F555
:1023E0004130510509F445C08BE590E0E4EBF5E0A0
:1023F0004230510509F036CF2091E800277F209325
:10240000E80020917504309176048217930708F450
:102410009C0140E02115310509F06EC041116CC0EE
:102420008091E80082FDC9CF80916D04882329F254
:10243000853019F28091E80083FFF2CFBECF4132A0
:10244000510509F44AC04232510509F00BCF8330DF
:10245000910508F007CFFC01EE0FFF1FEE59FE4F6C
:102460000190F081E02D815A9E4FDC018C9190E02B
:1024700020C082E190E0EFE0F6E0BECF33272130CC
:102480003105D9F078F022303105F9F023303105EB
:1024900009F0E8CEE1E2F6E0E4918E2F90E0E1E28F
:1024A000F6E007C0E5E6F6E0E4918E2F90E0E5E681
:1024B000F6E0009709F4D6CE9FCFE3E5F6E0E4918D
:1024C0008E2F90E0E3E5F6E0F4CFEFE3F6E0E49161
:1024D0008E2F90E0EFE3F6E0ECCF8330910508F02B
:1024E000C1CE880F991FFC01E859FE4F0190F08181
:1024F000E02D89E090E080CF80916D04882309F47D
:102500005CCF853009F459CF8091E80083FD55CF29
:102510008091E80082FD84CF8091E80080FF7ACF2F
:102520008091F3009091F20089279827892721153F
:10253000310519F08830910550F041E0089709F015
:1025400040E08091E8008E778093E80063CF44916B
:102550004093F1003196215031090196E8CF80383F
:1025600009F080CE8091E800877F8093E800809119
:102570006E048093F1006BCE811174CE10917104C2
:10258000123008F06FCE8091E800877F8093E800DA
:1025900010936E040E9419041123D1F084E08093FB
:1025A0006D0442E061EC81E00E94380442E261EC9B
:1025B00084E00E94380442E261EC82E00E94380428
:1025C00042E260EC83E00E94380480916D044ACEC0
:1025D0008091E30087FDE2CF81E0E1CF0E94E80F28
:1025E0002FEF84E39CE0215080409040E1F700C051
:1025F000000088E19AE00FB6F894A89580936000F7
:102600000FBE90936000FFCF882321F00E94AB099A
:102610000E94530F0895882339F090914F04892B1D
:1026200080934F040E94530F0895882321F00E9445
:10263000B3090E94530F0895882339F090915004F4
:10264000892B809350040E94530F0895882381F1B1
:102650009CEF980F913A28F40E945F050E94530F57
:10266000089590E2980F983050F4877091E001C07F
:10267000990F8A95EAF7892F0E94B309EFCF9BE55E
:10268000980F933028F490E080E00E94E2050895CE
:1026900098E5980F9B3128F490E080E00E94BD05FA
:1026A000089593E3980F933118F460E00E94EB0AC9
:1026B0000895FF920F931F93CF93DF9300913D04F2
:1026C00010913E040115110509F451C010923C040B
:1026D00010923B041092380410923904D8011696D7
:1026E000CD91DC91AE015A9541155F4108F4D07E41
:1026F000D1E0C11101C0D0E0F82ED8011996ED91BA
:10270000FC911A97309731F01B966D917C9180E087
:102710000995D823DD2339F08CEF8C0F813A68F5C9
:102720008C2F0E945F05E0913D04F0913E044081B2
:102730005181FF2071F0808584FD0BC080913A04A7
:10274000882339F091E09A01215031092F333E4717
:1027500008F090E090FF03C0CA010E9494060E9416
:10276000530F10923E0410923D0410923A04C80197
:10277000CDB7DEB7E5E00C94832E0E94530F8C2F6B
:102780000E942613D0CFCF938823B9F1C82F8CEFA6
:102790008C0F813AA0F580910C01882301F1809182
:1027A000590487FF1CC0EC2FE695E695E695F0E00E
:1027B000E858FE4F828190E04C2F477021E030E0D6
:1027C00002C0220F331F4A95E2F782239323892BFD
:1027D00079F08C2F0E945F050E94530F09C0E2E739
:1027E000F1E08191C817A9F381E0E837F807C9F74C
:1027F0008C2F0E9489050E94530FCF91089580E28B
:102800008C0F883068F4C77021E030E001C0220FDF
:10281000CA95EAF780915004822B80935004EBCF45
:10282000EBE5EC0FE33040F4F0E0EB5EFE4F80812F
:1028300090E00E94E205E1CFE8E5EC0FEB3150F4C7
:10284000F0E0EE0FFF1FE85EFE4F808191810E9455
:10285000BD05D3CF83E38C0F833178F661E08C2FF5
:102860000E94EB0ACACF1F93CF93DF93182FEB017F
:102870000E94C313209739F4812F0E942613DF9101
:10288000CF911F9108958FE99FE00197F1F700C064
:1028900000002197EFCFB0E0A0E0E1E5F4E10C9477
:1028A000642E6B01C42FD22FFC0185818823A9F0EF
:1028B00040934E040E94530590934D0480934C0422
:1028C000C77081E001C0880FCA95EAF70E941C1307
:1028D000CDB7DEB7E8E00C94802E10914E041413AF
:1028E00039C080914C0490914D040E9438057C01C0
:1028F000C6010E94580EE816F90660F5C0E2CD0F39
:102900001D17C1F080E2810F883048F4177081E014
:10291000012E01C0880F0A94EAF70E941513C830EF
:1029200000F581E09D2F977001C0880F9A95EAF716
:102930000E941C1370E060E0802F0E943314C830A6
:1029400038F6D77081E001C0880FDA95EAF70E9467
:102950001513BECFC77081E001C0880FCA95EAF792
:10296000F6CF70E060E0802F0E943314B1CFB0E06A
:10297000A0E0EDEBF4E10C94622EEC018AE0A82ECD
:102980002881222309F4A6C0213009F049C0898199
:10299000813079F48E010E5F1F4F8A8160E570E00F
:1029A000893311F070E060E00E943314E801219651
:1029B000E7CF823039F48E010E5F1F4F8A810E946B
:1029C000C313F4CF833039F48E010E5F1F4F8A8119
:1029D0000E942613EBCF843011F02196E8CF2A8194
:1029E000229690E080E0AE014F5F5F4F2053330BA3
:1029F0002A30310550F00097D1F2EFE9FFE031972E
:102A0000F1F700C000000197F6CFA89EB001A99E83
:102A1000700D1124C901860F971F2981EA01E3CFA8
:102A2000E22FF0E0E756F94FB490822F8695869515
:102A3000869590E0FC01E757F94FE4902770F12C60
:102A4000022E02C0F594E7940A94E2F7F1E0EF2237
:102A5000FF24FC01E758F94FC490D12C022E02C08C
:102A6000D594C7940A94E2F731E0C322DD24FC0137
:102A7000E759F94F049110E002C0159507952A9582
:102A8000E2F701701127E114F10419F081EE0E94C0
:102A9000C313C114D10419F086EE0E94C31370E071
:102AA00060E08B2D0E943314C114D10419F086EE1E
:102AB0000E942613E114F10419F081EE0E942613FE
:102AC0000115110509F473CF70E060E08CE20E94FB
:102AD00033146DCFCDB7DEB7EAE00C947E2ECF93E2
:102AE000DF93EC010E94C70B9E01205E3109283064
:102AF000310510F0209741F40E941C138C2F0E9486
:102B0000C313DF91CF9108950E940B13F7CFAAE072
:102B1000B0E0EDE8F5E10C945B2EDC0114962C910D
:102B2000222309F464C17C0161E00E94760D8C01CE
:102B3000F7018581882321F1E0915104F09152043D
:102B40003097F1F00E171F07D9F0FF27E830F10595
:102B500008F069C0A4E0EE0FFF1FAA95E1F7EF5C53
:102B6000FD4F85818460858311830083CF010E949E
:102B7000BE0F10924F0461E0C7010E94760D8C01D8
:102B8000D70115968C91882309F4BBC0C8019757CB
:102B90008038910508F0E9C0D02EBFE0B01708F4E6
:102BA00016C18FEF93E00E94DF2D811110C108E460
:102BB00013E0D1103BC0E4E04E2E9E012F5F3F4F4B
:102BC000390133243A94D301E42D1D92EA95E9F7B3
:102BD0006801FFEFCF1ADF0AC8010E94DF2D898349
:102BE000882309F4F4C08130D1F4580122E0A20E08
:102BF000B11CC6010E94DF2D582E8A83882309F458
:102C0000E6C08FEF850D8330F8F4680133E0C30E22
:102C1000D11CC5010E94DF2D8B838823F1F1C301F4
:102C20000E94B7143AC0F0E0E0E09BCF0115E4E069
:102C30001E0709F4CCC0C8010E94DF2D811101C01C
:102C4000DA940F5F1F4FB5CF8BEF850D833068F59A
:102C5000480143E0840E911CC5010E94DF2D8B8347
:102C600064018823D1F0680154E0C50ED11CC40171
:102C70000E94DF2D8C83882381F08B819C818130A1
:102C8000AFEF9A0710F0982F8827B6E05B1639F05F
:102C9000E7E05E1639F00E948E23860194CF0E94F1
:102CA0006923FBCF0E94E322F8CFF4E065015F12B5
:102CB000F4CFC5010E94DF2DB82E680124E0C20EBA
:102CC000D11CC80103960E94DF2DBB2009F47FC0F0
:102CD000882309F47CC0482F4150550B349EC00115
:102CE000359E900D1124AB2DA150BB0B8A0F9B1F5D
:102CF000019798F2EFE9FFE03197F1F700C000008B
:102D0000F7CF680127E5D21A3FEFC316D10411F0BF
:102D100008F077C667E272E08C2D0E94430E892B83
:102D200021F5C60164E0880F991F6A95E1F7FC015F
:102D3000EF5CFD4F22812130A1F5209127023091D7
:102D40002802232B91F02091290230912A02232B73
:102D500061F020912B0230912C02232B31F4209131
:102D60002D0230912E02232B21F1D70115965C9074
:102D7000552009F442C00E35BCE71B0729F10F3579
:102D8000ECE71E0741F00D35FCE71F07A1F5809128
:102D900000018823C9F01092000180E00E945913BD
:102DA00016C0223011F720912B0230912C02232BD8
:102DB000E1F2FC01EA5CFD4F20812E7F20838F5CD5
:102DC0009D4F0E94BE0FD1CF81E080930001809182
:102DD000C201877061F0D70115968C91882339F074
:102DE00080915A0482FF03C082E00E94AE0A2A96B4
:102DF000E1E10C94772E55245394809100018823AF
:102E000009F464C5380120EE621A71083090ED01B2
:102E10008091BF01382A80915004382A38E0631627
:102E2000710408F0F9C098012770332781E090E021
:102E300001C0880F2A95EAF7552009F4EAC0382A1C
:102E4000D7018D919C910E94130A21E030E0F90195
:102E500002C0EE0FFF1F8A95E2F7FA87E9872091FB
:102E60003D0430913E043E832D8340919801509162
:102E7000990158874F8352E0C52E53E0D52EB12CCF
:102E8000A12CB8E0AB16B10409F4F5C4311005C0AB
:102E9000D60112968C918111FCC0F601838190E0DD
:102EA00029853A8582239323892B09F4F2C08085F2
:102EB000982F977009F487E038E06316710408F0E2
:102EC000C5C0552009F4BEC086958170882309F4D9
:102ED000E0C0D6018D909C900815190519F4552075
:102EE00009F4D7C0ED81FE81EC15FD0509F4D1C0D0
:102EF000D6011D96ED91FC91309721F080818823B9
:102F000009F4C7C0632DC6010E94E506882309F4B1
:102F1000C0C00815190509F09FC50115110509F470
:102F200099C0511097C0412C81E0EF81F8858E1631
:102F30009F0609F080E080FFACC080E00E9459133A
:102F4000D0923E04C0923D0481E080933A048FE029
:102F50008A9DF0018B9DF00D1124EE5FFC4F858161
:102F60008093380441100EC08114910459F080817F
:102F700091819C0124503109213A310508F06DC03E
:102F80000E945F058FE08A9DF0018B9DF00D11245A
:102F9000EE5FFC4FC680D780C6019A9581159F4190
:102FA00010F420EED22299249394C60101978F3316
:102FB0009E4708F0912C8FE08A9DD0018B9DB00D2B
:102FC0001124AE5FBC4F1996ED91FC911A97309782
:102FD00031F01B966D917C9181E0099598229920A2
:102FE000A9F08FE08A9DF0018B9DF00D1124EE5F1A
:102FF000FC4F868197810E94C70B80933904C601DC
:1030000048E06416710460F50E9494060E94530F14
:103010002EC08095382214CF552009F415C4109382
:103020009901009398010E944705609334047093BE
:103030003504809336049093370410923C04109228
:103040003B04FECE82FB882780F940CF552009F152
:1030500081703CCF452C81E06ECF0E94261392CF29
:103060000497813A910548F48C2D0E9489054420EB
:1030700009F42CC40E94530FAACE0E94530F8FE371
:103080009CE90197F1F700C000008C2D0E94C3134A
:10309000EECF9FEFA91AB90AAFE0CA0ED11CF1CE4C
:1030A000DC012D913C910217130709F009C451105E
:1030B00009C410923A0480E00E94591307C490E0BA
:1030C00080E049C4F9014485558566857785C90145
:1030D0000E941406D60115968C9181FF40C4C6014A
:1030E0000E94A50F8091510490915204081719076E
:1030F00009F035C4109252041092510430C406E213
:1031000021EE41EE6AE17CE7C7010E944B145FCEDD
:1031100007E225EE45EE6BE17CE7F6CF06E221EE15
:1031200040EE68E17CE7F0CF07E225EE44EE69E18E
:103130007CE7EACF06E221EE42EE6CE17CE7E4CFE9
:1031400007E225EE46EE6DE17CE7DECF08E221E006
:1031500045EE6EE17CE7D8CF809159048160809381
:10316000590495C080915A04886080935A048FC096
:10317000809159048260F3CF809159048460EFCF2D
:10318000809159048860EBCF80915A048160EDCF23
:1031900080915A048260E9CF809159048061DFCF29
:1031A000809159048062DBCF809159048064D7CF2D
:1031B0000E94E80F809159048068D1CF8091590412
:1031C0008860DCCF80915A048260E0CF80915904FE
:1031D0008E7FC5CF80915A04877FC7CF80915904D5
:1031E0008D7FBDCF809159048B7FB9CF80915904D9
:1031F000877FB5CF80915A048E7FB7CF80915A04D4
:103200008D7FB3CF809159048F7EA9CF80915904CF
:103210008F7DA5CF809159048F7BA1CF0E94E80FAD
:10322000809159048F779BCF80915904877FDCCFA1
:1032300080915A048D7FE0CF8091590482FB9927B9
:1032400090F921E0922790FB82F990FB83F987CFD8
:1032500080915A04982F909591708E7F892B90FBC6
:1032600081F983CF90915904892F8F7B96FF8064D9
:1032700076CF0E94E80F90915904892F97FB87F928
:1032800080586DCF61E08EE090E00E94FD2D60914E
:10329000590470915A0484E090E00E941B2E0E9411
:1032A000E80F95CD60E0EFCF90915904892F8F7E84
:1032B00094FF806154CF90915904892F8E7F90FFA5
:1032C00081604DCF90915A04892F877F93FF88604A
:1032D0004CCF89E20E948905CDCE89E20E945F052C
:1032E000C9CE0737FCE71F0709F45CC008372CE795
:1032F000120709F45BC0F70187819085009709F4F4
:1033000085C00E9475088C01F701C580B680B29413
:103310003FE0B3228091C201877001F1AC2CCC2038
:10332000F1F0812F807F803461F080E2800F88305F
:10333000A8F0812F807E803221F4023078F0BB200B
:1033400069F080915A0482FF09C082E00E94AE0AAF
:103350008091C2018770AA24A3948111A12CD12E3F
:10336000D2942FE0D222FBE0FD1508F4C2C0ED2D6F
:10337000F0E0E354F64E0C944D2E1D1A1D1A531A0C
:10338000531AFF1A1E1B791A791A231B8D1B9E1BB9
:103390009E1B81E00E94C50A43E062E081E00E943A
:1033A000810A15CD81E00E94A10AF6CF82E0FBCF11
:1033B0000B359CE7190741F10C35ACE71A07D1F042
:1033C0000A351C4709F097CF81E01BC00E94E80F27
:1033D000EFEFF4E32CE0E150F0402040E1F700C0D3
:1033E00000000E9427056FEF7FEF90E080E00E94D1
:1033F0001B2E30C380915A0482FB882780F991E00C
:1034000089270E943C0F77CF80E0FBCF8581008128
:103410001181882369F0C8010E94110DD82E682FF0
:10342000C8010E94470AB8018D2D0E94F40C69CF93
:10343000C8010E94130AD82EF6CF212F2F70D22E4A
:10344000107F19F0D29490EFD922CC20B9F0DD2072
:1034500069F080E2800F883010F0011109C080917E
:103460005004D82AD09250040E94530F802F3FC09E
:1034700080914F04D82AD0924F04F6CF802F0E941B
:103480002613DD20B1F180E2800F883010F00111A9
:1034900004C08D2D0E94B30903C08D2D0E94AB097D
:1034A0000E94530F26C0312F3F70D32E107F103251
:1034B00019F0D29480EFD822002349F0013009F4AA
:1034C0007EC0CC2009F48AC0BB20C9F1CFCF809147
:1034D0005A0482FD30C0CC2041F1DD2039F08091CA
:1034E0005004D82AD09250040E94530F80E00E94CA
:1034F000C313AA20A9F08091C20180FD11C0F70179
:1035000015828695869586950E94C50AC7010E94F8
:1035100087158091C2018695869586950E94A10A9D
:1035200060E0C7010E94760D62CC80E00E94261305
:10353000DD20F9F2AECFCC2069F1B11004C08D2DA1
:103540000E941C13D6CF41E0B41210C01091ED01BF
:103550008D2D8123D81669F20E9453059093EC01BA
:103560008093EB01D12AD092ED01C3CF55E0B51283
:10357000C0CF8D2D0E941C138D2D0E949609809125
:10358000BF019D2D9823D91609F4B3CFD82AD09224
:10359000BF01AFCFB1100AC08D2D0E9415138D2D24
:1035A0000E9496098D2D0E94FF09A3CF81E0B812D9
:1035B000A0CF809150048D2109F49BCFEDCFCC207A
:1035C00029F095E09B1508F494CFB9CFA4E0AB1592
:1035D00008F48FCF8D2D0E9415138BCFBB20D1F314
:1035E000093349F4BFEFE7EEF3E0B150E040F040BB
:1035F000E1F700C00000802F0E9426137ACF812FB0
:1036000086958695837041F0813079F088EF8D0D35
:10361000843008F06ECF41C0C8019370C11002C061
:1036200080E090E00E94E20564CFC8019370C11071
:1036300002C080E090E00E94BD055BCF6C2D802F22
:103640000E94EB0A56CF812F837091F5C11025C0DF
:10365000402F429546954770440F440F802F8F703E
:10366000042E01C0880F0A94EAF720E004FF07C087
:103670002FE030E001C0220F4A95EAF72095169519
:1036800016951370123079F060F43091FD0111300D
:1036900039F0822B83230E94E80A0E94070629CF73
:1036A000832B822BF8CF282B8091FD018227F3CF2B
:1036B0008695CC2011F0812F8170882371F3402FE3
:1036C000429546954770440F440F802F8F70042E0B
:1036D00001C0880F0A94EAF720E004FF07C02FE03A
:1036E00030E001C0220F4A95EAF72095169516950D
:1036F0001370123069F050F43091FE01113029F04E
:10370000822B83230E947E0AC8CF832B822BFACF81
:10371000282B8091FE018227F5CF1F70CC2039F035
:10372000812F0E94C50A802F0E941C13B6CF802FC4
:103730000E941513812F0E94A10AAFCF023FB9F159
:1037400070F4003FD9F0013F91F0CC2009F468C03B
:10375000BB2009F462C0802F0E94C31357CF033FE0
:1037600069F1043F91F780915A0482FD32C0812FA4
:103770008F71CC2001F10E94C50A48CFCC2091F076
:1037800024E02B1508F442CF1F7181E090E0012E58
:1037900001C0880F0A94EAF79091FE0189270E94E0
:1037A0007E0A34CF35E03B1508F430CFEDCF812FC2
:1037B0008F71CC2001F30E94A10A28CF80E0CC2099
:1037C00071F31F7181E0012E01C0880F0A94EAF79E
:1037D000E6CFCC20B9F08091C2018770843049F4E3
:1037E0000E94F809812F8F710E94A10A0E9407068A
:1037F00097CE44E063E04B15C8F3812F8F710E9490
:10380000D10AF4CF54E05B1520F40E94F80964E07B
:10381000F4CF81E00E94AE0AE9CF812F8F71ABCF48
:10382000BB2079F0093349F48FEF97EEA3E0815084
:103830009040A040E1F700C00000802F0E942613B6
:10384000E5CE812F8F71B7CF80919801909199012A
:103850000817190781F4109299011092980110929B
:1038600034041092350410923604109237041092EA
:103870003C0410923B0480913D0490913E040097DB
:1038800029F1E8E06E16710408F00ACC632D0E945D
:10389000E50681111BC081E00E945913F801E8512F
:1038A000FC47E730F10508F05AC0E75AF34E0C9494
:1038B0004D2E8E1894187F1888189A18A018A618DC
:1038C000552021F0FC01808585FFF5CBC801975577
:1038D0008F3F910509F010F7F801FF27E830F10557
:1038E0000CF075CA44E0EE0FFF1F4A95E1F79F0107
:1038F0002F5C3D4F6901D70115969C911597EA5CA5
:10390000FD4F808190FB80F9808315968C918823F0
:1039100009F4D8CB0E94530590930B0280930A02BE
:10392000F60182818F5F828380914F0490915004D1
:10393000892B83838091ED0184834681578166853D
:103940007785C6010E941406D60115968C9181FDDB
:10395000B6CB902F812F9093510480935204F7019E
:103960008581882309F44FC010924E04C8019057F6
:10397000839708F035C084E090E00E94E72D909393
:103980005A0480935904F801E150F047E232F105FE
:1039900008F0E2CBE253F34E0C944D2EE6185B197F
:1039A000EE18B818BC18F218C018F6180219CC187E
:1039B0005419D0180619D4180A193219D8180E1922
:1039C0003919DE1814191C19C418FA18C818FE1869
:1039D000E2181819281942195219B218EA1862196E
:1039E0000631FCE71F07D9F4809150048A7A91E0F0
:1039F00009F490E090939A01882309F46ACC85E356
:103A000069CC512CFAC906312CE7120709F069CCB0
:103A100080919A01882309F460CC85E35FCC073755
:103A20003CE7130709F4B5CC82E008374CE71407EC
:103A300009F4B0CC03303CE7130709F4D4CC08F008
:103A4000B7CC01155CE7150709F4C0CC01301C4761
:103A500009F051CC0E94EE12412C8114910409F41A
:103A6000FACA61CAB0E0A0E0E8E3FDE10C94652E7B
:103A70008091BC01807F09F051C08091BB018823F7
:103A800009F44CC0E091C00489E0D82E80917704FD
:103A90008E1709F443C00E2F10E0ED9DF0011124A4
:103AA000E858FB4F84818823F1F1D09EE001D19E3C
:103AB000D00D1124FE01E858FB4F91818091B70190
:103AC000981331C090818091B60198132CC08581E4
:103AD000811129C0E280F3808091B8019091B901F1
:103AE000E81AF90A60E086EB91E00E94760D0E94E8
:103AF000580EE816F906B8F48091BC018F70806109
:103B00008093BC01C258DB4F88818F7080618883AD
:103B100086EB91E00E9487150E94090ACDB7DEB7B7
:103B2000E7E00C94812EF8013196E770AFCFA8E161
:103B3000B0E0EDE9FDE10C945D2E8C0186E0F8012A
:103B4000DE01539601900D928A95E1F7F801F48019
:103B5000E58086EB882E81E0982E8091BA01811154
:103B60002AC0F11003C0FF24F3941CC0EE20F9F02A
:103B7000C8010E944D0DF82E8823C9F089E0F80194
:103B8000A6EBB1E001900D928A95E1F78091BA0120
:103B9000813031F48091B6019091B7010E94400DBF
:103BA0000E94321D8F2D6896EFE00C94792EC8018B
:103BB0000E948715D8CFC280D380B090BB0180917E
:103BC000B8019091B9013601681A790ABB2009F44D
:103BD0001FC15080A18060E086EB91E00E94760DCD
:103BE0000E94580E6816790608F0BCC0FF2009F440
:103BF000BACF8091BC01382F307F2091B701F801F6
:103C00009181311160C0FE2C29131DC02091B60195
:103C10009081291318C04091BD015091BE012781A8
:103C200030854217530779F4E11046C08F708061E8
:103C30008093BC0186EB91E00E9487158091BC01C6
:103C4000F8018683AFCFE11037C06A2D852D0E9421
:103C5000AC036A2D852D0E94AC03E82E8111A2CF02
:103C60005B8AAC8A8B899C890E94400D292F229502
:103C70002F70243058F49F70223080F0992391F0F7
:103C8000F8019681907F71F4FE2C8CCF2A5022305F
:103C900068F0C8010E948715EB2CF6CF992311F02C
:103CA000882391F3805E8830A0F7EECF803F60F3E9
:103CB000815F833070F7E8CF8091BC018160809391
:103CC000BC01F12C6FCF29131EC02091B601908149
:103CD000291319C04091BD015091BE012781308543
:103CE0004217530781F4E1100EC08683C8010E9479
:103CF000871589E0F801A6EBB1E001900D928A9555
:103D0000E1F7FB2C4FCFC8010E944D0D882309F429
:103D10004ECFEE2009F44BCF8091BC018032B8F039
:103D20002091B6013091B7013B872A87DD86CC868A
:103D30009091BA019E871F86888B8091BD019091DA
:103D4000BE019A8B898BCE010A960E94871589E065
:103D5000F801A6EBB1E001900D928A95E1F70E947F
:103D6000321D01CF8091BC01982F907F51F486EBDA
:103D700091E00E94871589E0F40111928A95E9F794
:103D8000A0CFFF2009F4EFCE2091B701F801918177
:103D900029131AC02091B6019081291315C04091B2
:103DA000BD015091BE01278130854217530761F450
:103DB000E1100AC08683C8010E94871589E0F401DA
:103DC00011928A95E9F79DCFC8010E944D0D882375
:103DD00009F4EDCEEE2009F4EACE8091BC018032E8
:103DE00008F4B5CF2091B6013091B7013A83298309
:103DF000DC82CB829091BA019D831E828F83809159
:103E0000BD019091BE0199878887CE0101969DCF13
:103E100060E086EB91E00E94760D0E94580E6816D5
:103E2000790608F0A8CFFF2009F49DCEFE2CEE20E5
:103E300009F4BDCE9091B701F8018181981336C085
:103E40009091B6018081981331C02091BD013091CD
:103E5000BE01878190852817390741F58091B80107
:103E60009091B901C81AD90AF8ECCF16D104A8F478
:103E70009091BC0190FD11C0907F79F08091BC01C0
:103E8000F8018683903F31F0982F907F905F8F707C
:103E9000892B8683C8010E94871589E0F801A6EB6B
:103EA000B1E001900D928A95E1F77CCEC8010E94A5
:103EB0004D0D81114CCF8091BC0181608093BC017C
:103EC000C8010E9487156ECEA2E1B0E0EAE6FFE1EC
:103ED0000C94682E0A871B872C873D874E875F8747
:103EE000688B798B8A8BCE010A960E94971D81116F
:103EF0002AC089E0FE013A96DE01119601900D92EA
:103F00008A95E1F78E858823F1F02091770430E0DF
:103F1000C9010196877099274091C0044817190676
:103F200059F199E0929FD001939FB00D1124A858A8
:103F3000BB4FFE01319601900D929A95E1F7809367
:103F400077040E94090A19E08091C00490917704D7
:103F50008917F9F0819FC001112488589B4F0E9456
:103F6000971D8823B1F08091C00490E0019687707E
:103F700099278093C004E8CF0E94E80F109277043D
:103F80001092C00489E0E6EBF1E0DF011D928A9512
:103F9000E9F76296E4E00C94842EEF92FF920F937F
:103FA0001F93CF93DF938091B503882361F0E09155
:103FB0007C038DE0F82E8091B503E81748F010924D
:103FC000B50310927C03CDB7DEB7E6E00C94822EE9
:103FD000EE24E394EE0EE0927C03CE2FD0E0EF9D32
:103FE000F0011124EA54FC4F84818823E9F0878191
:103FF0009085892B21F481859285019659F4008161
:104000001181228133814481558166817781808548
:104010000E94641FFC9EF001FD9EF00D1124EA54E5
:10402000FC4F148210924F04EE2DC5CF109229043C
:104030001092280410920B0180912704809326048B
:104040000E9433070E94CD1F0895B0E0A0E0EBE28C
:10405000F0E20C945B2EC091260497E0992E01E0CB
:1040600010E02DE0322E34E0432E552453948091FD
:1040700027048C1309C00E94CD1F0E943307CDB7BF
:10408000DEB7E1E10C94772ED0E0FE01EE0FFF1FCA
:10409000E25EFB4F80819181989ED001999EB00D88
:1040A0001124A358BC4F14962C911497211159C078
:1040B0006090B503E6EBF3E030E020E0812C5D0199
:1040C000261508F04CC0E384F484D501CD90DC9033
:1040D0006FEF7FEF712C472D50E0DA01AA0FBB1F65
:1040E000AC0DBD1D0D90BC91A02D109731F0EA16BE
:1040F000FB0609F4BA017394EECF6F3F7607A9F17E
:10410000D80102C0AA0FBB1F6A95E2F78A2AB8013C
:10411000072C02C0660F771F0A94E2F7AB014150EB
:1041200051098416150601F5329EF001339EF00DFB
:104130001124EA54FC4F989ED001999EB00D112491
:10414000A358BC4F12962D913C911397308727832B
:104150004482108211829287818715965C920E9418
:1041600005072196C37083CF14822F5F3F4F3D9682
:10417000A7CFAEE1B0E0EFEBF0E20C945A2E4B8B00
:104180005C8B6D8B7E8B8F8B988F911110924F046F
:10419000188A198A1A8A86E0FE017396DE011A9639
:1041A00001900D928A95E1F780915A0482FF24C014
:1041B0000E9453052091C0013091C101821B930BD5
:1041C0008838934158F18091C20182FB882780F999
:1041D00091E0892780FF03C082E00E94AE0A0E941E
:1041E00053052091EB013091EC01821B930B883831
:1041F000934110F00E948B098E85811111C00A85B0
:104200001B852C853D854E855F85688979898A89DE
:104210000E94641F6E96E2E10C94762E80E0DACF65
:1042200061E0CE010A960E94760D6C018F8540E513
:10423000C4164CE7D40651F48823F1F081E0809352
:104240000B0181E090E080FDDACFE4CF61E5C61696
:104250006CE7D60629F4882379F00E941620F1CF66
:1042600072E5C7167CE7D70639F4882329F08091D8
:104270000B01882319F3F1CF8DE7E82E83E0F82EA8
:10428000512CB12CA12C88248394912CCE01019621
:104290009A8F898F44244394F70140815181662489
:1042A0006A94762C20E0822F90E0FC01EE0FFF1F35
:1042B000E40FF51F608171816115710539F0C61633
:1042C000D70609F0C3012F5F3C01EDCF10E0FFEFEF
:1042D0006F167F0609F443C0F701448110910B016A
:1042E000812F411180E0182F1170F70135808681F0
:1042F0009F85992309F4F5C0112309F4F2C0311008
:1043000014C0A401062C01C0440F0A94EAF7842BC0
:10431000868380917A0390917B03C29730F462E3A5
:1043200070E070937B0360937A03C40102C0880F2E
:10433000991F2A95E2F70197F70126812817190698
:1043400071F48091280490912904009709F44AC0DF
:104350000E943805C39708F445C0F7014482512AEA
:10436000FFEFAF1ABF0A27E0E20EF11C38E0A316F8
:10437000B10409F091CF8F85882309F412C155202B
:1043800009F40FC10E9453059093290480932804D7
:104390008091B503883010F591E0980F9093B503A4
:1043A00099E0FE013A96DE01119601900D929A95E0
:1043B000E1F74DE0849FC00111248A549C4F29E00D
:1043C000FE013196DC0101900D922A95E1F72FEF65
:1043D0003FEFFC0132872187D486C38681E05826CF
:1043E000852D31CF8091260450912704982FF0E03D
:1043F000E0E0851314C090932604EE15FF0509F440
:10440000AECF90E0FC01EE0FFF1FE25EFB4FB182EA
:10441000A08201968370992780932704A0CF682EED
:10442000712CF301EE0FFF1FE25EFB4F2081318103
:10443000F7E0F29FD001F39FB00D1124A358BC4FB9
:104440002D913C9111973E8F2D8F40E020E030E080
:10445000E32FF0E0EE0FFF1F6D8D7E8DE60FF71F4F
:104460002080318021143104E1F0F7010190F081C6
:10447000E02DFC8FEB8F20E005C02616370609F4EF
:10448000412F2F5FE22FF0E0EE0FFF1F6B8D7C8D31
:10449000E60FF71F608171816115710571F73F5F4C
:1044A000D7CF4423D9F0FD01231708F4F701448244
:1044B000EE16FF0621F490932604142F50CF981384
:1044C00007C0AE17BF0721F4C3010196982F937060
:1044D00093012F5F3F4F822F83708BCFF0E0E0E09E
:1044E000F7CF90E0311020C0B40102C0660F771FF3
:1044F0002A95E2F79B01215031092817390731F439
:10450000442309F44CC0C5010E940507C401062CD0
:1045100001C0880F0A94EAF7982F9095F7018681D9
:1045200089238683132D1BCFAC01062C02C0559521
:1045300047950A94E2F7BA01617077279C012150F0
:10454000310982239323892B31F5672B21F1F70160
:1045500082819381892BE1F0E98DFA8D27E0119218
:104560002A95E9F70E945305282F8B839C8334E01A
:104570003D83F70182819381782F8887998709810C
:104580001A813C8144E05E816F81892F0E94641F03
:10459000F7011582BBCFF42FF1703F2EB7CF312E2C
:1045A000B5CF9091260480912704981719F00E94A6
:1045B000252014CF0E94CD1F1092290410922804A8
:1045C0000E9433070BCFA6E0B0E0E9EEF2E20C94D4
:1045D000682E8C0190931E0280931D02011580E2CB
:1045E0001807C0F4802F0E942613C8010E94C70B31
:1045F0009801205E31092830310518F001151105A8
:1046000031F40E9415132696E4E00C94842E0E9447
:104610000413F9CF80EF89838A830E945305816058
:10462000682F9C838B8349815A817C8181E090E053
:104630000E94B920E8CF0F931F93CF93DF938C0193
:10464000EB0167E272E08C2F0E94430E892B71F41C
:10465000DD27C15EDD4F8881F80112821882833028
:10466000F1F048F4813059F0823081F0DF91CF9140
:104670001F910F9108958430B9F08530B9F780917A
:10468000270290912802009789F306C080912902A1
:1046900090912A02009799F30E94E322E7CF80913C
:1046A0002B0290912C02F6CF80912D0290912E0238
:1046B000009791F7209127023091280280912902DA
:1046C00090912A0221153105F1F2009729F7C901CD
:1046D000E3CFA6E0B0E0EFE6F3E20C946A2E90930D
:1046E0001E0280931D02811520E2920730F40E9481
:1046F0006F152696E2E00C94862E80EF89838A83DC
:104700000E9453058160682F9C838B8349815A8165
:104710007C8181E091E00E94B920EBCFCF93DF93C1
:10472000EC010E946923CE010E94E322DF91CF9128
:1047300008950F931F93CF93DF938C01862F67E229
:1047400072E00E94430E892BB1F4C0912702D091F0
:104750002802209781F0F8018281833051F4CE0144
:104760000E948E23CE010E948E23CE010E948E23B2
:1047700002C08430D0F7DF91CF911F910F9108953F
:104780000F931F93CF93DF938C01EB0167E272E0ED
:104790008C2F0E94430E892B09F05CC0FE01FF277D
:1047A000D80112968C911297E15EFD4F8130B9F4D9
:1047B00015969C9192FF02C080830AC090FFFCCFA7
:1047C00082E080838091290290912A020097B9F4B7
:1047D00080912702909128020097E1F110C0823069
:1047E000B9F515968C9182FD28C080FD0BC083E041
:1047F000808380912B0290912C02009701F10E94FE
:10480000692328C084E0808380912D0290912E023C
:104810000097A9F780912702909128020097F9F05C
:104820000E948E238091290290912A02009739F7E5
:104830008091270290912802E2CF85E080838091C9
:10484000270290912802009729F00E948E23F0CF32
:1048500086E08083DF91CF911F910F910895809121
:10486000290290912A02B8CFA6E0B0E0EAE3F4E290
:104870000C94682E0E9453058C018091EE0190915A
:10488000EF018017910781F019821A820E94530567
:10489000682F49815A81792F80E090E00E94B920E9
:1048A0001093EF010093EE012696E4E00C94842E21
:1048B000AAE0B0E0EEE5F4E20C945F2E8E010F5F0B
:1048C0001F4F8AE0F80111928A95E9F78EE4E82EED
:1048D00081E0F82E6801AA24A394B12C2FE5822E42
:1048E00021E0922EF70181917F018F3F09F440C0B2
:1048F000F894E82FE295EF70F0E021A18F70A50108
:1049000002C0440F551F8A95E2F7CA01922F982BD7
:1049100091A392A18095892382A3789400C0E8E5B1
:10492000F1E0712C31E021912F3F09F44AC0A22F10
:10493000A295AF70B0E090968C9190E02F7002C07D
:10494000959587952A95E2F780FD3BC0832F782ABD
:10495000330F8E169F0639F7F701319780818F3F0D
:1049600011F00E946B0750EA5A95F1F7F601708238
:10497000FFEFCF1ADF0A48E5E41641E0F40609F03C
:10498000B1CF4AE050E0B80183EF91E00E94A52E3C
:10499000892BD9F08AE0F801A3EFB1E001900D92E4
:1049A0008A95E1F781E08093F2010E94530590938C
:1049B000F1018093F00110E0812F2A96EDE00C9434
:1049C0007B2E80E0C4CF10E01FC01091F2011123B4
:1049D00091F38091F0019091F1010E9438050597C3
:1049E00050F34AE050E063EF71E081E192E00E9411
:1049F000A52E892B41F38AE0E3EFF1E0A1E1B2E0DB
:104A000001900D928A95E1F71092F201D5CF1F9295
:104A10000F920FB60F9211242F933F934F935F93F2
:104A20006F937F938F939F93AF93BF93CF93EF93A6
:104A3000FF93C091E900CF708091EC001092E900E3
:104A40008091F000877F8093F00078940E94191085
:104A50001092E9008091F00088608093F000C0938C
:104A6000E900FF91EF91CF91BF91AF919F918F910D
:104A70007F916F915F914F913F912F910F900FBE5A
:104A80000F901F9018951F920F920FB60F9211243E
:104A90002F933F934F935F936F937F938F939F9346
:104AA000AF93BF93EF93FF938091E10082FF09C022
:104AB0008091E20082FF05C08091E1008B7F8093AE
:104AC000E1008091DA0080FF24C08091D80080FF4F
:104AD00020C08091DA008E7F8093DA008091D90027
:104AE00080FF9BC080E189BD82E189BD09B400FEE1
:104AF000FDCF81E080936D0480916004811109C035
:104B00000E94CB030E946A048091E200846080933B
:104B1000E2008091E10080FF17C08091E20080FFF9
:104B200013C08091E2008E7F8093E2008091E200CA
:104B300080618093E2008091D80080628093D800E9
:104B400019BC85E080936D048091E10084FF29C049
:104B50008091E20084FF25C080E189BD82E189BDAA
:104B600009B400FEFDCF8091D8008F7D8093D800DE
:104B70008091E1008F7E8093E1008091E2008F7E42
:104B80008093E2008091E20081608093E200809156
:104B90006E04882309F447C084E080936D048091FB
:104BA0006D048091E10083FF27C08091E20083FFC4
:104BB00023C08091E100877F8093E10082E08093B1
:104BC0006D0410926E048091E1008E7F8093E1006D
:104BD0008091E2008E7F8093E2008091E20080610C
:104BE0008093E20042E060E080E00E94380480911F
:104BF000F00088608093F000FF91EF91BF91AF913A
:104C00009F918F917F916F915F914F913F912F91E4
:104C10000F900FBE0F901F90189519BC10926D0445
:104C20001092600476CF8091E30087FD02C081E09E
:104C3000B4CF83E0B2CF78941F920F920FB60F9249
:104C400011248F939F93AF93BF9380915C049091B5
:104C50005D04A0915E04B0915F040196A11DB11D99
:104C600080935C0490935D04A0935E04B0935F0412
:104C7000BF91AF919F918F910F900FBE0F901F909A
:104C800018951F920F920FB60F9211248F939F9336
:104C9000AF93BF9380915B04811113C080915C043A
:104CA00090915D04A0915E04B0915F044196A11DB6
:104CB000B11D80935C0490935D04A0935E04B09357
:104CC0005F04BF91AF919F918F910F900FBE0F9096
:104CD0001F901895A4E3B0E0E0E7F6E20C945A2E9A
:104CE00085B7806885BF85B7806885BF84B7877FB3
:104CF00084BF0FB6F894A895809160008861809376
:104D00006000109260000FBE80E890E00FB6F8944B
:104D100080936100909361000FBE89E697E09093C5
:104D20006F0180936E010E9444070E94F80E0E945A
:104D3000740E0E94CB030E946A048091E20084609A
:104D40008093E200789480916D04882399F010910B
:104D5000E9001F708091EC0080FFDDC080E8182B17
:104D60001092E9008091E80083FD0E9419101F70E5
:104D70001093E90082E084BD93E095BD9AEF97BD62
:104D800080936E000E94AC0C811102C00E94330E11
:104D90000EE411E098E5E92E91E0F92ED8018D910D
:104DA0008D018F3F11F00E946B07E016F106B1F7FD
:104DB00008E511E08FE5E82E81E0F82EF8018191F9
:104DC0008F018F3F11F00E946B07E016F106B1F7DB
:104DD0008AE0E1E1F2E0DF01282F1D922A95E9F750
:104DE000E3EFF1E0DF011D928A95E9F790E080E0C2
:104DF0000E94E72D853E9E4F21F40E94AC0C81114C
:104E000063C065EE7EEF90E080E00E941B2E60E0C4
:104E100082E090E00E94FD2D81E08093FD0161E041
:104E200083E090E00E94FD2D60E074E184E090E07A
:104E30000E941B2E60E086E090E00E94FD2D60E065
:104E400087E090E00E94FD2D40E050E0BA0188E04C
:104E500090E00E940F2E60E083E290E00E94FD2D22
:104E600060E08CE090E00E94FD2D60E08DE090E03D
:104E70000E94FD2D19821A821B821C821D821E82B5
:104E80001F82188648E050E067E170E0CE0101968D
:104E90000E94ED2D40E050E0BA018FE190E00E94C9
:104EA0000F2E80E00E945C0C0E94330E40E050E028
:104EB000BA018FE090E00E940F2E40E050E0BA016E
:104EC00083E190E00E940F2E82E090E00E94DF2DAF
:104ED0008093FF0184E090E00E94E72D90935A04B4
:104EE000809359040E945824EFEFF6E721E0E15047
:104EF000F0402040E1F700C000000E94582480915B
:104F0000110280FF0AC06FEF7FEF90E080E00E9407
:104F10001B2E0E94270580E022CF83E090E00E94B4
:104F2000DF2D0E94E80A81E091E09093560480937F
:104F300055041BE1612E12E0712E552453948E010D
:104F40000F5F1F4FCE0103969AAB89AB80916D0422
:104F5000A0E4FA2EB2E1EB2E853009F47EC00E9467
:104F60005824E0E0EE2EE2E0FE2EF1E1AF2EF2E07A
:104F7000BF2ED501F70191918D9122E0EA30F20721
:104F800009F475C09817B9F371E1C72E72E0D72EF6
:104F9000912CD6018D906D01F70141907F0148144D
:104FA00021F1312C222423944824842D8221A9F03C
:104FB0003BA69CA60E9453059EA78DA7F1E0FFA7E4
:104FC00091E0882D822109F490E098AB4BA55CA577
:104FD0006DA57EA58FA50E94B9203394220C27E0F1
:104FE0003212E3CFF7013197808293943AE0931223
:104FF000D0CF0E9447053FC080916D04843019F1E5
:1050000010925B04A8E1B0E00FB6F894A895A093C5
:1050100060000FBEF092600083B7817F846083BF21
:1050200083B7816083BF7894889583B78E7F83BF71
:105030000FB6F894A8958091600088618093600015
:10504000109260000FBE0E945824E1E1F2E08191CD
:1050500081116EC56E167F06D1F780916D04853083
:1050600009F4CACF0E94E80F0E94070678CF981370
:105070008BCF0E94342480913B0490913C04892B77
:1050800009F43EC0409130045091310460913204E3
:10509000709133042FB7F89480915C0490915D0473
:1050A000A0915E04B0915F042FBF841B950BA60BEB
:1050B000B70B40912C0450912D0460912E047091F7
:1050C0002F0484179507A607B707D0F080913B04FB
:1050D00090913C040E946F1510923C0410923B0486
:1050E0001092300410923104109232041092330462
:1050F00010922C0410922D0410922E0410922F0462
:10510000C0905104D0905204C114D10419F180917F
:105110000A0290910B020E9438057C01C6010E9490
:10512000580E8E159F05B0F4809151049091520451
:1051300099278830910508F0FCC064E0880F991F1A
:105140006A95E1F78F5C9D4FDC0115962C9122FF4B
:105150000E94BE0F80910B01882301F180912804E9
:10516000909129040097D1F00E94380520917A038C
:1051700030917B032817390788F490912604809199
:105180002704981709F4D8C00E94252010927B03A9
:1051900010927A03109229041092280486E0E6E423
:1051A000F4E0D80101900D928A95E1F780904704D0
:1051B000D0904804C0904904F0904A04E0904B0419
:1051C000109248041092490410924A0410924B0421
:1051D000D11003C0CC2009F445C0809144049091C3
:1051E00045040E9438059C0190913F04992309F4DD
:1051F000C3C425313105B0F19F3F19F09F5F9093F3
:105200003F04DD2059F00E94660691E01D140CF069
:105210009FEF899F802D112480934804CC2059F062
:105220000E9466069FEF1C140CF491E0899F802D6C
:1052300011248093490480914804882399F0909028
:105240004904992079F00E948606882309F47DC0DC
:1052500080934804892D0E948606882309F478C02B
:1052600080934904F11003C0EE2009F443C08091FB
:105270004204909143040E9438059C01909140049F
:10528000992309F47EC421353105A0F19F3F19F01F
:105290009F5F90934004FF2059F00E94440691E0E4
:1052A0001F140CF09FEF899F802D112480934A04D6
:1052B000EE2059F00E9444069FEF1E140CF491E07A
:1052C000899F802D112480934B0480914A04882368
:1052D00089F090904B04992069F00E9486068823FB
:1052E000D1F180934A04892D0E9486068823B1F16A
:1052F00080934B0480914704881133C08091480407
:10530000882311F0D8122DC080914904882311F010
:10531000C81227C080914B04882311F0E81221C0E5
:1053200090914A04992319F081E0F9121BC080E0A2
:1053300019C090E080E008CF0E94CD1F1092290490
:10534000109228040E94330729CF5092480482CF3C
:105350005092490487CF50924A04C5CF50924B04D3
:10536000C9CF81E080FD13C080914804811170C0D5
:105370008091490481116CC080914A04811168C0F8
:1053800081E090914B04911101C080E080FD0E946A
:105390001A0686E0F801A6E4B4E001900D928A9521
:1053A000E1F70E94070690910C02891721F0809383
:1053B0000C020E94470580916D04843009F0C6CD2F
:1053C00083E08093E9008091E80082FFBFCD809167
:1053D000E80090E085FF0AC00E94EA0350E2C52E73
:1053E000D12C7801882309F43FC091E08091E80036
:1053F0008B778093E800992309F4A8CDE0901B02F5
:10540000F0901C028981E114F10409F43BC08E3F45
:1054100009F0A4C08A81833020F08550833008F0E1
:105420009DC0EA81EE3008F099C0F0E0E65EF54DEF
:105430000C944D2EEA2B042C0A2CAE2AAE2A442CB6
:10544000552C682CA82CAD2CAE2AAE2AAE2AB52C31
:1054500081E09CCF8091F100F70181937F01F1E021
:10546000CF1AD10809F4C1CF8091E80085FDF2CFB1
:105470008091E8008B778093E8000E94EA038823FC
:1054800099F3B3CF8C3009F4A5C068F5843009F4E2
:105490008BC058F4823009F452C008F076C08130D5
:1054A00009F449C08FEF898359C0863009F48FC051
:1054B00008F482C08B30B1F780912A0490912B04BC
:1054C000892B09F44BC040E250E0B80182E00E9411
:1054D000F80BEFEFF1EE24E0E150F0402040E1F76F
:1054E00000C0000016CD803109F4BCC0C0F48E307D
:1054F00009F476C008F471C080912A0490912B04BD
:10550000892B61F1AA80BB80BA24AB24BA24CC8059
:10551000D12C3DE1C316D10408F5750199C0823143
:1055200009F4A6C008F4A1C0833109F4CBC08E3FB2
:1055300009F0B8CF76CF1A8289E08B830FC08A81B9
:10554000823009F411C3833081F0813009F0AACF91
:105550000E9447059B838C837D836E8340E250E0ED
:10556000B80182E00E94F80BF1CC80912A0490915E
:105570002B04892B99F3FE013396D5018D915D01A2
:1055800081936A167B06C9F7E9CF8A81823009F0D8
:1055900089CF6B817C818D819E810E94532E87E211
:1055A00090E00E94FD2DDACF4C816B818A810E94B0
:1055B000C50C9D838E83D2CF2D813E813227232738
:1055C00032274C816B818A810E94850CC7CF0E9453
:1055D000A60DC4CFB0E1BA83C1CF1A8288EBADCF9C
:1055E000EA80FB80FE24EF24FE24AC80B12C68010D
:1055F000EDE1AE16B10408F0B1CFC701885B9C4F56
:105600009601201B310B2A153B0508F0A7CFF8EBBC
:10561000EF16F10460F40E94DF2DD60114968C93EE
:10562000FFEFEF1AFF0A2FEFC21AD20AE6CFF601F8
:105630001482F6CF48EBE416F10438F4200F311F42
:10564000D90114966C910E94FD2DBFEFEB1AFB0A55
:10565000C701885B9C4F97012A193B092C153D0512
:1056600048F37CCF0E94750C79CF84E08A8376CF93
:10567000EA80FB80FE24EF24FE24AC80B12C68017C
:10568000EDE1AE16B10408F069CFC7018896960126
:10569000201B310B2A153B0508F060CFF0E3EF1615
:1056A000F2E0FF0660F40E94DF2DD60114968C9381
:1056B000FFEFEF1AFF0A2FEFC21AD20AE6CFF60168
:1056C0001482F6CFCA80DB80DC24CD24DC24AC80BD
:1056D000B12C3DE1A316B10408F040CF160148E219
:1056E000240E311C80E3C81682E0D80608F036CFBD
:1056F00080E392E08C199D098A159B0508F42ECF52
:1057000080912A0490912B04892BF1F5F12CE12C46
:10571000C0FE10C0C60187960E94DF2D9D8189279B
:105720009827892781159C4711F48FEF8D83EE24EC
:10573000E394F12CC6018A0D9B1D450180FF1AC020
:10574000B1E08B1A9108E5E0F0E0EC0FFD1FE80DE9
:10575000F91DFCABEBABC1018A0D9B1D0E94DF2D37
:10576000ABA9BCA99C9181159C4721F48FEFEBA9B3
:10577000FCA98083F801EE0DFF1D2FEFCF01801BE8
:10578000910B8815990510F076011BC084819581D5
:1057900089279827892781159C4711F4248325831D
:1057A0003296ECCF40E3E41642E0F40638F4200FE2
:1057B000311FD90114966C910E94FD2DBFEFEB1A99
:1057C000FB0AC701889697012C193D092A153B054C
:1057D00048F3C4CE88E0EDE0F1E0DE01919601905F
:1057E0000D928A95E1F780E2D8011D928A95E9F73A
:1057F00086E0898388E0FE01B196DE01159601906E
:105800000D928A95E1F7AACE8CEB89835A821B828E
:105810001C82A4CE8C81682F70E0762F66278B8146
:10582000860F972F911D092E000CAA0BBB0B35E09C
:10583000880F991FAA1FBB1F3A95D1F7AC01BD0174
:10584000405E5F4F6F4F7F4F481759076A077B07CE
:1058500008F484CE8C3BE1E09E07A105B10508F079
:105860007DCE4D3BF1E05F076105710520F04CEB0B
:1058700051E060E070E0481B590BBC0168537E4F5B
:10588000C8010E94C62D6ACE4AE150E06FEF70E079
:10589000CE0107960E94B22E80912A048983EA8263
:1058A0001B825C821D8282E085CE81E090E0909335
:1058B0001C0280931B0282E390E09093100280937D
:1058C0000F020E94530590930E0280930D0246CE64
:1058D000EF2871F18091110282FBFF24F0F8869588
:1058E0008170F82280910D0290910E020E9438057D
:1058F0008536910530F1FF2021F10E9453059093E8
:105900000E0280930D0280910F0290911002019778
:105910009093100280930F02892B51F410921C0275
:1059200010921B0281E090E090932B0480932A0454
:1059300080912A04898380911B028A8380910F02BF
:10594000FCCD82E390E09093100280930F02F0CFA1
:1059500010922B0410922A0401CE40E250E06FEF27
:1059600070E0C8010E94B22EF9CDEB81E73008F05B
:10597000F5CDF0E0E254F34D0C944D2EC52CCF2C18
:10598000E72C1E2D3B2D602D732D8EE1A9A9BAA900
:105990001D928A95E9F788E089838A83CECD8C8130
:1059A0009AE0D92E7E01B1E2EB0EF11CF7012D2D0C
:1059B00011922A95E9F7B7010E94430E8983F701F6
:1059C000DE01129601900D92DA94E1F7C7CDFC80CA
:1059D0008AE0FE013596DE01919601900D928A953E
:1059E000E1F789A19AA10E945C079AA389A38BA1E0
:1059F0009CA10E945C079CA38BA38DA19EA10E94E9
:105A00005C079EA38DA38FA198A50E945C0798A711
:105A10008FA337E08FEF3F1568F04AE0F49EB001A6
:105A20001124685A7D4F4AE050E0CE0181960E94D1
:105A3000212E80E089830E94440790CD6C812AE06A
:105A4000CE018196DC01E22F1D92EA95E9F76830DC
:105A500008F047C0629FB001112468557D4F4AE0AD
:105A600050E00E94CF2D80E089838AE0FE01B1964C
:105A7000DE011296C4CEFC808AE0FE013596DE017E
:105A8000919601900D928A95E1F789A59AA50E94B9
:105A90005C079AA789A7F7E08FEFFF1568F02AE067
:105AA000F29EB001112468557D4F4AE050E0CE01CE
:105AB00081960E94212E80E089830E94F80E4ECDAF
:105AC0006C812AE0CE018196DC01E22F1D92EA95DD
:105AD000E9F7683030F4629FB001112468507D4FBF
