:100000000C94AE030C94CB030C94CB030C94CB0355
:100010000C94CB030C94CB030C94CB030C94CB0328
:100020000C94CB030C94CB030C9480230C943C23B2
:100030000C947D240C94CB030C94CB030C94CB0335
:100040000C94CB030C94CB030C94CB030C94CB03F8
:100050000C94CB030C9459240C94CB030C94CB0339
:100060000C94CB030C94CB030C94CB030C94CB03D8
:100070000C94CB030C94CB030C94CB030C94CB03C8
:100080000C94CB030C94CB030C94CB030C94CB03B8
:100090000C94CB030C94CB030C94CB030C94CB03A8
:1000A0000C94CB030C94CB030C94CB030501098077
:1000B000A101850319012AB700150126B700950192
:1000C00075108100C0050C0901A101850419012AE0
:1000D000A002150126A002950175108100C005013E
:1000E0000906A1018506050719E029E71500250184
:1000F0009508750181020507190029EF15002501F2
:1001000095F075018102050819012905950575010C
:100110009102950175039101C00660FF0961A1017B
:100120000962150026FF00952075088102096315F4
:100130000026FF00952075089102C005010906A15F
:1001400001050719E029E7150025019508750181CA
:10015000029501750881010507190029FF15002680
:10016000FF0095067508810005081901290515008D
:100170002501950575019102950175039101C0FD59
:10018000377A585A000004E6D6B446020021011618
:10019000000000742FE5A3E003FA01795D003D88BB
:1001A00089C65436C3174FE4F17CFE7F08FEE19DFB
:1001B000A178E81400A1FFA54E16ED28B0D4E246C0
:1001C000AFB54C5EA92CFBE69ACEFF74ED12A12EC2
:1001D00087F8E971861744533BA2B27C9A3BDF77DC
:1001E000F63989081D88990289524C8325FDA2E1C0
:1001F0004847F36768578FD25E740BBF84E571B0D0
:10020000462DC09BFD506EB7C441C3114640F3A9B3
:10021000FC6609650A74CAC4E5A65BE4E44C08669A
:1002200022A92F2F8A8080DBD9A6EF6413C2FF1189
:10023000D41971801307F77420C60DEDF9C928E7AA
:1002400022190303B47C93E296FF76C64BDAED875E
:10025000A1AB23220D84E69B6EC453C18AD386F2E0
:1002600036E8D2567EDDBC1D55402D7343733938B8
:100270004556EEA377C453BDA666138EF609A5B501
:1002800073F0374C9C676B8BFA786FBBBC62D87984
:100290006FF320EED00A674AFCA5A17CBDDC7AB6DC
:1002A000092418A95CF0308A75AFCDDB35EE8FCF0D
:1002B00015162E806C20EDCD649BC77908AF7AC2ED
:1002C000AA6B967B6CC1C9E718EA3995AC5929BF6E
:1002D0005DDD9B0ADD63AB390E49BD57B7BC8F3975
:1002E000DFDF6C3CB429C06961A4EDA6468A915356
:1002F000280420B76C5BB9CEAD1956B299158B7B2B
:10030000773EA48E82D1D9C1D33AFDA0D2936A0E92
:100310008E7C6183F46C8D0000000070DDFD7F2A0F
:1003200009506D00019503FB070000DEAE769DB11C
:10033000C467FB020000000004595A167C1E001F0F
:100340000020002100220023002B0014001A0008C6
:1003500000150017001C00E3000400160007000948
:10036000000A000B00E10000001D001B0006001940
:10037000000500E000E2000000225200002C000016
:10038000002A0035002D002700260025002400311A
:100390000030002F00130012000C00180028002E5F
:1003A00000340033000F000E000D00E500E30038BC
:1003B0000037003600100011002452E400E600006F
:1003C00000235200002A0001000100010001000189
:1003D0000001000100010001000100010001000115
:1003E0000001000100042816240722092101000150
:1003F00000010000000100010001000100010001F6
:1004000000010000000100000001000000010001E7
:1004100000010001000100010001000100010001D4
:100420000001000100010001000100010001003392
:10043000380F340E320D31010001000100010001BE
:1004400000010001000100010001000000010000A6
:1004500000010035003A003B003C003D003E003FFB
:10046000000100010052002A004C000100010001BF
:1004700000500051004F00010001004B000100003E
:1004800000AE00AA00A900A80001000100010000C0
:100490000001000000010000004C00010044004386
:1004A0000042004100400001000100010001000184
:1004B00000010001000100450001000100010001F0
:1004C000004E00010052000100460046004D004A67
:1004D000004F005100500000000100000001000129
:1004E0000054005500560001000100010053005F58
:1004F000006000610057000100010009705C005DB0
:10050000005E00630001004B000A70000059005AB1
:10051000005B0067000100630062000000620000F1
:10052000005800000001000100010001000100016D
:100530000001000100007C01000100010001000138
:10054000000100010001000100010001004E000156
:100550000052000100010046004D004A004F0051CA
:10056000005000000001000000AE00010001000189
:100570000001000100010001000100010001000173
:100580000001000100010001000100010001000163
:100590000001000100010000000100010001000154
:1005A0000001000100010000000100000001000046
:1005B0000001000100010001000100010001000133
:1005C00000007C01000100010001000100010001A8
:1005D0000001000100010001000100AE0001000166
:1005E0000001000100010001000100010001000004
:1005F0000001000000010009025B00030100A0FAF5
:100600000904000001030101000921110100012278
:1006100044000705810308000109040100020300EA
:100620000000092111010001222200070582032098
:100630000001070503032000010904020001030073
:100640000000092111010001226D0007058403202B
:1006500000011201000200000008EDFE010000018F
:10066000010203011C037600690061006C003A007E
:10067000660036003400630032006200330063001D
:100680000000120366004100750078004C0049002C
:100690004300450000001003620072006F00630019
:1006A0006B006100720000000403090400000000F8
:1006B000000000000000000000000000000000003A
:1006C000000000000000000000000000000000002A
:1006D0007E0F00D4FFFFFFC700000078000000007D
:1006E000000000002A2B280000000000000000008D
:1006F0000000000000000029000000002C1E342033
:10070000212224342627252E362D3738271E1F2058
:100710002122232425263333362E37381F0405069D
:100720000708090A0B0C0D0E0F10111213141516E1
:100730001718191A1B1C1D2F3130232D35040506DF
:100740000708090A0B0C0D0E0F10111213141516C1
:100750001718191A1B1C1D2F3130354C11241FBEC0
:10076000CFEFDAE0DEBFCDBF11E0A0E0B1E0EEEE0A
:10077000F7E502C005900D92AE36B107D9F723E038
:10078000AEE6B1E001C01D92A43FB207E1F70E94BE
:10079000A4240C94A12B0C940000482F2091F30367
:1007A0009091AA0359E0291302C080E0089530E037
:1007B000529FF001539FF00D1124E555FC4F8181AC
:1007C000681306C08081481303C085818111EECF74
:1007D0002F5F3F4F2770E7CFE8EDF0E080818E7FFD
:1007E00080831092E2001092DA001092E100A0EEF5
:1007F000B0E08C9181608C9380818F77808319BC6D
:10080000A7EDB0E08C918E7F8C9380818F7E80836A
:100810001092930308952091E4003091E50095E64D
:10082000A9012091EC00822F817020FF06C08091E9
:10083000E80080FF06C080E008952091E80022FDD6
:100840001AC08091A003882389F0853089F08091B7
:10085000EB0085FD0FC02091E4003091E5004217C8
:100860005307F9F29150E1F684E0089582E008958B
:1008700083E0089581E008958091A20387FF13C06B
:100880008091E80082FF06C08091E8008B7780931A
:10089000E80004C08091A0038111F2CF08958091F7
:1008A000A0038823D9F38091E80080FFF8CF8091DE
:1008B000E8008E77ECCF982F9093E900242F762FC5
:1008C00050E0891731F07091EC002091ED005091CB
:1008D000F00021FD07C09F5F973071F78093E9001A
:1008E00081E008953091EB003E7F3093EB00309132
:1008F000ED003D7F3093ED003091EB00316030939F
:10090000EB007093EC002093ED005093F0002091E9
:10091000EE0027FDE0CF80E00895B0E0A0E0E3E93D
:10092000F4E00C94ED2AC8EDD0E088818F7E8883B6
:10093000E7EDF0E080818160808384E082BF81E028
:100940008093930388818E7F888302EE10E0F80104
:1009500010821092DA0081EEC82ED12CF60110829E
:1009600088818F77888388818068888388818F7D5C
:10097000888319BC1092A0031092A10310929F03C8
:1009800010929E0390EEE92EF12CF70180818B7F6F
:10099000808388818160888342E060E080E00E94FB
:1009A0005B04F60180818E7F8083F8018081816005
:1009B0008083808188608083F70180818E7F80833F
:1009C000888180618883CDB7DEB7E8E00C94092B7D
:1009D000FC018091A8039091A90386179707A0F0C6
:1009E0006115710529F49091E8009E779093E800D5
:1009F00090E06115710551F4911108C08091E800F3
:100A000082FF34C080E00895BC01F2CF8091A00342
:100A10008823C1F18530C1F18091E80083FD30C0A9
:100A20008091E80082FDEACF8091E80080FFE1CF6D
:100A30008091F3002091F200382F6115710519F0B3
:100A40002830310558F091E02830310509F090E068
:100A50002091E8002E772093E800CBCF81918093FE
:100A6000F100615071092F5F3F4FE7CF8091A003E4
:100A7000882341F0853041F08091E80083FFBECFAC
:100A800081E0089582E0089583E0089508958091BB
:100A90009503089587E797E79093010880930008EE
:100AA00088E19AE00FB6F894A895809360000FBE95
:100AB00090936000FFCF9C014FB7F89480918F0313
:100AC00090919003A0919103B09192034FBF821B2C
:100AD000930B08952FB7F89460918F037091900352
:100AE00080919103909192032FBF08952FB7F894AE
:100AF00080918F0390919003A0919103B091920304
:100B00002FBF089590910C019923D1F090918C03FF
:100B100097FF16C0E82FE695E695E695EE31E0F4EE
:100B2000F0E0E858FE4F282F277081E090E001C0E8
:100B3000880F2A95EAF78095928189238283089508
:100B4000E2E7F1E09191891303C0DF0111971C9254
:100B500091E0E837F907B1F7089590910C019923D6
:100B6000C1F090918C0397FF14C0E82FE695E695AD
:100B7000E695EE31F8F4F0E0E858FE4F877021E09A
:100B800030E001C0220F8A95EAF78281822B8283AE
:100B90000895A2E7B1E0EFEF90E02D91821751F0B8
:100BA000EF3F19F4211101C0E92F9F5F9630A9F79B
:100BB000EF3F09F408950E2E000CFF0BE059FE4F95
:100BC000E6CFA3E0B0E0E7EEF5E00C94F32A209145
:100BD0008A0330918B0328173907A1F090938B0378
:100BE00080938A03E0918803F0918903309751F054
:100BF00024E029839B838A830084F185E02DCE0144
:100C0000019609952396E2E00C940F2BA3E0B0E047
:100C1000ECE0F6E00C94F32A2091860330918703F0
:100C200028173907A1F09093870380938603E091FA
:100C30008803F0918903309751F023E029839B8347
:100C40008A830084F185E02DCE01019609952396D3
:100C5000E2E00C940F2BE0918803F0918903309728
:100C600029F00190F081E02D0995089580E0089524
:100C70004115510511F0FA0109950895CF93DF93BD
:100C8000EC0140917403509175036091760370916B
:100C900077032FB7F89480918F0390919003A091E0
:100CA0009103B09192032FBF841B950BA60BB70B3A
:100CB000843F9140A105B10518F58091740390918E
:100CC0007503A0917603B09177038093700390939E
:100CD0007103A0937203B093730384EF91E0A0E0DB
:100CE000B0E080936C0390936D03A0936E03B09378
:100CF0006F03D0937C03C0937B03DF91CF91089562
:100D00000E946A056093700370937103809372036D
:100D10009093730382E390E0A0E0B0E0E2CFFC01A7
:100D20008481862351F492819923B9F069238085C7
:100D300083FF05C081E061110FC080E00895892F15
:100D40008F7092959F70982B862F8F7062956F7021
:100D5000682B81E09613F1CF089581E0FDCFDC018F
:100D60006091660380916703962F891301C00895EF
:100D7000292F30E0F901EE0FFF1FE25AFC4F4081AE
:100D800051814A175B07A1F487E08A9FA0018B9FDE
:100D9000500D11244E525D4F81E0FA018483961369
:100DA000E6CF2F5F3F4F23703327209366030895CC
:100DB0002F5F3F4F922F9370D8CF1092D002109296
:100DC000CF02E2EDF2E08581811102C01482168229
:100DD000379682E0E53FF807B1F70895EEE2F2E0DA
:100DE00090E080E06CEC71E243EF51E22EE431E2FE
:100DF00077836683518740873387228797878687E3
:100E0000019670968530910599F7089581152CE724
:100E1000920741F420916A0330916B03232B11F464
:100E200090E080E0089580E00895F894E82FE2953E
:100E3000EF70F0E031A1282F2F7081E090E001C029
:100E4000880F2A95EAF7982F9095932391A392A162
:100E5000892B82A37894089590918C0392FF10C0FF
:100E600041E0282F2471243009F040E031E0282FA0
:100E70002871283009F030E0431711F02CE0822768
:100E800093FF10C041E0282F2471243109F040E085
:100E900031E0282F2871283109F030E0431711F094
:100EA0002CE0822730918D0330FF10C051E0282FB5
:100EB0002171213009F050E041E0282F28712830BD
:100EC00009F040E0541711F029E0822731FF10C0EB
:100ED00041E0282F2171213109F040E031E0282F35
:100EE0002871283109F030E0431711F029E08227FA
:100EF00094FD877E089582389105B9F1B0F481336D
:100F0000910509F47DC048F48932910509F46DC05A
:100F10008A32910509F47BC008958533910509F45F
:100F20005FC08933910509F10895833E9105D9F198
:100F300038F4803E910529F1823E910579F10895BA
:100F4000863E9105D9F1873E910509F43EC0843E65
:100F5000910541F520918D0321FF24C080918C03E0
:100F600084FD19C087EE90E0089520918C032370D2
:100F700009F05AC020918D0323FF14C089E290E04C
:100F8000089520918C0320FD38C030918D0330FFEF
:100F900009C024FF43C090E080E0089520918C03B5
:100FA00022FDF7CF089520918C0322FD3AC03091A5
:100FB0008D0330FD39C024FFF5CFEDCF20918C0398
:100FC00023FFF0CF24FDE7CFCDCF20918C0323FD6D
:100FD0002EC030918D0331FFEECF84EE90E0089566
:100FE00020918C0325FFDECFC9CF20918C0325FDF6
:100FF00021C020918D0323FFD5CF89E390E0D2CF8C
:1010000020918C0326FFCECF8AE290E008952091B4
:101010008C0326FFC7CF81E390E0089583EE90E034
:10102000089582EE90E0089580EE90E0089586EEB7
:1010300090E0089585E390E008951F93CF93DF93A8
:101040000E947B07EC01C11580E5D807F0F5C115BA
:1010500080E4D80708F09CC0C03ED10520F5CD3C07
:10106000D10508F082C0C83AD10578F4C53AD10557
:1010700008F073C0C130D10519F1209709F1C430CF
:10108000D105F0F4D0E0C0E01BC0C33CD105D0F7DF
:10109000C85AD0E0CC0FDD1FC85EDE4F0990D88162
:1010A000C02DD4640DC0C11580E2D80708F0D1C0AE
:1010B000C11581E0D80708F05AC0C83ED10510F725
:1010C000CE01DF91CF911F910895C03682E5D807F8
:1010D00018F5C03482E5D80708F06BC0C03282E54D
:1010E000D80708F05FC0C11582E5D80708F497C09B
:1010F0002C2F2695269580E2289F900111248C2F75
:101100008370C1E0D0E002C0CC0FDD1F8A95E2F70A
:10111000C22BD32BDD68D4CFC03A82E5D80760F468
:10112000C03882E5D80708F459C0CF71D0E0DC2F71
:10113000CC27C46FD06AC4CFC03C82E5D80708F47E
:1011400062C0C03E82E5D80708F09CCFDC2FCC27D8
:10115000CC27DF71C06FD06AB3CFC55AD0E0CB5E69
:10116000DE4FC881D0E0D064ABCFD065A9CF8D2F42
:101170000E942C07182FCE0199270E947B07C12FB0
:10118000D0E0DC2FCC27CC27DF71C82BD92B98CF10
:10119000CE0199270E947B07CC27DF70C82BD92B63
:1011A000D06A8ECFCF71D0E0DC2FCC27C16FD06A50
:1011B00087CF2C2F26952695277080E2289F9001B7
:1011C00011248C2F8370C1E0D0E002C0CC0FDD1F52
:1011D0008A95E2F7C22BD32BDC6872CF2C2F269591
:1011E0002695277080E2289F900111248C2F837010
:1011F000C1E0D0E002C0CC0FDD1F8A95E2F7C22B20
:10120000D32BDA685DCF8C2F8F710E942C07C82FEB
:10121000D0E0DC2FCC27CC27DF71D06251CF8C2FD0
:101220008F710E942C0755E0D695C7955A95E1F726
:10123000CF70D0E0DC2FCC27282F30E084FF05C012
:1012400044E0220F331F4A95E1F7C22BD32BD0691C
:1012500037CF8D2F8F710E942C07182FCE01992721
:101260000E947B07C12FD0E0DC2FCC27CC27DF7179
:10127000C82BD92BD2CF8091ED01882331F0109269
:10128000ED011092EC011092EB0108959091ED01A7
:10129000292F282361F0809589238093ED018823ED
:1012A00039F00E9476059093EC018093EB0108954C
:1012B00090E080E0F8CF80959091820398239093FE
:1012C00082030895809590918303982390938303DC
:1012D0000895CF9380918303C0918203C82B80919E
:1012E000ED01882309F10E9476052091EB013091F0
:1012F000EC01821B930B8838934110F00E943B094C
:101300008091ED01C82B80910C018823B1F0809170
:101310008C0387FF12C08EE12AE731E090E0815014
:1013200080F491110E943B098091780380958C2371
:1013300090917903892BCF91089586E022E731E0DF
:10134000EDCFF90141919F01442349F39F5FE7CF1E
:101350001092C2011092C1011092C00108959091A3
:10136000BF01292F282321F0809589238093BF0175
:1013700008958091F3039091AA03981301C00895F2
:101380008F5F8770FACF292F9A3078F5873068F50C
:1013900090E037E0239F800D911D1124682F677026
:1013A00023E0969587952A95E1F7FC01EE0FFF1F44
:1013B000E80FF91FE556FE4F50E040E080E0219134
:1013C00030E0062E02C0369527950A94E2F7217088
:1013D0003327042E01C0220F0A94EAF7822B4F5FB5
:1013E0005F4F4330510559F7089580E00895292F44
:1013F0009A3098F5873088F590E037E0239F800D8C
:10140000911D1124282F277041E001C0440F2A9517
:10141000EAF723E0969587952A95E1F7FC01EE0F10
:10142000FF1FE80FF91FE556FE4F30E020E070E0A7
:101430005191DF011197CB01022E02C0969587953D
:101440000A94E2F7817081958527842385278C9300
:101450002F5F3F4F2330310559F708958093FE01E8
:1014600008959091FE0121E030E0F90101C0EE0FF6
:101470008A95EAF7D90102C0AA0FBB1F6A95E2F765
:10148000EA2B01C0220F4A95EAF7892F8E23E81331
:1014900005C0292B822F0E942E0A0895209529230A
:1014A000F9CF21E030E001C0220F8A95EAF72095BC
:1014B0008091FE0182230E942E0A08959091C2011C
:1014C000809589238093C201282F277069F489179A
:1014D00059F090918D0392FF07C086958695869569
:1014E0000E94510A0E94A809089521E030E001C03D
:1014F000220F8A95EAF78091FE01822B0E942E0A24
:10150000089590918D0392FF10C098E0899F9001FB
:101510001124622B6093C2010E94750A0E94760515
:101520009093C1018093C00108950E94750A0895A7
:101530008093FD0108959C013A9521153F4150F596
:10154000FC01EE27F170BC0166277270AC014427E4
:1015500054709C012227387094FF0EC080E1EF2B5D
:1015600009F480E0672B09F08062452B09F0806464
:10157000232B89F08068089581E0EF2B09F480E047
:10158000672B09F08260452B09F08460232B19F04A
:101590008860089580E008950F931F93CF93DF93A1
:1015A0008B01EA019091A003943061F58093E900EA
:1015B0008FEF9091E800815095FD06C095ED9A95CA
:1015C000F1F700008111F5CF8091E80085FF1AC086
:1015D0000E940B04811111C08091E80085FD06C0B6
:1015E0008091E8008E778093E800F2CFF801819136
:1015F0008F018093F100219779F78091E8008E7731
:101600008093E800DF91CF911F910F91089543E0FF
:1016100050E0BC0184E00E94CC0A089540E250E012
:10162000BC0184E00E94CC0A0895CF93DF93EC01C3
:1016300048E050E0BC0181E00E94CC0A88E0FE0155
:10164000A6E9B3E001900D928A95E1F7DF91CF9181
:101650000895CF93C82F6FEF81116DE184E290E080
:101660000E94652B6FEFC1116AE685E290E00E944F
:10167000652B6FEFC1116EE386E290E00E94652B4F
:10168000CF910895CF93DF93CCE5D3E060E0CE0116
:101690000E94652B2196C11584E0D807B9F7DF9128
:1016A000CF9108951F93CF93DF93122F8530E0F4ED
:1016B0006A30D0F44730C0F4C42FD0E0CC0FDD1F27
:1016C0009EE0699FC00DD11D11249CE8899FC00D2B
:1016D000D11D1124632FCE0188960E94652B612FA6
:1016E000CE0189960E94652BDF91CF911F910895BD
:1016F00084E290E00E94472B8D3189F485E290E0EE
:101700000E94472B8A3659F486E290E00E94472BCC
:1017100091E08E3309F090E0892F8170089580E088
:10172000FCCF0F931F93CF93DF93853030F56A3052
:1017300020F5473010F5C42FD0E0CC0FDD1F2EE090
:10174000629FC00DD11D11243CE8839FC00DD11DA7
:101750001124CE0188960E94472B082F10E0102FED
:101760000027CE0189960E94472B9801282BC9019A
:10177000DF91CF911F910F91089590E080E0F8CF15
:10178000462F20911B0230911C02232B99F4703FAD
:1017900039F4603F79F480911D0290911E02089502
:1017A0007A3040F4673030F4853020F4672F0E949F
:1017B000910B089590E080E00895CF92DF92FF9220
:1017C0000F931F93CF93DF936C010091FE018091E3
:1017D000FD01082BC4E0D0E010E0FC2EC8010C2E67
:1017E00002C0959587950A94E2F780FD0CC0219779
:1017F000A0F7F12C8F2DDF91CF911F910F91FF90CA
:10180000DF90CF900895B6018C2F0E94C00B0E94EC
:101810001D08019761F3EECFCF93DF93EC010E9497
:10182000DD0BBE010E94C00B0E941D08DF91CF910D
:101830000895FC0184818823F9F0878190850097C1
:1018400091F00E941D0892959F709630B9F080F437
:10185000925F9F70923080F4803F19F058F4883E78
:1018600058F481E00895808191810E940C0CEBCFA7
:101870009A5FEFCF843FA9F380E00895883E88F314
:10188000813FD1F7EECFA6E0B0E0E9E4FCE00C94B4
:10189000F22A9C01FC01878190850097E1F486E0A3
:1018A000DE01119601900D928A95E1F7F9012581EB
:1018B00089819A81222399F0662389F00E94DD0BA9
:1018C000182F682F89819A810E94F70969817A818E
:1018D000812F0E94C00B2696E3E00C940E2B0E94F1
:1018E000C309182FF3CFAEE1B0E0E9E7FCE00C94B8
:1018F000E82AA0906A03B0906B0381E090E0909397
:101900006B0380936A038BE3C82E83E0D82E00E03C
:10191000760110E015C0F40125913591472D612F16
:10192000802F0E94520B82E0880E911C7394E7E096
:101930007E12F1CFFEE0EF0EF11C1F5F1A3019F09E
:101940004701712CE8CF0F5F8CE8C80ED11C053021
:10195000F9F61A8219821C821B821E821D82188649
:101960001F8288EC90E09A87898704EE12E04AE0B3
:1019700050E0B801CE0101960E94892B065F1F4FEF
:101980000631E3E01E0799F77E01FBE0EF0EF11C44
:101990008AE0F70111928A95E9F74AE050E0B80130
:1019A000C7010E94892B065F1F4F0834F3E01F0711
:1019B000A1F78E010B5E1F4F8AE0F80111928A9504
:1019C000E9F78FEF9FEF9A8F898F87E08E8F4AE03C
:1019D00050E068E473E0C8010E94892B4AE050E0BF
:1019E00062E573E0C8010E94892BB0926B03A0925C
:1019F0006A036E96EDE00C94042B80E00E94290BA4
:101A000060E087E290E00E94652B0E94730C0E94C8
:101A1000420B81E00E94290B08959B01853070F4F0
:101A20009AE0899FB00111246C517D4F4AE050E04B
:101A3000C9010E94372B90E080E008958FEF9FEF5F
:101A40000895AAE0B0E0E7E2FDE00C94F32A9C01DF
:101A500037552F3F310509F068F4BE016F5F7F4FA6
:101A60000E940D0D892B31F489859A852A96E2E032
:101A70000C940F2B88EC90E0F9CFAAE0B0E0E3E4FF
:101A8000FDE00C94EB2A01EB12E088E4E82E83E001
:101A9000F82E97E0B92E20EBC22E22E0D22EAA24F7
:101AA000A3944AE050E0B701CE0101960E94372B83
:101AB000F8013896DF018B2D1D928A95E9F789810F
:101AC0009A81D80111969C938E938F8112968C9354
:101AD00012978D8113968C931397888514968C9307
:101AE0001497898515968C9315978B819C811796F1
:101AF0009C938E93169718961C9218978A8587FF49
:101B00003CC01E961C921E921D9780FF03C0D801F8
:101B10001896AC9281FF04C0F8019085926090877E
:101B200082FF07C0D80118969C9118979460189668
:101B30009C9383FF04C0F80190859860908784FF90
:101B400007C0D80118969C911897906118969C939D
:101B500085FF04C0F801808580628087FAE0EF0E7F
:101B6000F11C015F1F4F8CE5E81683E0F80609F0D1
:101B700098CF2A96EAE00C94072BF801D686C58602
:101B8000C4CFAAE0B0E0E7ECFDE00C94ED2AEEE76C
:101B9000F2E082E3DF011D928A95E9F7E2EDF2E0DF
:101BA00083E2DF011D928A95E9F78EE7C82E82E075
:101BB000D82E7F0106E113E0F701D182C0824AE00E
:101BC00050E0B801CE0101960E94372B88E0FE015B
:101BD0003196D60101900D928A95E1F789859A8513
:101BE000D70113969C938E931297BAE0CB0ED11C1B
:101BF000E7E0EE0EF11C065F1F4F0834F3E01F070D
:101C0000D9F62A96E8E00C94092B90918D0392FB6B
:101C1000222720F9281779F080FB92F990938D0301
:101C200060918C0370918D0384E090E00E94832B7F
:101C300082E00E945E0A089580910C01882359F188
:101C400080918C0387FF27C00E94690980937901E6
:101C500040E250E063EC71E088E791E00E94232BC2
:101C6000892BC1F080E2E8E7F1E0A3ECB1E001905C
:101C70000D928A95E1F7E0918803F09189033097FE
:101C800049F086E0809378010480F581E02D88E7B3
:101C900091E0099508950E9469098093700148E0D8
:101CA00050E063EE71E080E791E00E94232B892BE6
:101CB00089F388E0E0E7F1E0A3EEB1E001900D9256
:101CC0008A95E1F7E0918803F0918903309711F349
:101CD0000280F381E02D80E791E0DBCFCF93DF93AB
:101CE000EC014A855B856E857F850E9438068B8175
:101CF0000E945B098C810E9462090E941C0E86E092
:101D0000FE0111928A95E9F7DF91CF910895CF9363
:101D1000DF93EC018D8181FD17C082608D838091FE
:101D200082039B81892B80938203809183039C8112
:101D3000892B809383030E941C0E488559856E85EC
:101D40007F85CE010E94380610928503109284038D
:101D50008D8180FD03C0CE010E946E0EDF91CF9178
:101D600008951092830380910C018823C1F0809123
:101D70008C0387FF14C0EAE7F1E08EE1DF011D92DA
:101D80008A95E9F790E080E00E94060690E080E006
:101D90000E94E105109282030E941C0E0895E2E762
:101DA000F1E086E0EBCFAAE2B0E0E9EDFEE00C94D2
:101DB000F22A82EA93E02091F100DC012D93CD011B
:101DC000B3E08A3A9B07B9F78091A303833009F403
:101DD00072C0B8F4813009F449C0823009F4B3C04C
:101DE0008091E80083FF96C28091A2039091A303A3
:101DF0009A3008F08FC2E92FF0E0ED55F44D0C94C5
:101E0000D62A8A3009F48EC08B3009F471C089302B
:101E100039F78091A203813219F78091A60390913E
:101E2000A703009711F00297D9F68091E800877F09
:101E30008093E8008091E80082FF38C09091F30021
:101E40008091F200029731F48091F100813011F01D
:101E5000863021F48091F100809395038091E80011
:101E60008B778093E8000E943C04BACF8091A20354
:101E7000813A09F0B5CF8091E800877F8093E80030
:101E80008091A6039091A703892B61F468E086E90D
:101E900093E070E00E94E8048091E8008B778093E3
:101EA000E8009ECF60E090E080E0F3CF8091A00357
:101EB0008111C0CF95CF8091A203813A09F090CFD4
:101EC0008091A6039091A703892B09F089CF809177
:101ED000E800877F8093E8008091E80080FFFCCFD6
:101EE00080910C018093F1008091E8008E77B9CF4A
:101EF0008091A203813209F073CF8091A603909163
:101F0000A703892B09F06CCF8091E800877F80932D
:101F1000E8000E943C048091A40380930C010E947D
:101F2000B10E5ECF8091A203813209F059CF80912A
:101F3000E800877F8093E8000E943C048091A5031D
:101F4000809394034DCF8091A203813A09F048CF4A
:101F50008091E800877F8093E8008091E80080FF0F
:101F6000FCCF80919403BECF803899F0823809F07D
:101F7000D1C18091A6038F70873008F0CBC18093C8
:101F8000E9008091EB0085FB882780F91092E90039
:101F900006C080919E0390919F0391118260909161
:101FA000E800977F9093E8008093F1001092F10091
:101FB0008091E8008E77AAC1882309F498C1823005
:101FC00009F0A8C18091A40381119BC18091A6034F
:101FD0008F702FEF280F263008F09CC18093E90006
:101FE0002091EB0020FF8DC1933031F48091EB0004
:101FF00080628093EB0085C19091EB00906190939B
:10200000EB0021E030E001C0220F8A95EAF720932F
:10201000EA001092EA008091EB008860EACF81111B
:1020200079C11091A4031F778091E3008078812B00
:102030008093E3008091E800877F8093E8000E940E
:102040003C048091E80080FFFCCF8091E300806831
:102050008093E30082E0111183E08093A0035AC1D2
:102060008058823008F056C12091A4033091A50316
:102070002C3DE3E03E07A1F583E08A838AE2898371
:102080004FB7F894DE01139620E03EE051E2E32FD3
:10209000F0E050935700E49120FF03C0E295EF7009
:1020A0003F5FEF708E2F90E0EA30C0F0C7968D93BF
:1020B0009D932F5F243159F74FBF8091E800877FB0
:1020C0008093E8006AE270E0CE0101960E94E80485
:1020D0008091E8008B778093E8001CC1C096E7CF21
:1020E0008091A6039091A703432F552743305105B4
:1020F00009F44AC078F54130510509F485C08BE5F3
:1021000090E0E7EFF5E04230510509F003C120917E
:10211000E800277F2093E8002091A8033091A903CD
:102120008217930708F49C0140E02115310509F05E
:1021300070C041116EC08091E80082FDC9CF8091CE
:10214000A003882329F2853019F28091E80083FFEB
:10215000F2CFBECF4132510509F447C0423251059A
:1021600009F0D8C08330910508F0D4C0FC01EE0F0F
:10217000FF1FEE59FE4F0190F081E02D815A9E4FD6
:10218000DC018C9190E01DC0332721303105E9F04E
:102190002115310579F022303105F9F02330310570
:1021A00009F0B8C0E4E6F6E0E4918E2F90E0E4E6B2
:1021B000F6E007C0E8EAF6E0E4918E2F90E0E8EA66
:1021C000F6E0009709F4A6C0A2CFE6E9F6E0E491B4
:1021D0008E2F90E0E6E9F6E0F4CFE2E8F6E0E49155
:1021E0008E2F90E0E2E8F6E0ECCF8330910508F026
:1021F00091C0880F991FFC01E859FE4F0190F081B2
:10220000E02D89E090E083CF82E190E0E2E5F6E026
:102210007ECF8091A003882309F45ACF853009F43A
:1022200057CF8091E80083FD53CF8091E80082FD75
:1022300082CF8091E80080FF78CF9091F300809169
:10224000F2002115310519F08830910550F041E078
:10225000089709F040E08091E8008E778093E800CD
:1022600064CF44914093F100319621503109019699
:10227000E8CF803809F04EC08091E800877F8093D6
:10228000E8008091A1038093F10092CE811142C0B9
:102290001091A4031230F0F58091E800877F8093BD
:1022A000E8001093A1030E943C04112311F084E084
:1022B00005C08091E30087FDFACF81E08093A00301
:1022C00042E061EC81E00E945B0442E261EC84E068
:1022D0000E945B0442E261EC82E00E945B0442E205
:1022E00060EC83E00E945B048091A00313C08091A6
:1022F000A403813079F481E0933009F080E0809389
:102300009F031092E9008091E800877F8093E800A6
:102310000E943C048091E80083FF0AC08091E8009D
:10232000877F8093E8008091EB0080628093EB00D0
:10233000AA96E3E00C940E2B0E94B10E2FEF84E3DB
:102340009CE0215080409040E1F700C0000088E10F
:102350009AE00FB6F894A895809360000FBE909312
:102360006000FFCF882321F00E945B090E941C0EB1
:102370000895882339F090918203982B90938203DB
:102380000E941C0E0895882321F00E9462090E9479
:102390001C0E0895882339F090918303982B909315
:1023A00083030E941C0E0895882339F19CEF980F37
:1023B000913A28F40E9482050E941C0E089590E232
:1023C000980F983050F4877091E001C0990F8A956A
:1023D000EAF7892F0E946209EFCF9BE5980F9330AF
:1023E00028F490E080E00E9406060895885A8B3118
:1023F00020F490E080E00E94E1050895FF920F93A1
:102400001F93CF93DF93F82E00917D0310917E03ED
:102410000115110509F449C010927C0310927B0349
:102420001092780310927903D8011696CD91DC9121
:102430009E013A9521153F4108F4D07ED1E0C111AB
:1024400001C0D0E0D8011996ED91FC911A97309710
:1024500031F01B966D917C9180E00995D823DD23A6
:1024600039F08CEF8C0F813A30F58C2F0E94820569
:10247000FF2099F0E0917D03F0917E03808584FD3B
:102480000CC080917A03882341F0808191819C0166
:10249000215031092F333E47A0F00E941C0E1092AC
:1024A0007E0310927D0310927A03C801CDB7DEB788
:1024B000E5E00C940C2B0E941C0E8C2F0E94D41172
:1024C000D7CF0E943E06E9CFCF93C82F8823B9F11A
:1024D0008CEF8C0F813AA8F580910C01882301F1D3
:1024E00080918C0387FF1CC0EC2FE695E695E6955E
:1024F000F0E0E858FE4F828190E04C2F477021E0D9
:1025000030E002C0220F331F4A95E2F78223932363
:10251000892B81F08C2F0E9482050E941C0E0AC01C
:10252000E2E7F1E088E791E02191C21799F38E1775
:102530009F07D1F78C2F0E94AD050E941C0ECF91F2
:10254000089580E28C0F883068F4C77021E030E095
:1025500001C0220FCA95EAF780918303822B8093F2
:102560008303EBCFEBE5EC0FE33040F4F0E0EB5E00
:10257000FE4F808190E00E940606E1CFC85ACB3121
:10258000F0F6EC2FF0E0EE0FFF1FE85EFE4F8081CB
:1025900091810E94E105D3CF1F93CF93DF93182F32
:1025A000EB010E946412209739F4812F0E94D4110C
:1025B000DF91CF911F9108958FE99FE00197F1F787
:1025C00000C000002197EFCFB0E0A0E0EAEEF2E11A
:1025D0000C94ED2A6B01C42FD22FFC018581882336
:1025E000A9F0409381030E94760590938003809325
:1025F0007F03C77081E001C0880FCA95EAF70E9487
:10260000CA11CDB7DEB7E8E00C94092B1091810315
:10261000141339C080917F03909180030E945B0561
:102620007C01C6010E94210DE816F90660F5C0E2A2
:10263000CD0F1D17C1F080E2810F883048F417706C
:1026400081E0012E01C0880F0A94EAF70E94C311AD
:10265000C83048F481E09D2F977001C0880F9A958B
:10266000EAF70E94CA1170E060E0802F0E94CC124D
:10267000C83038F6D77081E001C0880FDA95EAF7E4
:102680000E94C311BECFC77081E001C0880FCA95F8
:10269000EAF7F6CFB0E0A0E0E0E5F3E10C94EB2A36
:1026A000EC018AE0A82E2881222309F4A6C021305B
:1026B00009F049C08981813079F48E010E5F1F4F86
:1026C0008A8170E060E0893311F460E570E00E9477
:1026D000CC12E8012196E7CF823039F48E010E5FEB
:1026E0001F4F8A810E946412F4CF833039F48E0127
:1026F0000E5F1F4F8A810E94D411EBCF843011F0FE
:102700002196E8CF2A81229690E080E0AE014F5FCB
:102710005F4F2053330B2A30310550F00097D1F230
:10272000EFE9FFE03197F1F700C000000197F6CF25
:10273000A89EB001A99E700D1124C901860F971F94
:102740002981EA01E3CFE22FF0E0E452F94FB4909F
:10275000822F86958695869590E0FC01E453F94F8B
:10276000E4902770F12C022E02C0F594E7940A94AD
:10277000E2F7F1E0EF22FF24FC01E454F94FC490AA
:10278000D12C022E02C0D594C7940A94E2F731E00E
:10279000C322DD24FC01E455F94F049110E002C08E
:1027A000159507952A95E2F701701127E114F104B8
:1027B00019F081EE0E946412C114D10419F086EE62
:1027C0000E94641270E060E08B2D0E94CC12C11454
:1027D000D10419F086EE0E94D411E114F10419F02D
:1027E00081EE0E94D4110115110509F473CF70E038
:1027F00060E08CE20E94CC126DCFCDB7DEB7EAE08C
:102800000C94072BCF93DF93EC010E949B0A9E014F
:10281000205E31092830310510F0209741F40E94E4
:10282000CA118C2F0E946412DF91CF9108950E94EB
:10283000B911F7CFA8E0B0E0E0E2F4E10C94E32AAC
:102840007C01DC0114968C91882309F463C161E05A
:10285000C7010E94430C8C01F7018581882321F177
:10286000E0918403F09185033097F1F00E171F0774
:10287000D9F0FF27E530F10508F069C0A4E0EE0FBC
:10288000FF1FAA95E1F7E25DFD4F85818460858396
:1028900011830083CF010E94870E1092820361E0B2
:1028A000C7010E94430C8C01D70115968C91882397
:1028B00009F4BBC0C80197578038910508F0E8C0FB
:1028C000D02EBFE0B01708F415C18FEF93E00E943F
:1028D000472B81110FC10CE513E0D1103BC0E4E0A0
:1028E0004E2E9E012F5F3F4F390133243A94D3017E
:1028F000E42D1D92EA95E9F76801FFEFCF1ADF0A90
:10290000C8010E94472B8983882309F4F3C08130D2
:10291000D1F4580122E0A20EB11CC6010E94472B3F
:10292000582E8A83882309F4E5C08FEF850D833004
:10293000F8F4680133E0C30ED11CC5010E94472B97
:102940008B838823F1F1C3010E944A133AC0F0E05F
:10295000E0E09BCF0115E4E01E0709F4CBC0C801FD
:102960000E94472B811101C0DA940F5F1F4FB5CF32
:102970008BEF850D833068F5480143E0840E911C90
:10298000C5010E94472B8B8364018823D1F0680125
:1029900054E0C50ED11CC4010E94472B8C838823B0
:1029A00081F08B819C818130AFEF9A0710F0982FD6
:1029B0008827B6E05B1639F0E7E05E1639F00E9432
:1029C000C121860194CF0E949C21FBCF0E94162139
:1029D000F8CFF4E065015F12F4CFC5010E94472BE8
:1029E000B82E680124E0C20ED11CC80103960E94D3
:1029F000472BBB2009F47EC0882309F47BC0482FF5
:102A00004150550B349EC001359E900D1124AB2DC5
:102A1000A150BB0B8A0F9B1F019798F2EFE9FFE0D3
:102A20003197F1F700C00000F7CF680127E5D21A0F
:102A30003FEFC316D10409F058F564E272E08C2D23
:102A40000E940D0D892B21F5C60164E0880F991FA6
:102A50006A95E1F7FC01E25DFD4F22812130A1F58D
:102A60002091240230912502232B91F020912602FF
:102A700030912702232B61F0209128023091290206
:102A800040912A0250912B02242B352B232B21F12C
:102A9000D70115965C90552009F440C00E35BCE76F
:102AA0001B0729F10F35ECE71E0741F00D35FCE758
:102AB0001F07A1F5809100018823C9F01092000141
:102AC00080E00E94FE1116C0223011F720912802EA
:102AD00030912902232BE1F2FC01ED5CFD4F2081B6
:102AE0002E7F2083825D9D4F0E94870ED1CF81E093
:102AF000809300018091C201877061F0D701159623
:102B00008C91882339F080918D0382FF03C082E08D
:102B10000E945E0A2896E2E10C94FF2A809100014F
:102B2000882309F449C4380120EE621A71084090E4
:102B3000ED018091BF01482A80918303482A38E043
:102B40006316710408F087C098012770332781E06D
:102B500090E001C0880F2A95EAF7552009F478C063
:102B6000482AD7018D919C910E94C30921E030E051
:102B7000F90102C0EE0FFF1F8A95E2F7FE83ED8395
:102B800020917D0330917E0338872F832090980118
:102B90003090990151EBC52E52E0D52EB12CA12CCD
:102BA000B2E0AB16B10409F466C4411005C0D60109
:102BB00012968C91811189C0F601838190E02D815C
:102BC0003E8182239323892B09F47FC08085982F2F
:102BD000977009F487E038E06316710408F055C077
:102BE000552009F44EC086958170882309F46DC084
:102BF000D6018D909C900815190519F4552009F4FB
:102C000064C0EF81F885EC15FD0509F45EC0D601BE
:102C10001D96ED91FC91309721F08081882309F475
:102C200054C0642DC6010E948F06882309F44DC04C
:102C30000815190509F079C40115110509F47AC4BC
:102C400051107AC48214930409F03FC0512C74C40B
:102C50008095482286CF552009F4F6C31093990138
:102C6000009398010E946A05609374037093750342
:102C7000809376039093770310927C0310927B03EA
:102C800070CF82FB882780F9B0CF5520F1F081709A
:102C9000ACCF0E94D41175C40497813A910548F4D1
:102CA0008C2D0E94AD05552009F486C30E941C0E90
:102CB00021CF0E941C0E8FE39CE90197F1F700C021
:102CC00000008C2D0E946412EECF9FEFA91AB90A62
:102CD000AFE0CA0ED11C64CFDC012D913C910217EC
:102CE000130709F063C3511063C310927A0380E0A5
:102CF0000E94FE1161C3902F812FA1C3F901448569
:102D0000558566857785C9010E943806D6011596D6
:102D10008C9181FFC4C3C6010E946E0E8091840312
:102D2000909185030817190709F0B9C3109285031C
:102D300010928403B4C306E221EE41EE6AE17CE71F
:102D4000C7010E94E412D6CE07E225EE45EE6BE104
:102D50007CE7F6CF06E221EE40EE68E17CE7F0CFBB
:102D600007E225EE44EE69E17CE7EACF06E221EED8
:102D700042EE6CE17CE7E4CF07E225EE46EE6DE142
:102D80007CE7DECF08E221E045EE6EE17CE7D8CFBC
:102D900080918C03816080938C0395C080918D031A
:102DA000886080938D038FC080918C038260F3CF05
:102DB00080918C038460EFCF80918C038860EBCF8F
:102DC00080918D038160EDCF80918D038260E9CF8A
:102DD00080918C038061DFCF80918C038062DBCF98
:102DE00080918C038064D7CF0E94B10E80918C03B8
:102DF0008068D1CF80918C038C60CDCF80918D0382
:102E00008360CFCF80918C038E7FC5CF80918D035F
:102E1000877FC7CF80918C038D7FBDCF80918C033E
:102E20008B7FB9CF80918C03877FB5CF80918D0345
:102E30008E7FB7CF80918D038D7FB3CF80918C0330
:102E40008F7EA9CF80918C038F7DA5CF80918C033D
:102E50008F7BA1CF0E94B10E80918C038F779BCF87
:102E600080918C03837F97CF80918D038C7F99CF46
:102E700080918C0382FB992790F921E0922790FBA7
:102E800082F990FB83F987CF80918D03982F9095DD
:102E900091708E7F892B90FB81F983CF90918C0369
:102EA000892F8F7B96FF806476CF0E94B10E909120
:102EB0008C03892F97FB87F980586DCF61E08EE0F6
:102EC00090E00E94652B60918C0370918D0384E0EB
:102ED00090E00E94832B0E94B10E0CCE60E0EFCFF9
:102EE00090918C03892F8F7E94FF806154CF9091B5
:102EF0008C03892F8E7F90FF81604DCF90918D0341
:102F0000892F877F93FF88604CCF85E3FEC285E3DE
:102F100009C381E00E94750A43E062E081E00E94FB
:102F2000310AE8CD81E00E94510AF6CF82E0F2CF6B
:102F30000B355CE7150749F10C358CE71807D9F01C
:102F40000A351C4709F08BC381E01CC00E94B10EFA
:102F5000AFEFB4E3ECE0A150B040E040E1F700C0D7
:102F600000000E944A056FEF7FEF90E080E00E9432
:102F7000832B0E949C1180918D0382FB882780F90E
:102F800091E089270E94050E6AC380E0FBCF85810E
:102F900000811181882369F0C8010E94DD0BD82EC1
:102FA000682FC8010E94F709B8018D2D0E94C00B3F
:102FB0005CC3C8010E94C309D82EF6CF212F2F7001
:102FC000D22E107F19F0D29490EFD922CC20B9F0F4
:102FD000DD2069F080E2800F883010F0011109C017
:102FE00080918303D82AD09283030E941C0E802FE5
:102FF00040C080918203D82AD0928203F6CF802FDE
:103000000E94D411DD20B9F180E2800F883010F0E9
:10301000011104C08D2D0E94620903C08D2D0E94F4
:103020005B090E941C0E27C0312F3F70D32E107FEA
:10303000103219F0D29480EFD822002351F00130E1
:1030400009F487C0CC2009F493C0BB2009F441C027
:10305000CECF80918D0382FD38C0CC2081F1DD2060
:1030600039F080918303D82AD09283030E941C0EEA
:1030700080E00E946412E92DE850FF0B349710F4B1
:103080000E942B06AA20B1F08091C20180FD12C0DF
:10309000D70115961C928695869586950E94750A8D
:1030A000C7010E941A148091C20186958695869563
:1030B0000E94510A60E0C7010E94430C2BCD80E0C2
:1030C0000E94D411DD20B9F2A5CFCC2069F1B11056
:1030D00004C08D2D0E94CA11CECF41E0B41210C0A1
:1030E0001091ED018D2D8123D81629F20E947605CD
:1030F0009093EC018093EB01D12AD092ED01BBCFEC
:1031000055E0B512B8CF8D2D0E94CA118D2D0E94A9
:1031100046098091BF019D2D9823D91609F4ABCFA4
:10312000D82AD092BF01A7CFB1100AC08D2D0E941E
:10313000C3118D2D0E9446098D2D0E94AF099BCF92
:1031400081E0B81298CF809183038D2109F493CF49
:10315000EDCFCC2029F095E09B1508F48CCFB9CFAA
:10316000A4E0AB1508F487CF8D2D0E94C31183CF47
:10317000BB20D1F3093349F4BFEFE7EEF3E0B150E0
:10318000E040F040E1F700C00000802F0E94D41121
:1031900072CF812F86958695837061F0813009F01A
:1031A0006ACFC8019370C11002C080E090E00E9415
:1031B000E10561CFC8019370C11002C080E090E0CA
:1031C0000E94060658CF812F837089F5C11053CF16
:1031D000402F429546954770440F440F802F8F70C3
:1031E000042E01C0880F0A94EAF7202F207104FFF3
:1031F00007C02FE030E001C0220F4A95EAF7209582
:10320000169516951370123069F050F43091FD0147
:10321000113029F0822B83230E94980A2CCF832B14
:10322000822BFACF282B8091FD018227F5CF86953E
:10323000CC2011F0812F8170882309F41CCF402FFE
:10324000429546954770440F440F802F8F70042E8F
:1032500001C0880F0A94EAF7202F207104FF07C0ED
:103260002FE030E001C0220F4A95EAF7209516952D
:1032700016951370123069F050F43091FE01113040
:1032800029F0822B83230E942E0AF5CE832B822BDA
:10329000FACF282B8091FE018227F5CF1F70CC201A
:1032A00029F0812F0E94750A802F14CF802F0E9451
:1032B000C311812F0E94510ADECE023F89F160F4D2
:1032C000003FB9F0013F81F0CC2009F45FC0B1109C
:1032D0008ECE812F8F7128C0033F49F1043FA1F7A3
:1032E00080918D0382FD2FC0812F8F71CC2011F32F
:1032F0001BC0CC2081F024E02B1508F4BCCE1F713C
:1033000081E090E0012E01C0880F0A94EAF79091C5
:10331000FE018927B8CF35E03B1508F4ACCEEFCFDE
:10332000812F8F71C110C6CF0E94750AA4CE80E094
:10333000CC2009F4A8CF1F7181E0012E01C0880FB5
:103340000A94EAF7A0CFCC20B1F08091C201877037
:10335000843041F40E94A809812F8F710E94510A84
:10336000A12C89CE44E063E04B15D0F3812F8F71FF
:103370000E94810AF5CF54E05B1520F40E94A80951
:1033800064E0F4CF81E00E945E0AEACFBB2059F0EE
:10339000093309F0FACE8FEF97EEA3E08150904009
:1033A000A040E1F7F0CE812F8F7184CF552021F01E
:1033B000FC01808585FF9BCCC8019755F8018F3FA4
:1033C000910511F008F088C0FF27E530F1050CF0F9
:1033D00091CB44E0EE0FFF1F4A95E1F79F01225D7C
:1033E0003D4F6901D70115968C91ED5CFD4F9081A1
:1033F00080FB90F99083882309F480CC0E947605A5
:1034000090930B0280930A02F60182818F5F828380
:103410008091820390918303892B83838091ED01B6
:1034200084834681578166857785C6010E94380668
:10343000D60115968C9181FF5ECC90E080E0909350
:103440008403809385032BC080919801909199010A
:103450000817190781F4109299011092980110929F
:1034600074031092750310927603109277031092F2
:103470007C0310927B0380917D0390917E030097E3
:1034800009F49ACFE8E06E16710408F025CC642D9B
:103490000E948F06811103C081E00E94FE11F70196
:1034A00085818823A9F110928103C80190578397E1
:1034B000E0F484E090E00E944F2B90938D03809382
:1034C0008C03F801E150F047E232F10508F060CCDE
:1034D000E355F44D0C94D62AE851FC47E730F1054A
:1034E000F0F6E153F44D0C94D62A0631BCE71B07E5
:1034F00009F09BC0809183038A7A91E009F490E0FF
:1035000090939A01811101CD89E20E94AD05CECB45
:103510000631ECE71E0709F07CC080919A01811109
:10352000F6CC89E20E948205C1CB8114910409F096
:1035300089CB512C912C812C80E00E94FE11D092DD
:103540007E03C0927D0381E080937A038FE08A9DA1
:10355000F0018B9DF00D1124EF54FD4F8581809378
:10356000780351100EC08114910459F0808191812B
:103570009C0124503109213A310508F08ACB0E9480
:1035800082058FE08A9DF0018B9DF00D1124EF5490
:10359000FD4FC680D780C6019A9581159F4110F4D2
:1035A000E0EEDE2299249394C60101978F339E4763
:1035B00008F0912C8FE08A9DD0018B9DB00D1124D5
:1035C000AF54BD4F1996ED91FC911A97309731F099
:1035D0001B966D917C9181E0099598229920B1F01C
:1035E0008FE08A9DF0018B9DF00D1124EF54FD4F6B
:1035F000868197810E949B0A80937903C60128E007
:103600006216710408F048CB0E943E060E941C0E10
:103610004ACB0737FCE71F0709F484CC82E0083760
:103620002CE7120709F47FCC1AC007373CE71307D1
:1036300009F46FCC08374CE7140709F477CC033052
:10364000FCE71F0709F48FCC08F072CC01153CE7AA
:10365000130709F47BCC01301C4709F48ACCF7012D
:1036600087819085009709F492CC0E941D088C01F7
:10367000F701C580B680B2943FE0B3228091C201C9
:10368000877001F1AC2CCC20F1F0812F807F803449
:1036900061F080E2800F8830A8F0812F807E803238
:1036A00021F4023078F0BB2069F080918D0382FF15
:1036B00009C082E00E945E0A8091C2018770AA243C
:1036C000A3948111A12C912E92942FE09222FBE0E1
:1036D000F91508F4D0CCE92DF0E0EA52F44D0C9441
:1036E000D62AB0E0A0E0E7E7FBE10C94EE2A809157
:1036F000BC01807F09F051C08091BB01882309F48F
:103700004CC0E091F30389E0D82E8091AA038E1774
:1037100009F443C00E2F10E0ED9DF0011124E55592
:10372000FC4F84818823F1F1D09EE001D19ED00D21
:103730001124FE01E555FC4F91818091B70198134A
:1037400031C090818091B60198132CC08581811180
:1037500029C0E280F3808091B8019091B901E81A04
:10376000F90A60E086EB91E00E94430C0E94210D73
:10377000E816F906B8F48091BC018F7080618093DF
:10378000BC01CF54DC4F88818F708061888386EBC9
:1037900091E00E941A140E94B909CDB7DEB7E7E0A4
:1037A0000C940A2BF8013196E770AFCFA8E1B0E096
:1037B000ECEDFBE10C94E62A8C0186E0F801DE01D9
:1037C000539601900D928A95E1F7F801F480E58017
:1037D00086EB882E81E0982E8091BA0181112AC053
:1037E000F11003C0FF24F3941CC0EE20F9F0C801CF
:1037F0000E94190CF82E8823C9F089E0F801A6EB85
:10380000B1E001900D928A95E1F78091BA01813083
:1038100031F48091B6019091B7010E940C0C0E9486
:10382000711B8F2D6896EFE00C94022BC8010E944B
:103830001A14D8CFC280D380B090BB018091B80158
:103840009091B9013601681A790ABB2009F420C1A8
:103850005080A18060E086EB91E00E94430C0E94C2
:10386000210D6816790608F0BDC0FF2009F4BACF13
:103870008091BC01382F307F2091B701F8019181F0
:10388000311161C0FE2C29131DC02091B601908119
:10389000291318C04091BD015091BE012781308588
:1038A0004217530779F4E11047C08F70806180930D
:1038B000BC0186EB91E00E941A148091BC01F801D2
:1038C0008683AFCFE11038C06A2D852D0E94CD03CD
:1038D0006A2D852D0E94CD03E82E8111A2CF5B8A2F
:1038E000AC8A8B899C890E940C0C292F22952F7001
:1038F000243058F49F70223088F0992399F0F80111
:103900009681907F79F4FE2C8CCF2A5F2F70223025
:1039100068F0C8010E941A14EB2CF5CF992311F01E
:10392000882389F3805E883070F3F3CF803F58F3AB
:10393000815F833070F7E7CF8091BC018160809315
:10394000BC01F12C6ECF29131EC02091B6019081CD
:10395000291319C04091BD015091BE0127813085C6
:103960004217530781F4E1100EC08683C8010E94FC
:103970001A1489E0F801A6EBB1E001900D928A9546
:10398000E1F7FB2C4ECFC8010E94190C882309F4E3
:103990004DCFEE2009F44ACF8091BC018032B8F0BF
:1039A0002091B6013091B7013B872A87DD86CC860E
:1039B0009091BA019E871F86888B8091BD0190915E
:1039C000BE019A8B898BCE010A960E941A1489E057
:1039D000F801A6EBB1E001900D928A95E1F70E9403
:1039E000711B00CF8091BC01982F907F51F486EB22
:1039F00091E00E941A1489E0F40111928A95E9F786
:103A0000A0CFFF2009F4EECE2091B701F8019181FB
:103A100029131AC02091B6019081291315C0409135
:103A2000BD015091BE01278130854217530761F4D3
:103A3000E1100AC08683C8010E941A1489E0F401CB
:103A400011928A95E9F79DCFC8010E94190C88232D
:103A500009F4ECCEEE2009F4E9CE8091BC0180326D
:103A600008F4B5CF2091B6013091B7013A8329838C
:103A7000DC82CB829091BA019D831E828F838091DC
:103A8000BD019091BE0199878887CE0101969DCF97
:103A900060E086EB91E00E94430C0E94210D6816C5
:103AA000790608F0A8CFFF2009F49CCEFE2CEE206A
:103AB00009F4BCCE9091B701F8018181981336C00A
:103AC0009091B6018081981331C02091BD01309151
:103AD000BE01878190852817390741F58091B8018B
:103AE0009091B901C81AD90AF8ECCF16D104A8F4FC
:103AF0009091BC0190FD11C0907F79F08091BC0144
:103B0000F8018683903F31F0982F907F905F8F70FF
:103B1000892B8683C8010E941A1489E0F801A6EB5C
:103B2000B1E001900D928A95E1F77BCEC8010E9429
:103B3000190C81114CCF8091BC0181608093BC0134
:103B4000C8010E941A146DCEA2E1B0E0EAEAFDE1DC
:103B50000C94F12A0A871B872C873D874E875F8745
:103B6000688B798B8A8BCE010A960E94D61B8111B5
:103B70000CC089E0FE013A96DE01119601900D928B
:103B80008A95E1F78E8581110BC019E08091F303CE
:103B90009091AA03891331C06296E4E00C940D2B36
:103BA0002091AA0330E0C9010196877099274091BE
:103BB000F3034817190699F099E0929FD001939F5B
:103BC000B00D1124A555BC4FFE01319601900D9208
:103BD0009A95E1F78093AA030E94B909D6CF0E9473
:103BE000B10E1092AA031092F30389E0E6EBF1E024
:103BF000DF011D928A95E9F7C8CF819FC00111248A
:103C000085559C4F0E94D61B882331F28091F30387
:103C100090E00196877099278093F303B7CFEF92D6
:103C2000FF920F931F93CF93DF938091F502882328
:103C300061F0E091D1028DE0F82E8091F502E81755
:103C400048F01092F5021092D102CDB7DEB7E6E04F
:103C50000C940B2BEE24E394EE0EE092D102CE2FC7
:103C6000D0E0EF9DF0011124EA50FD4F84818823BC
:103C7000E9F087819085892B21F4818592850196D1
:103C800059F40081118122813381448155816681FB
:103C9000778180850E94A41DFC9EF001FD9EF00DA1
:103CA0001124EA50FD4F148210928203EE2DC5CFED
:103CB000109269031092680310920B0180916703C0
:103CC000809366030E94DD060E940F1E0895B0E0F7
:103CD000A0E0EDE6FEE10C94E42AC091660397E0D3
:103CE000992E01E010E02DE0322E34E0432E5524D1
:103CF0005394809167038C1309C00E940F1E0E9489
:103D0000DD06CDB7DEB7E1E10C94002BD0E0FE017B
:103D1000EE0FFF1FE25AFC4F80819181989ED001E7
:103D2000999EB00D1124AE52BD4F14962C9114974C
:103D3000211159C06090F502E6EFF2E030E020E09A
:103D4000812C5D01261508F04CC0E384F484D50174
:103D5000CD90DC906FEF7FEF712C472D50E0DA01B2
:103D6000AA0FBB1FAC0DBD1D0D90BC91A02D1097CF
:103D700031F0EA16FB0609F4BA017394EECF6F3FF7
:103D80007607A9F1D80102C0AA0FBB1F6A95E2F716
:103D90008A2AB801072C02C0660F771F0A94E2F73F
:103DA000AB01415051098416150601F5329EF00110
:103DB000339EF00D1124EA50FD4F989ED001999E3C
:103DC000B00D1124AE52BD4F12962D913C91139718
:103DD00030872783448210821182928781871596CB
:103DE0005C920E94AF062196C37083CF14822F5F2E
:103DF0003F4F3D96A7CFAEE1B0E0E1E0FFE10C948C
:103E0000E32A4B8B5C8B6D8B7E8B8F8B988F911104
:103E100010928203188A198A1A8A86E0FE01739624
:103E2000DE011A9601900D928A95E1F780918D033B
:103E300082FF1CC00E9476052091C0013091C10113
:103E4000821B930B8838934120F08091C20182FF3E
:103E5000E9C10E9476052091EB013091EC01821BB3
:103E6000930B8838934110F00E943B098E8588237C
:103E700089F061E0CE010A960E94430C6C018F85A7
:103E800040E5C4164CE7D40689F4882329F181E083
:103E900080930B010A851B852C853D854E855F85AA
:103EA000688979898A890E94A41DC7C061E5C61600
:103EB0006CE7D60629F4882379F00E94581EEACFD1
:103EC00072E5C7167CE7D70639F4882329F080917C
:103ED0000B018111F2CFDBCF82EDE82E82E0F82ECC
:103EE000512CB12CA12C88248394912CCE010196C5
:103EF0009A8F898F44244394F7014081518166242D
:103F00006A94762C20E0822F90E0FC01EE0FFF1FD8
:103F1000E40FF51F608171816115710531F0C616DE
:103F2000D70609F43C012F5FEECF10E0FFEF6F16CC
:103F30007F0609F443C0F701448110910B01812FE2
:103F4000411180E0182F1170F701358086819F851F
:103F5000992309F4F3C0112309F4F0C0311014C0FF
:103F6000A401062C01C0440F0A94EAF7842B86832F
:103F70008091CF029091D002C29730F462E370E05A
:103F80007093D0026093CF02C40102C0880F991FC2
:103F90002A95E2F70197F70126812817190671F48F
:103FA0008091680390916903009709F44AC00E94C8
:103FB0005B05C39708F445C0F7014482512AFFEF1F
:103FC000AF1ABF0A27E0E20EF11C35E0A316B104D8
:103FD00009F092CF8F85882309F410C1552009F488
:103FE0000DC10E94760590936903809368038091C8
:103FF000F502883010F591E0980F9093F50299E062
:10400000FE013A96DE01119601900D929A95E1F724
:104010004DE0849FC00111248A509D4F29E0FE018C
:104020003196DC0101900D922A95E1F72FEF3FEFD9
:10403000FC0132872187D486C3866E96E2E10C9418
:10404000FF2A8091660350916703982FF0E0E0E02B
:10405000851314C090936603EE16FF0609F4AECFE5
:1040600090E0FC01EE0FFF1FE25AFC4FB182A082EC
:1040700001968370992780936703A0CF282E312C57
:10408000F101EE0FFF1FE25AFC4F20813181F7E072
:10409000F29FD001F39FB00D1124AE52BD4F2D9170
:1040A0003C9111973E8F2D8F40E020E030E0E32FD0
:1040B000F0E0EE0FFF1F6D8D7E8DE60FF71F608025
:1040C000718061147104E1F0F7010190F081E02D3D
:1040D000FC8FEB8F20E005C06616770609F4412FB0
:1040E0002F5FE22FF0E0EE0FFF1F6B8D7C8DE60F50
:1040F000F71F608171816115710571F73F5FD7CF3F
:104100004423C9F0F701231708F0FD014482EE169D
:10411000FF0621F490936603142F50CF891305C036
:10412000AE17BF0711F49F5F937091012F5F3F4F50
:10413000822F83708DCFF0E0E0E0F7CF90E0311078
:1041400020C0B40102C0660F771F2A95E2F79B01D9
:10415000215031092817390731F4442309F44CC0A0
:10416000C5010E94AF06C401062C01C0880F0A9445
:10417000EAF7982F9095F701868189238683132D7E
:104180001DCFAC01062C02C0559547950A94E2F765
:10419000BA01617077279C01215031098223932352
:1041A000892B31F5672B21F1F70182819381892BCE
:1041B000E1F0E98DFA8D27E011922A95E9F70E9446
:1041C0007605282F8B839C8334E03D83F701828121
:1041D0009381782F8887998709811A813C8144E0EF
:1041E0005E816F81892F0E94A41DF7011582BBCFCC
:1041F000F42FF1703F2EB7CF312EB5CF90916603DB
:1042000080916703981729F00E94671E511015CFFF
:1042100041CE0E940F1E10926903109268030E9403
:10422000DD06F4CF82E00E945E0A13CEA6E0B0E085
:10423000ECE1F1E20C94F12A8C0190931E02809340
:104240001D02011580E21807C0F4802F0E94D411CE
:10425000C8010E949B0A9801205E3109283031056F
:1042600018F00115110531F40E94C3112696E4E0FF
:104270000C940D2B0E94B211F9CF80EF89838A83B1
:104280000E9476058160682F9C838B8349815A81C7
:104290007C8181E090E00E94FB1EE8CF0F931F938A
:1042A000CF93DF938C01EB0164E272E08C2F0E94CC
:1042B0000D0D892B71F4DD27C15EDD4F8881F8017A
:1042C000128218828330F1F048F4813059F0823044
:1042D00081F0DF91CF911F910F9108958430B9F053
:1042E0008530B9F78091240290912502009789F3D7
:1042F00006C08091260290912702009799F30E94B0
:104300001621E7CF8091280290912902F6CF809163
:104310002A0290912B02009791F72091240230916C
:104320002502809126029091270221153105F1F294
:10433000009729F7C901E3CFA6E0B0E0E2EAF1E295
:104340000C94F32A90931E0280931D02811520E2A3
:10435000920730F40E9402142696E2E00C940F2B90
:1043600080EF89838A830E9476058160682F9C8311
:104370008B8349815A817C8181E091E00E94FB1E00
:10438000EBCFCF93DF93EC010E949C21CE010E94E2
:104390001621DF91CF9108950F931F93CF93DF9351
:1043A0008C01862F64E272E00E940D0D892BB1F41E
:1043B000C0912402D0912502209781F0F8018281DA
:1043C000833051F4CE010E94C121CE010E94C1214F
:1043D000CE010E94C12102C08430D0F7DF91CF917D
:1043E0001F910F9108950F931F93CF93DF938C012B
:1043F000EB0164E272E08C2F0E940D0D892B09F015
:104400005CC0FE01FF27D80112968C911297E15EE5
:10441000FD4F8130B9F415969C9192FF02C08083C4
:104420000AC090FFFCCF82E08083809126029091A9
:1044300027020097B9F480912402909125020097F9
:10444000E1F110C08230B9F515968C9182FD28C03B
:1044500080FD0BC083E08083809128029091290227
:10446000009701F10E949C2128C084E08083809104
:104470002A0290912B020097A9F780912402909133
:1044800025020097F9F00E94C121809126029091A7
:104490002702009739F78091240290912502E2CFFC
:1044A00085E080838091240290912502009729F075
:1044B0000E94C121F0CF86E08083DF91CF911F91D0
:1044C0000F9108958091260290912702B8CFA6E01F
:1044D000B0E0EDE6F2E20C94F12A0E9476058C0140
:1044E0008091EE019091EF018017910781F0198280
:1044F0001A820E947605682F49815A81792F80E0BF
:1045000090E00E94FB1E1093EF010093EE012696AF
:10451000E4E00C940D2BAAE0B0E0E1E9F2E20C94A7
:10452000E82A8E010F5F1F4F8AE0F80111928A95E9
:10453000E9F78EE4C82E81E0D82EF12CE12CAA24D4
:10454000A394B12C2FE5822E21E0922EF6018191C9
:104550006F018F3F09F442C0F894E82FE295EF70A5
:10456000F0E021A18F70A50102C0440F551F8A956C
:10457000E2F7CA01922F982B91A392A180958923EB
:1045800082A3789400C0E8E5F1E0712C31E021913C
:104590002F3F09F44BC0A22FA295AF70B0E09096C8
:1045A0008C9190E02F7002C0959587952A95E2F73F
:1045B00080FD3CC0832F782A330F8E169F0639F773
:1045C000F601319780818F3F11F00E94150750EA64
:1045D0005A95F1F7F801EE0DFF1D70828FEFE81A82
:1045E000F80AEAE0EE16F10409F0B0CF4AE050E034
:1045F000B80183EF91E00E94232B892BD9F08AE048
:10460000F801A3EFB1E001900D928A95E1F781E006
:104610008093F2010E9476059093F1018093F0015E
:1046200010E0812F2A96EDE00C94042B80E0C3CF9C
:1046300010E01FC01091F201112391F38091F0015D
:104640009091F1010E945B05059750F34AE050E01C
:1046500063EF71E081E192E00E94232B892B41F30B
:104660008AE0E3EFF1E0A1E1B2E001900D928A95DA
:10467000E1F71092F201D5CF1F920F920FB60F9271
:1046800011242F933F934F935F936F937F938F9357
:104690009F93AF93BF93CF93DF93EF93FF93D0910B
:1046A000E900DF708091EC00C82FC17080FDC0E888
:1046B0001092E9008091F000877F8093F000789459
:1046C0000E94D30E1092E9008091F00088608093E0
:1046D000F000CD2BCF70C093E900FF91EF91DF91F7
:1046E000CF91BF91AF919F918F917F916F915F918A
:1046F0004F913F912F910F900FBE0F901F901895E3
:104700001F920F920FB60F9211242F933F934F9346
:104710005F936F937F938F939F93AF93BF93EF9329
:10472000FF938091E10082FF09C08091E20082FF47
:1047300005C08091E1008B7F8093E1008091DA00D9
:1047400080FF24C08091D80080FF20C08091DA00D3
:104750008E7F8093DA008091D90080FF9DC080E138
:1047600089BD82E189BD09B400FEFDCF81E080935F
:10477000A00380919303811109C00E94EC030E9461
:104780008D048091E20084608093E2008091E100DA
:1047900080FF17C08091E20080FF13C08091E2008B
:1047A0008E7F8093E2008091E20080618093E2003E
:1047B0008091D80080628093D80019BC85E08093F6
:1047C000A0038091E10084FF2BC08091E20084FF70
:1047D00027C080E189BD82E189BD89B5982F91709C
:1047E00080FFFBCF8091D8008F7D8093D80080918F
:1047F000E1008F7E8093E1008091E2008F7E8093C4
:10480000E2008091E20081608093E2008091A10348
:10481000882309F447C084E08093A0038091A0031B
:104820008091E10083FF27C08091E20083FF23C0D5
:104830008091E100877F8093E10082E08093A00374
:104840001092A1038091E1008E7F8093E10080911E
:10485000E2008E7F8093E2008091E200806180938D
:10486000E20042E060E080E00E945B048091F000A2
:1048700088608093F000FF91EF91BF91AF919F917D
:104880008F917F916F915F914F913F912F910F90F9
:104890000FBE0F901F90189519BC1092A003109294
:1048A000930374CF8091E30087FD93E09093A0037E
:1048B000B5CF78941F921FB61F9211248F939F93A8
:1048C000AF93BF9380918F0390919003A091910338
:1048D000B09192030196A11DB11D80938F03909317
:1048E0009003A0939103B0939203BF91AF919F91D6
:1048F0008F911F901FBE1F9018951F921FB61F9279
:1049000011248F939F93AF93BF9380918E03811156
:1049100013C080918F0390919003A0919103B09167
:1049200092034196A11DB11D80938F039093900334
:10493000A0939103B0939203BF91AF919F918F91F8
:104940001F901FBE1F901895CDB7DEB7E3970FB627
:10495000F894DEBF0FBECDBF85B7806885BF85B731
:10496000806885BF84B7877F84BF0FB6F894A89509
:1049700080916000886180936000109260000FBE9B
:1049800080E890E00FB6F894809361009093610006
:104990000FBE83E197E090936F0180936E010E94B8
:1049A000EE060E94C10D0E943D0D0E94EC030E9484
:1049B0008D048091E20084608093E200789480917D
:1049C000A0038823A1F01091E9001F709091EC00E2
:1049D000892F817090FD80E8182B1092E90080915A
:1049E000E80083FD0E94D30E1F701093E90082E05F
:1049F00084BD93E095BD9AEF97BD80936E000E94B1
:104A0000780B811102C00E94FD0C0EE411E0A8E5B4
:104A1000EA2EA1E0FA2ED8018D918D018F3F11F081
:104A20000E941507E016F106B1F708E511E0F8015C
:104A300081918F018F3F11F00E941507F1E00F3532
:104A40001F07A9F78AE0E1E1F2E0DF01282F1D92BC
:104A50002A95E9F7E3EFF1E0DF011D928A95E9F786
:104A600090E080E00E944F2B853E9E4F21F40E94F3
:104A7000780B811163C065EE7EEF90E080E00E94CC
:104A8000832B60E082E090E00E94652B81E08093C0
:104A9000FD0161E083E090E00E94652B60E074E13D
:104AA00084E090E00E94832B60E086E090E00E942A
:104AB000652B60E087E090E00E94652B40E050E0CD
:104AC000BA0188E090E00E94772B60E083E290E0FA
:104AD0000E94652B60E08CE090E00E94652B60E016
:104AE0008DE090E00E94652B19821A821B821C8245
:104AF0001D821E821F82188648E050E067E170E048
:104B0000CE0101960E94552B40E050E0BA018FE1A2
:104B100090E00E94772B80E00E94290B0E94FD0C00
:104B200040E050E0BA018FE090E00E94772B40E037
:104B300050E0BA0183E190E00E94772B82E090E0A0
:104B40000E94472B8093FF0184E090E00E944F2B4E
:104B500090938D0380938C030E948B22EFEFF6E7F6
:104B600021E0E150F0402040E1F700C000000E9449
:104B70008B228091110280FF08C06FEF7FEF90E0E1
:104B800080E00E94832B0E944A0583E090E00E940F
:104B9000472B0E94980A81E091E0909389038093CB
:104BA000880381E192E03AE0380F3BABCE010196F9
:104BB0007C01DE011396BAABA9AB8091A00310E48F
:104BC00000E1F2E1DF2E853009F47DC00E948B22E6
:104BD000E0E0CE2EE2E0DE2E01E112E02AE032E05B
:104BE000D801F60191918D912E173F0709F475C0F8
:104BF0009817C1F371E1A72E72E0B72E912CD50161
:104C00008D905D01F60151906F01581421F1712CC6
:104C1000662463945824852D8621A9F07BA69CA642
:104C20000E9476059EA78DA7F1E0FFA791E0882D51
:104C3000862109F490E098AB4BA55CA56DA57EA5F7
:104C40008FA50E94FB1E7394660C27E07212E3CFBF
:104C5000F6013197808293943AE09312D0CF0E946C
:104C60006A053FC08091A003843019F110928E0331
:104C7000E8E1F0E00FB6F894A895E09360000FBE6D
:104C80001093600083B7817F846083BF83B78160A6
:104C900083BF7894889583B78E7F83BF0FB6F894CF
:104CA000A8958091600088618093600010926000F8
:104CB0000FBE0E948B22E1E1F2E08191811153C489
:104CC0002BA92E13FACF8091A003853009F4CACF07
:104CD0000E94B10E0E942B0679CF98138BCF0E94B1
:104CE000672280917B0390917C03892B09F43EC05D
:104CF000409170035091710360917203709173033E
:104D00002FB7F89480918F0390919003A091910315
:104D1000B09192032FBF841B950BA60BB70B40914C
:104D20006C0350916D0360916E0370916F03841753
:104D30009507A607B707D0F080917B0390917C037D
:104D40000E94021410927C0310927B031092700355
:104D500010927103109272031092730310926C03FD
:104D600010926D0310926E0310926F03C090840333
:104D7000D0908503C114D10419F180910A02909159
:104D80000B020E945B055C01C6010E94210D8A1581
:104D90009B05B0F480918403909185039927853019
:104DA000910508F075C064E0880F991F6A95E1F7D6
:104DB000825D9D4FDC0115962C9122FF0E94870E8B
:104DC00080910B01882301F1809168039091690320
:104DD0000097D1F00E945B052091CF023091D00264
:104DE0002817390788F49091660380916703981714
:104DF00009F451C00E94671E1092D0021092CF0297
:104E000010926903109268030E942B0690910C0285
:104E1000891721F080930C020E946A058091A003FB
:104E2000843009F0CACE83E08093E9008091E800E5
:104E300082FFC3CE8091E80090E085FF05C00E940C
:104E40000B04882389F191E08091E8008B778093AF
:104E5000E800992309F4B1CEC0901B02D0901C0247
:104E60008981C114D10409F43DC08E3F09F0C2C04C
:104E70008A81833020F08550833008F0BBC0EA81FE
:104E8000EE3008F0B7C0F0E0EE51F44D0C94D62AA5
:104E900090E080E08FCF0E940F1E10926903109265
:104EA00068030E94DD06B0CF50E2C52ED12CFE0172
:104EB00031965F018091E80085FD0AC08091E8008D
:104EC0008B778093E8000E940B04882399F3BBCF73
:104ED0008091F100D5018D935D01B1E0CB1AD1082D
:104EE00049F7B1CF8C3009F4C5C078F5843009F4A6
:104EF000A8C058F4823009F46CC008F093C0813027
:104F000009F463C08FEF898375C0863009F4AFC0A0
:104F100008F4A2C08B30B1F780916A0390916B03C3
:104F2000892B09F467C040E250E0BE016F5F7F4FFC
:104F300082E00E94CC0A2FEF31EE84E02150304015
:104F40008040E1F700C000001ECE803109F4C0C0EF
:104F500080F58E3009F494C008F48FC080916A0304
:104F600090916B03892B09F445C00C8110E00D3141
:104F7000110508F03FC0CA80DB80DC24CD24DC248E
:104F800057010E0D1F1DC601845A9C4F0A151B05A3
:104F900089F134EAC316D10428F4D50114966C9132
:104FA0000E94652BBFEFAB1ABB0AEFEFCE1ADE0AE9
:104FB000EACF823109F491C008F48DC0833109F43D
:104FC000B4C08E3F09F09ECF5ACF1A8289E08B83FE
:104FD00011C08A81823009F4E1C2833091F08130BE
:104FE00009F090CF0E946A050E94DC2A6B837C83C3
:104FF0008D839E8340E250E0B70182E00E94CC0A9C
:10500000DCCD80916A0390916B03892B99F3FE01AB
:105010003396D8018D918D018193B2E00B311B073E
:10502000C1F7E8CF8A81823009F06CCF6B817C8137
:105030008D819E810E94DC2A87E290E00E94652B90
:10504000D9CF4C816B818A810E94910B9827892747
:1050500098279E838D83CECF2D813E8132272327B3
:1050600032274C816B818A810E94520BC3CF0E94F0
:10507000730CC0CF80E18A83BDCF1A8284EAA7CFA8
:105080000C8110E00D31110508F0B4CFCA80DB802F
:10509000DC24CD24DC2457010E0D1F1DC601845ACB
:1050A0009C4FA016B10609F4A5CFE4EACE16D104B0
:1050B00060F40E94472BD50114968C93FFEFCF1A12
:1050C000DF0A2FEFA21AB20AE9CFF5011482F6CF58
:1050D0000E94420B8FCF85E0CECF0C8110E00D31C6
:1050E000110508F087CFCA80DB80DC24CD24DC24C6
:1050F00057010E0D1F1DC6018896A016B10609F4B2
:1051000079CFFCEBCF16F2E0DF0660F40E94472B6C
:10511000D50114968C93FFEFCF1ADF0A2FEFA21A56
:10512000B20AE9CFF5011482F6CFCC80D12C3DE153
:10513000C316D10408F05ECF0A811B811027012716
:1051400010270C3B82E0180708F054CF8CEB92E05C
:10515000801B910B8C159D0508F44CCF380198E20B
:10516000690E711C80916A0390916B0328014C0CAD
:105170005D1C892BA1F55801A1E0AA22BB2400FFE8
:105180000DC0C80187960E94472B9D8189279827CB
:10519000892781159C4711F48FEF8D83460140FECE
:1051A00017C0E1E08E1A910845E0242E312C2C0E18
:1051B0003D1E280C391CC3018C0D9D1D0E94472BE0
:1051C000D1019C9181159C4719F48FEFF1018083E7
:1051D000F701EA0DFB1D2FEFA814B90410F06701C9
:1051E00019C09481858181159C4711F424832583FE
:1051F00082E0A80EB11C3296EFCF0C3BA2E01A075A
:1052000020F4F60164810E94652BFFEFCF1ADF0ABC
:105210000F5F1F4FC80188960415150571F7EACE78
:1052200088E0EDE0F1E0DE01919601900D928A9523
:10523000E1F780E2D7011D928A95E9F786E089833C
:1052400088E0FE01B196DE01159601900D928A95D7
:10525000E1F7D0CE8CEB8983B1E0BA831B821C824C
:10526000C9CE8C81682F70E0762F66278B81860FE0
:10527000972F911D092E000CAA0BBB0B35E0880F50
:10528000991FAA1FBB1F3A95D1F7AC01BD01405E23
:105290005F4F6F4F7F4F481759076A077B0708F426
:1052A000A9CE8C3BE1E09E07A105B10508F0A2CE96
:1052B0004D3BF1E05F076105710520F04CEB51E0DB
:1052C00060E070E0481B590BBC0161587E4FC7017C
:1052D0000E941A2B8FCE4AE150E06FEF70E0CE01B2
:1052E00007960E94302B80916A038983CA821B82B1
:1052F00021E02C831D8282E08E837CCE81E090E0D1
:1053000090931C0280931B0282E390E09093100222
:1053100080930F020E94760590930E0280930D02F7
:1053200069CECD2851F11091110280910D0290911A
:105330000E020E945B058536910540F112FF26C0E2
:1053400011FF24C00E94760590930E0280930D02F7
:1053500080910F0290911002019790931002809318
:105360000F02892B51F410921C0210921B0281E053
:1053700090E090936B0380936A0380916A03898322
:1053800080911B028A8380910F0221CE82E390E0FC
:105390009093100280930F02F0CF10926B03109243
:1053A0006A0328CE40E250E06FEF70E0C7010E9430
:1053B000302B20CEEB81E73008F01CCEF0E0E0513E
:1053C000F44D0C94D62A8EE1A9A9BAA91D928A950A
:1053D000E9F785E089838A8382E0F9CD8C819AE0C0
:1053E000D92E8E010F5D1F4FF8012D2D11922A9598
:1053F000E9F7B8010E940D0D8983F801DE011296CC
:1054000001900D92DA94E1F7F5CD1C818AE0FE015E
:105410003596DE01919601900D928A95E1F789A16A
:105420009AA10E9406079AA389A38BA19CA10E941E
:1054300006079CA38BA38DA19EA10E9406079EA395
:105440008DA38FA198A50E94060798A78FA38FEF21
:10545000153068F43AE0139FB00111246C517D4F70
:105460004AE050E0CE0181960E94892B80E089833A
:105470000E94EE06BFCD6C812AE0CE018196DC0150
:10548000E22F1D92EA95E9F7653008F046C0629F69
:10549000B00111246A5E7C4F4AE050E00E94372B35
:1054A00080E089838AE0FE01B196DE011296CDCEBE
:1054B0001C818AE0FE013596DE01919601900D92E5
:1054C0008A95E1F789A59AA50E9406079AA789A758
:1054D0008FEF153068F4FAE01F9FB00111246A5E67
:1054E0007C4F4AE050E0CE0181960E94892B80E0FB
:1054F00089830E94C10D7ECD6C812AE0CE01819608
:10550000DC01E22F1D92EA95E9F7623030F4629FE8
:10551000B0011124685B7C4FBFCF8FEFC2CF1C81DD
:105520008AE0FE013596DE01919601900D928A95F2
:10553000E1F78BA19CA10E9406079CA38BA38FEF90
:10554000123068F4FAE01F9FB0011124685B7C4FB1
:105550004AE050E0CE0181960E94892B80E0898349
:105560000E943D0D47CD80919F03882309F4ABCB6A
:1055700009BDD9BC09B400FEFDCF8091D8008F7D54
:105580008093D8008091E00082608093E000809159
:10559000E00081FDFCCF0E94B10E95CB87E290E048
:1055A0000E94472B1B821C821D82A6CEEE0FFF1F7E
:1055B0000590F491E02D09946927962769277827AB
:1055C0008727782708952F923F924F925F926F928C
:1055D0007F928F929F92AF92BF92CF92DF92EF9283
:1055E000FF920F931F93CF93DF93CDB7DEB7CA1B04
:1055F000DB0B0FB6F894DEBF0FBECDBF09942A882F
:10560000398848885F846E847D848C849B84AA84D6
:10561000B984C884DF80EE80FD800C811B81AA8163
:10562000B981CE0FD11D0FB6F894DEBF0FBECDBF2E
:10563000ED010895FB01DC0102C005900D9241507F
:105640005040D8F70895FB01DC0104C08D91019012
:10565000801921F441505040C8F7881B990B0895D8
:10566000DC0101C06D9341505040E0F70895DC012A
:10567000CB01FC01F999FECF06C0F2BDE1BDF89A5D
:10568000319600B40D9241505040B8F70895F99901
:10569000FECF92BD81BDF89A992780B50895A8E103
:1056A000B0E042E050E00C94392BDC01A40FB51FB0
:1056B0004150504048F0CB01840F951F2E910E941D
:1056C000662B41505040D0F70895262FF999FECF10
:1056D00092BD81BDF89A019700B4021639F01FBA45
:1056E00020BD0FB6F894FA9AF99A0FBE0895039662
:1056F000272F0E94662B0E94652B252F0E94662B68
:10570000242F0C94662B0196272F0E94662B0C9455
:10571000652BDC01CB0103C02D910E94942B4150DD
:105720005040D0F70895262FF999FECF1FBA92BDA9
:1057300081BD20BD0FB6F894FA9AF99A0FBE019672
:105740000895F894FFCFB40FDC0F8A11DC0F8A1193
:105750000F1030108A1139114611021777170A17E6
:10576000D416D8160E17DC1612171E17E816701767
:10577000EC162217F01626174E17F4162A1755178F
:10578000FA1630173817E0161617E4161A17FE1611
:10579000341744175E176E17CE1606177E17AA1613
:1057A000B0169B16A416B616BC16C216DE17DE1768
:1057B00014181418C9183B183B183B18E3184E1955
:1057C0005D195D1910292A293129FA27FA276B2931
:1057D0007E299129CD29D229FA27FA27FA27DA2911
:0E57E000E329EE29052A3B2A582A7C2A8F2A23
:1057EE00014705150B0E0B4605070B0101BCDA84AC
:1057FE003C327A7267818283E200E900EA00B500EA
:10580E00B600B700CD008301CC008A01920194014D
:10581E002102230224022502260227022A02B300B5
:10582E00B4006F0070009F01CB019F02A0023534BF
:10583E00C69766F49490919236323331F7F6F5446A
:0E584E00226D3B011901AC000906220642063C
:00000001FF
